{"contracts/CatNFT.sol":{"CatNFT":{"abi":[{"inputs":[],"stateMutability":"nonpayable","type":"constructor"},{"inputs":[{"internalType":"address","name":"sender","type":"address"},{"internalType":"uint256","name":"tokenId","type":"uint256"},{"internalType":"address","name":"owner","type":"address"}],"name":"ERC721IncorrectOwner","type":"error"},{"inputs":[{"internalType":"address","name":"operator","type":"address"},{"internalType":"uint256","name":"tokenId","type":"uint256"}],"name":"ERC721InsufficientApproval","type":"error"},{"inputs":[{"internalType":"address","name":"approver","type":"address"}],"name":"ERC721InvalidApprover","type":"error"},{"inputs":[{"internalType":"address","name":"operator","type":"address"}],"name":"ERC721InvalidOperator","type":"error"},{"inputs":[{"internalType":"address","name":"owner","type":"address"}],"name":"ERC721InvalidOwner","type":"error"},{"inputs":[{"internalType":"address","name":"receiver","type":"address"}],"name":"ERC721InvalidReceiver","type":"error"},{"inputs":[{"internalType":"address","name":"sender","type":"address"}],"name":"ERC721InvalidSender","type":"error"},{"inputs":[{"internalType":"uint256","name":"tokenId","type":"uint256"}],"name":"ERC721NonexistentToken","type":"error"},{"inputs":[],"name":"EnforcedPause","type":"error"},{"inputs":[],"name":"ExpectedPause","type":"error"},{"inputs":[{"internalType":"address","name":"owner","type":"address"}],"name":"OwnableInvalidOwner","type":"error"},{"inputs":[{"internalType":"address","name":"account","type":"address"}],"name":"OwnableUnauthorizedAccount","type":"error"},{"inputs":[],"name":"ReentrancyGuardReentrantCall","type":"error"},{"anonymous":false,"inputs":[{"indexed":true,"internalType":"address","name":"owner","type":"address"},{"indexed":true,"internalType":"address","name":"approved","type":"address"},{"indexed":true,"internalType":"uint256","name":"tokenId","type":"uint256"}],"name":"Approval","type":"event"},{"anonymous":false,"inputs":[{"indexed":true,"internalType":"address","name":"owner","type":"address"},{"indexed":true,"internalType":"address","name":"operator","type":"address"},{"indexed":false,"internalType":"bool","name":"approved","type":"bool"}],"name":"ApprovalForAll","type":"event"},{"anonymous":false,"inputs":[{"indexed":false,"internalType":"uint256","name":"_fromTokenId","type":"uint256"},{"indexed":false,"internalType":"uint256","name":"_toTokenId","type":"uint256"}],"name":"BatchMetadataUpdate","type":"event"},{"anonymous":false,"inputs":[{"indexed":true,"internalType":"address","name":"to","type":"address"},{"indexed":true,"internalType":"uint256","name":"tokenId","type":"uint256"},{"indexed":true,"internalType":"uint256","name":"catTypeId","type":"uint256"}],"name":"CatMinted","type":"event"},{"anonymous":false,"inputs":[{"indexed":true,"internalType":"uint256","name":"catTypeId","type":"uint256"},{"indexed":false,"internalType":"uint256","name":"maxSupply","type":"uint256"}],"name":"MaxSupplySet","type":"event"},{"anonymous":false,"inputs":[{"indexed":false,"internalType":"uint256","name":"_tokenId","type":"uint256"}],"name":"MetadataUpdate","type":"event"},{"anonymous":false,"inputs":[{"indexed":true,"internalType":"address","name":"previousOwner","type":"address"},{"indexed":true,"internalType":"address","name":"newOwner","type":"address"}],"name":"OwnershipTransferred","type":"event"},{"anonymous":false,"inputs":[{"indexed":false,"internalType":"address","name":"account","type":"address"}],"name":"Paused","type":"event"},{"anonymous":false,"inputs":[{"indexed":true,"internalType":"uint256","name":"catTypeId","type":"uint256"},{"indexed":false,"internalType":"uint256","name":"price","type":"uint256"}],"name":"PriceSet","type":"event"},{"anonymous":false,"inputs":[{"indexed":true,"internalType":"address","name":"from","type":"address"},{"indexed":true,"internalType":"address","name":"to","type":"address"},{"indexed":true,"internalType":"uint256","name":"tokenId","type":"uint256"}],"name":"Transfer","type":"event"},{"anonymous":false,"inputs":[{"indexed":false,"internalType":"address","name":"account","type":"address"}],"name":"Unpaused","type":"event"},{"inputs":[{"internalType":"address","name":"to","type":"address"},{"internalType":"uint256","name":"tokenId","type":"uint256"}],"name":"approve","outputs":[],"stateMutability":"nonpayable","type":"function"},{"inputs":[{"internalType":"address","name":"owner","type":"address"}],"name":"balanceOf","outputs":[{"internalType":"uint256","name":"","type":"uint256"}],"stateMutability":"view","type":"function"},{"inputs":[{"internalType":"uint256","name":"","type":"uint256"}],"name":"catPrices","outputs":[{"internalType":"uint256","name":"","type":"uint256"}],"stateMutability":"view","type":"function"},{"inputs":[{"internalType":"uint256","name":"","type":"uint256"}],"name":"catType","outputs":[{"internalType":"uint256","name":"","type":"uint256"}],"stateMutability":"view","type":"function"},{"inputs":[{"internalType":"uint256","name":"tokenId","type":"uint256"}],"name":"getApproved","outputs":[{"internalType":"address","name":"","type":"address"}],"stateMutability":"view","type":"function"},{"inputs":[{"internalType":"uint256","name":"tokenId","type":"uint256"}],"name":"getCatType","outputs":[{"internalType":"uint256","name":"","type":"uint256"}],"stateMutability":"view","type":"function"},{"inputs":[{"internalType":"address","name":"owner","type":"address"},{"internalType":"address","name":"operator","type":"address"}],"name":"isApprovedForAll","outputs":[{"internalType":"bool","name":"","type":"bool"}],"stateMutability":"view","type":"function"},{"inputs":[{"internalType":"uint256","name":"","type":"uint256"}],"name":"maxSupply","outputs":[{"internalType":"uint256","name":"","type":"uint256"}],"stateMutability":"view","type":"function"},{"inputs":[{"internalType":"address","name":"to","type":"address"},{"internalType":"uint256","name":"catTypeId","type":"uint256"},{"internalType":"string","name":"tokenURI","type":"string"}],"name":"mint","outputs":[{"internalType":"uint256","name":"","type":"uint256"}],"stateMutability":"nonpayable","type":"function"},{"inputs":[],"name":"name","outputs":[{"internalType":"string","name":"","type":"string"}],"stateMutability":"view","type":"function"},{"inputs":[],"name":"owner","outputs":[{"internalType":"address","name":"","type":"address"}],"stateMutability":"view","type":"function"},{"inputs":[{"internalType":"uint256","name":"tokenId","type":"uint256"}],"name":"ownerOf","outputs":[{"internalType":"address","name":"","type":"address"}],"stateMutability":"view","type":"function"},{"inputs":[],"name":"pause","outputs":[],"stateMutability":"nonpayable","type":"function"},{"inputs":[],"name":"paused","outputs":[{"internalType":"bool","name":"","type":"bool"}],"stateMutability":"view","type":"function"},{"inputs":[],"name":"renounceOwnership","outputs":[],"stateMutability":"nonpayable","type":"function"},{"inputs":[{"internalType":"address","name":"from","type":"address"},{"internalType":"address","name":"to","type":"address"},{"internalType":"uint256","name":"tokenId","type":"uint256"}],"name":"safeTransferFrom","outputs":[],"stateMutability":"nonpayable","type":"function"},{"inputs":[{"internalType":"address","name":"from","type":"address"},{"internalType":"address","name":"to","type":"address"},{"internalType":"uint256","name":"tokenId","type":"uint256"},{"internalType":"bytes","name":"data","type":"bytes"}],"name":"safeTransferFrom","outputs":[],"stateMutability":"nonpayable","type":"function"},{"inputs":[{"internalType":"address","name":"operator","type":"address"},{"internalType":"bool","name":"approved","type":"bool"}],"name":"setApprovalForAll","outputs":[],"stateMutability":"nonpayable","type":"function"},{"inputs":[{"internalType":"uint256","name":"catTypeId","type":"uint256"},{"internalType":"uint256","name":"price","type":"uint256"}],"name":"setCatPrice","outputs":[],"stateMutability":"nonpayable","type":"function"},{"inputs":[{"internalType":"uint256","name":"catTypeId","type":"uint256"},{"internalType":"uint256","name":"_maxSupply","type":"uint256"}],"name":"setMaxSupply","outputs":[],"stateMutability":"nonpayable","type":"function"},{"inputs":[{"internalType":"bytes4","name":"interfaceId","type":"bytes4"}],"name":"supportsInterface","outputs":[{"internalType":"bool","name":"","type":"bool"}],"stateMutability":"view","type":"function"},{"inputs":[],"name":"symbol","outputs":[{"internalType":"string","name":"","type":"string"}],"stateMutability":"view","type":"function"},{"inputs":[{"internalType":"uint256","name":"tokenId","type":"uint256"}],"name":"tokenURI","outputs":[{"internalType":"string","name":"","type":"string"}],"stateMutability":"view","type":"function"},{"inputs":[],"name":"totalSupply","outputs":[{"internalType":"uint256","name":"","type":"uint256"}],"stateMutability":"view","type":"function"},{"inputs":[{"internalType":"address","name":"from","type":"address"},{"internalType":"address","name":"to","type":"address"},{"internalType":"uint256","name":"tokenId","type":"uint256"}],"name":"transferFrom","outputs":[],"stateMutability":"nonpayable","type":"function"},{"inputs":[{"internalType":"address","name":"newOwner","type":"address"}],"name":"transferOwnership","outputs":[],"stateMutability":"nonpayable","type":"function"},{"inputs":[{"internalType":"uint256","name":"","type":"uint256"}],"name":"typeSupply","outputs":[{"internalType":"uint256","name":"","type":"uint256"}],"stateMutability":"view","type":"function"},{"inputs":[],"name":"unpause","outputs":[],"stateMutability":"nonpayable","type":"function"}],"evm":{"bytecode":{"linkReferences":{},"object":"60803462000381576001600160401b0390604090808201838111828210176200036b5782526009815260209168141a5e195b0810d85d60ba1b83830152805193818501858110828211176200036b578252600685526510d05513919560d21b8486015282518181116200036b576000948554916001958684811c9416801562000360575b838510146200034c578190601f94858111620002f9575b5083908583116001146200029557899262000289575b5050600019600383901b1c191690861b1786555b8651928311620002755784548581811c911680156200026a575b8282101462000256578281116200020e575b5080918311600114620001a557508495829394959262000199575b5050600019600383901b1c191690831b1782555b3315620001825760078054336001600160a01b03198216811790925591519390916001600160a01b0316907f8be0079c531659141344cd1fd0a4f28419497f9722a3daafe3b4186f6b6457e09080a380600855600a556115429081620003878239f35b51631e4fbdf760e01b815260048101839052602490fd5b0151905038806200010b565b90601f198316968587528287209287905b898210620001f65750508386979896959610620001dc575b505050811b0182556200011f565b015160001960f88460031b161c19169055388080620001ce565b808885968294968601518155019501930190620001b6565b8587528187208380860160051c8201928487106200024c575b0160051c019086905b82811062000240575050620000f0565b88815501869062000230565b9250819262000227565b634e487b7160e01b87526022600452602487fd5b90607f1690620000de565b634e487b7160e01b86526041600452602486fd5b015190503880620000b0565b898052848a208994509190601f1984168b5b87828210620002e25750508411620002c8575b505050811b018655620000c4565b015160001960f88460031b161c19169055388080620002ba565b8385015186558c97909501949384019301620002a7565b9091508880528389208580850160051c82019286861062000342575b918a91869594930160051c01915b828110620003335750506200009a565b8b81558594508a910162000323565b9250819262000315565b634e487b7160e01b88526022600452602488fd5b93607f169362000083565b634e487b7160e01b600052604160045260246000fd5b600080fdfe6080604081815260048036101561001557600080fd5b600092833560e01c90816301ffc9a714610f4f5750806306fdde0314610e9e578063081812fc14610e63578063095ea7b314610d8757806318160ddd14610d4757806323b872dd14610d2f5780632acd990f14610ca457806337da577c14610c535780633f4ba83a14610bea57806342842e0e14610bc157806345a33f3214610b9a5780635c975abb14610b765780636352211e14610b4557806370107e1514610b1e57806370a0823114610ac9578063715018a614610a6c5780637a2805cb14610a455780638456cb59146109ea578063869f7594146109c35780638da5cb5b1461099a57806395d89b41146108ac578063a22cb4651461080f578063b3c6487b146107be578063b88d4fde14610756578063c87b56dd14610660578063d3fc98641461023b578063e985e9c5146101e95763f2fde38b1461015757600080fd5b346101e55760203660031901126101e557610170611015565b906101796114c2565b6001600160a01b039182169283156101cf575050600754826bffffffffffffffffffffffff60a01b821617600755167f8be0079c531659141344cd1fd0a4f28419497f9722a3daafe3b4186f6b6457e08380a380f35b51631e4fbdf760e01b8152908101849052602490fd5b8280fd5b50503461023757806003193601126102375760ff81602093610209611015565b610211611030565b6001600160a01b0391821683526005875283832091168252855220549151911615158152f35b5080fd5b5091903461023757606036600319011261023757610257611015565b906024938435916044359167ffffffffffffffff9283811161065c573660238201121561065c5761029090369089818501359101611101565b926102996114c2565b6102a16114ee565b60026008541461064d5760026008556001600160a01b039586169384156105ff57908594939291889687526020998a98600e8a528589205461057a575b889087600a549b8c926102f084611462565b600a5583855260028252898520541690838a8315159687610547575b8581526003845220805460019081019091559d5260029052888e2080546001600160a01b031916831790557fddf252ad1be2c89b69c2b068fc378daa952ba7f163c4a11628f55a4df523b3ef8e80a461053357888a5260068b52848a209382519384116105225750509082916103858996959454611138565b601f81116104ca575b508a90601f831160011461043d577f5e7ba0e952b60af622a0b42609eecd1854deee467f89008e1817f4b827d55d6f949392918b9183610432575b5050600019600383901b1c191690881b1790555b7ff8e1a15aba9398e019f0b49df1a4fde98ee17ae345cb5f6b5e2c27f5033e8ce7898251868152a1838852600c89528481892055848852600d89528088206104258154611462565b9055519680a46008558152f35b0151905038806103c9565b95949392918a89928d601f1984169086845280842093905b8282106104b057505098837f5e7ba0e952b60af622a0b42609eecd1854deee467f89008e1817f4b827d55d6f98999a10610497575b505050811b0190556103dd565b015160001960f88460031b161c1916905538808061048a565b838c015185558e9a508d969094019392830192018f610455565b90919280949596508a528a8a20601f840160051c8101918c8510610518575b8a97969594939291601f8b920160051c01915b82811061050a57505061038e565b8c81558b98508a91016104fc565b90915081906104e9565b634e487b7160e01b8b526041905289fd5b84516339e3563760e11b81528085018b9052fd5b600083815260046020526040902080546001600160a01b031916905584815260038452818120805460001901905561030c565b919395975091939597600d905285892054600e8b52868a205411156105a857918997959391899795936102de565b855162461bcd60e51b81528086018b9052602c818401527f4361744e46543a206d617820737570706c79207265616368656420666f72207460448201526b68697320636174207479706560a01b6064820152608490fd5b835162461bcd60e51b81526020818501526023818b01527f4361744e46543a2063616e6e6f74206d696e7420746f207a65726f206164647260448201526265737360e81b6064820152608490fd5b509051633ee5aeb560e01b8152fd5b8680fd5b5090346101e55760209182600319360112610752573561067f81611487565b5083526006825280832092815180948290805461069b81611138565b918285526001918860018216918260001461072b5750506001146106ed575b5050506106e99392916106ce9103866110c3565b81516106d981611091565b5251928284938452830190610fd5565b0390f35b8552868520879350859291905b82841061071357505050820101816106ce6106e96106ba565b8054848b0186015289955088949093019281016106fa565b60ff19168782015293151560051b860190930193508492506106ce91506106e990506106ba565b8380fd5b83823461023757608036600319011261023757610771611015565b610779611030565b9060643567ffffffffffffffff81116107ba57366023820112156107ba576107b7938160246107ad93369301359101611101565b9160443591611311565b80f35b8480fd5b505034610237577fa0f1665b7b659537b52deec61ea64d134a3bccda74c7f4e79f2246e7a8187a8a60206107f13661107b565b90936107fb6114c2565b848652600b8352818187205551908152a280f35b5090346101e557806003193601126101e557610829611015565b90602435918215158093036107ba576001600160a01b03169283156108975750338452600560205280842083855260205280842060ff1981541660ff8416179055519081527f17307eab39ab6107e8899845ad3d59bd9653f200f220920489ca2b5937696c3160203392a380f35b836024925191630b61174360e31b8352820152fd5b8284346109975780600319360112610997578151918282600193600154946108d386611138565b9182855260209687600182169182600014610970575050600114610914575b5050506106e992916109059103856110c3565b51928284938452830190610fd5565b9190869350600183527fb10e2d527612073b26eecdfd717e6a320cf44b4afac2b0732d9fcbe2b7fa0cf65b82841061095857505050820101816109056106e96108f2565b8054848a01860152889550879490930192810161093f565b60ff19168782015293151560051b8601909301935084925061090591506106e990506108f2565b80fd5b50503461023757816003193601126102375760075490516001600160a01b039091168152602090f35b50346101e55760203660031901126101e5576020928291358152600e845220549051908152f35b50503461023757816003193601126102375760207f62e78cea01bee320cd4e420270b5ea74000d11b0c9f74754ebdbfc544b05a25891610a286114c2565b610a306114ee565b600160ff19600954161760095551338152a180f35b50346101e55760203660031901126101e5576020928291358152600c845220549051908152f35b8334610997578060031936011261099757610a856114c2565b600780546001600160a01b0319811690915581906001600160a01b03167f8be0079c531659141344cd1fd0a4f28419497f9722a3daafe3b4186f6b6457e08280a380f35b509134610997576020366003190112610997576001600160a01b03610aec611015565b16928315610b095750806020938392526003845220549051908152f35b91516322718ad960e21b815291820152602490fd5b50346101e55760203660031901126101e5576020928291358152600b845220549051908152f35b5091346109975760203660031901126109975750610b6560209235611487565b90516001600160a01b039091168152f35b50503461023757816003193601126102375760209060ff6009541690519015158152f35b50346101e55760203660031901126101e5576020928291358152600d845220549051908152f35b505034610237576107b790610bd536611046565b91925192610be284611091565b858452611311565b50346101e557826003193601126101e557610c036114c2565b6009549060ff821615610c45575060ff1916600955513381527f5db9ee0a495bf2e6ff9c91a7834c1ba4fdd244a5e8aa4e537bd38aeae4b073aa90602090a180f35b8251638dfc202b60e01b8152fd5b505034610237577f5af22a09e6677efe5d29d19bf6a17f71d28caad7707022d8eab337320df9f50d6020610c863661107b565b9093610c906114c2565b848652600e8352818187205551908152a280f35b508290346102375760203660031901126102375780358083526002602052838320549091906001600160a01b031615610cec576020848085858152600c845220549051908152f35b606490602085519162461bcd60e51b8352820152601c60248201527f4361744e46543a20746f6b656e20646f6573206e6f74206578697374000000006044820152fd5b8334610997576107b7610d4136611046565b91611172565b50919034610237578160031936011261023757600a54600019810192908311610d74576020838351908152f35b634e487b7160e01b815260118452602490fd5b5090346101e557806003193601126101e557610da1611015565b91602435610dae81611487565b33151580610e50575b80610e27575b610e11576001600160a01b039485169482918691167f8c5be1e5ebec7d5bd14f71427d1e84f3dd0314c0f7b2291e5b200ac8c7c3b9258880a48452602052822080546001600160a01b031916909117905580f35b835163a9fbf51f60e01b81523381850152602490fd5b506001600160a01b03811686526005602090815284872033885290528386205460ff1615610dbd565b506001600160a01b038116331415610db7565b50346101e55760203660031901126101e557918260209335610e8481611487565b50825283528190205490516001600160a01b039091168152f35b82843461099757806003193601126109975781519182828354610ec081611138565b9081845260209560019187600182169182600014610970575050600114610ef4575050506106e992916109059103856110c3565b91908693508280527f290decd9548b62a8d60345a988386fc84ba6bc95484008f6362f93160ef3e5635b828410610f3757505050820101816109056106e96108f2565b8054848a018601528895508794909301928101610f1e565b925050346101e55760203660031901126101e5573563ffffffff60e01b81168091036101e55760209250632483248360e11b8114908115610f92575b5015158152f35b6380ac58cd60e01b811491508115610fc4575b8115610fb3575b5038610f8b565b6301ffc9a760e01b14905038610fac565b635b5e139f60e01b81149150610fa5565b919082519283825260005b848110611001575050826000602080949584010152601f8019910116010190565b602081830181015184830182015201610fe0565b600435906001600160a01b038216820361102b57565b600080fd5b602435906001600160a01b038216820361102b57565b606090600319011261102b576001600160a01b0390600435828116810361102b5791602435908116810361102b579060443590565b604090600319011261102b576004359060243590565b6020810190811067ffffffffffffffff8211176110ad57604052565b634e487b7160e01b600052604160045260246000fd5b90601f8019910116810190811067ffffffffffffffff8211176110ad57604052565b67ffffffffffffffff81116110ad57601f01601f191660200190565b92919261110d826110e5565b9161111b60405193846110c3565b82948184528183011161102b578281602093846000960137010152565b90600182811c92168015611168575b602083101461115257565b634e487b7160e01b600052602260045260246000fd5b91607f1691611147565b6001600160a01b0391821692909183156112f857600092828452826020956002875260409684888820541696879133151580611262575b509060027fddf252ad1be2c89b69c2b068fc378daa952ba7f163c4a11628f55a4df523b3ef928461122f575b858352600381528b8320805460010190558683525289812080546001600160a01b0319168517905580a4169283830361120e5750505050565b6064945051926364283d7b60e01b8452600484015260248301526044820152fd5b600087815260046020526040902080546001600160a01b0319169055848352600381528b832080546000190190556111d5565b919394509150806112b7575b1561127e578592918791386111a9565b87868861129b576024915190637e27328960e01b82526004820152fd5b604491519063177e802f60e01b82523360048301526024820152fd5b5033871480156112dc575b8061126e575085825260048152338589842054161461126e565b5086825260058152878220338352815260ff88832054166112c2565b604051633250574960e11b815260006004820152602490fd5b92909261131f838583611172565b833b61132c575b50505050565b604051630a85bd0160e11b8082523360048301526001600160a01b0392831660248301526044820194909452608060648201529493169260209290918590611378906084830190610fd5565b039483816000978189895af1869181611422575b506113ed575050503d6000146113e4573d6113a6816110e5565b906113b460405192836110c3565b81528093823d92013e5b825192836113df57604051633250574960e11b815260048101849052602490fd5b019050fd5b606092506113be565b919450915063ffffffff60e01b160361140a575038808080611326565b60249060405190633250574960e11b82526004820152fd5b9091508481813d831161145b575b61143a81836110c3565b8101031261065c57516001600160e01b03198116810361065c57903861138c565b503d611430565b60001981146114715760010190565b634e487b7160e01b600052601160045260246000fd5b6000818152600260205260409020546001600160a01b03169081156114aa575090565b60249060405190637e27328960e01b82526004820152fd5b6007546001600160a01b031633036114d657565b60405163118cdaa760e01b8152336004820152602490fd5b60ff600954166114fa57565b60405163d93c066560e01b8152600490fdfea2646970667358221220ca0eb2dbc6401318deb8181b569d37c5d59f0b57b21d587a918a366b3ad1dd8864736f6c63430008180033","opcodes":"PUSH1 0x80 CALLVALUE PUSH3 0x381 JUMPI PUSH1 0x1 PUSH1 0x1 PUSH1 0x40 SHL SUB SWAP1 PUSH1 0x40 SWAP1 DUP1 DUP3 ADD DUP4 DUP2 GT DUP3 DUP3 LT OR PUSH3 0x36B JUMPI DUP3 MSTORE PUSH1 0x9 DUP2 MSTORE PUSH1 0x20 SWAP2 PUSH9 0x141A5E195B0810D85D PUSH1 0xBA SHL DUP4 DUP4 ADD MSTORE DUP1 MLOAD SWAP4 DUP2 DUP6 ADD DUP6 DUP2 LT DUP3 DUP3 GT OR PUSH3 0x36B JUMPI DUP3 MSTORE PUSH1 0x6 DUP6 MSTORE PUSH6 0x10D055139195 PUSH1 0xD2 SHL DUP5 DUP7 ADD MSTORE DUP3 MLOAD DUP2 DUP2 GT PUSH3 0x36B JUMPI PUSH1 0x0 SWAP5 DUP6 SLOAD SWAP2 PUSH1 0x1 SWAP6 DUP7 DUP5 DUP2 SHR SWAP5 AND DUP1 ISZERO PUSH3 0x360 JUMPI JUMPDEST DUP4 DUP6 LT EQ PUSH3 0x34C JUMPI DUP2 SWAP1 PUSH1 0x1F SWAP5 DUP6 DUP2 GT PUSH3 0x2F9 JUMPI JUMPDEST POP DUP4 SWAP1 DUP6 DUP4 GT PUSH1 0x1 EQ PUSH3 0x295 JUMPI DUP10 SWAP3 PUSH3 0x289 JUMPI JUMPDEST POP POP PUSH1 0x0 NOT PUSH1 0x3 DUP4 SWAP1 SHL SHR NOT AND SWAP1 DUP7 SHL OR DUP7 SSTORE JUMPDEST DUP7 MLOAD SWAP3 DUP4 GT PUSH3 0x275 JUMPI DUP5 SLOAD DUP6 DUP2 DUP2 SHR SWAP2 AND DUP1 ISZERO PUSH3 0x26A JUMPI JUMPDEST DUP3 DUP3 LT EQ PUSH3 0x256 JUMPI DUP3 DUP2 GT PUSH3 0x20E JUMPI JUMPDEST POP DUP1 SWAP2 DUP4 GT PUSH1 0x1 EQ PUSH3 0x1A5 JUMPI POP DUP5 SWAP6 DUP3 SWAP4 SWAP5 SWAP6 SWAP3 PUSH3 0x199 JUMPI JUMPDEST POP POP PUSH1 0x0 NOT PUSH1 0x3 DUP4 SWAP1 SHL SHR NOT AND SWAP1 DUP4 SHL OR DUP3 SSTORE JUMPDEST CALLER ISZERO PUSH3 0x182 JUMPI PUSH1 0x7 DUP1 SLOAD CALLER PUSH1 0x1 PUSH1 0x1 PUSH1 0xA0 SHL SUB NOT DUP3 AND DUP2 OR SWAP1 SWAP3 SSTORE SWAP2 MLOAD SWAP4 SWAP1 SWAP2 PUSH1 0x1 PUSH1 0x1 PUSH1 0xA0 SHL SUB AND SWAP1 PUSH32 0x8BE0079C531659141344CD1FD0A4F28419497F9722A3DAAFE3B4186F6B6457E0 SWAP1 DUP1 LOG3 DUP1 PUSH1 0x8 SSTORE PUSH1 0xA SSTORE PUSH2 0x1542 SWAP1 DUP2 PUSH3 0x387 DUP3 CODECOPY RETURN JUMPDEST MLOAD PUSH4 0x1E4FBDF7 PUSH1 0xE0 SHL DUP2 MSTORE PUSH1 0x4 DUP2 ADD DUP4 SWAP1 MSTORE PUSH1 0x24 SWAP1 REVERT JUMPDEST ADD MLOAD SWAP1 POP CODESIZE DUP1 PUSH3 0x10B JUMP JUMPDEST SWAP1 PUSH1 0x1F NOT DUP4 AND SWAP7 DUP6 DUP8 MSTORE DUP3 DUP8 KECCAK256 SWAP3 DUP8 SWAP1 JUMPDEST DUP10 DUP3 LT PUSH3 0x1F6 JUMPI POP POP DUP4 DUP7 SWAP8 SWAP9 SWAP7 SWAP6 SWAP7 LT PUSH3 0x1DC JUMPI JUMPDEST POP POP POP DUP2 SHL ADD DUP3 SSTORE PUSH3 0x11F JUMP JUMPDEST ADD MLOAD PUSH1 0x0 NOT PUSH1 0xF8 DUP5 PUSH1 0x3 SHL AND SHR NOT AND SWAP1 SSTORE CODESIZE DUP1 DUP1 PUSH3 0x1CE JUMP JUMPDEST DUP1 DUP9 DUP6 SWAP7 DUP3 SWAP5 SWAP7 DUP7 ADD MLOAD DUP2 SSTORE ADD SWAP6 ADD SWAP4 ADD SWAP1 PUSH3 0x1B6 JUMP JUMPDEST DUP6 DUP8 MSTORE DUP2 DUP8 KECCAK256 DUP4 DUP1 DUP7 ADD PUSH1 0x5 SHR DUP3 ADD SWAP3 DUP5 DUP8 LT PUSH3 0x24C JUMPI JUMPDEST ADD PUSH1 0x5 SHR ADD SWAP1 DUP7 SWAP1 JUMPDEST DUP3 DUP2 LT PUSH3 0x240 JUMPI POP POP PUSH3 0xF0 JUMP JUMPDEST DUP9 DUP2 SSTORE ADD DUP7 SWAP1 PUSH3 0x230 JUMP JUMPDEST SWAP3 POP DUP2 SWAP3 PUSH3 0x227 JUMP JUMPDEST PUSH4 0x4E487B71 PUSH1 0xE0 SHL DUP8 MSTORE PUSH1 0x22 PUSH1 0x4 MSTORE PUSH1 0x24 DUP8 REVERT JUMPDEST SWAP1 PUSH1 0x7F AND SWAP1 PUSH3 0xDE JUMP JUMPDEST PUSH4 0x4E487B71 PUSH1 0xE0 SHL DUP7 MSTORE PUSH1 0x41 PUSH1 0x4 MSTORE PUSH1 0x24 DUP7 REVERT JUMPDEST ADD MLOAD SWAP1 POP CODESIZE DUP1 PUSH3 0xB0 JUMP JUMPDEST DUP10 DUP1 MSTORE DUP5 DUP11 KECCAK256 DUP10 SWAP5 POP SWAP2 SWAP1 PUSH1 0x1F NOT DUP5 AND DUP12 JUMPDEST DUP8 DUP3 DUP3 LT PUSH3 0x2E2 JUMPI POP POP DUP5 GT PUSH3 0x2C8 JUMPI JUMPDEST POP POP POP DUP2 SHL ADD DUP7 SSTORE PUSH3 0xC4 JUMP JUMPDEST ADD MLOAD PUSH1 0x0 NOT PUSH1 0xF8 DUP5 PUSH1 0x3 SHL AND SHR NOT AND SWAP1 SSTORE CODESIZE DUP1 DUP1 PUSH3 0x2BA JUMP JUMPDEST DUP4 DUP6 ADD MLOAD DUP7 SSTORE DUP13 SWAP8 SWAP1 SWAP6 ADD SWAP5 SWAP4 DUP5 ADD SWAP4 ADD PUSH3 0x2A7 JUMP JUMPDEST SWAP1 SWAP2 POP DUP9 DUP1 MSTORE DUP4 DUP10 KECCAK256 DUP6 DUP1 DUP6 ADD PUSH1 0x5 SHR DUP3 ADD SWAP3 DUP7 DUP7 LT PUSH3 0x342 JUMPI JUMPDEST SWAP2 DUP11 SWAP2 DUP7 SWAP6 SWAP5 SWAP4 ADD PUSH1 0x5 SHR ADD SWAP2 JUMPDEST DUP3 DUP2 LT PUSH3 0x333 JUMPI POP POP PUSH3 0x9A JUMP JUMPDEST DUP12 DUP2 SSTORE DUP6 SWAP5 POP DUP11 SWAP2 ADD PUSH3 0x323 JUMP JUMPDEST SWAP3 POP DUP2 SWAP3 PUSH3 0x315 JUMP JUMPDEST PUSH4 0x4E487B71 PUSH1 0xE0 SHL DUP9 MSTORE PUSH1 0x22 PUSH1 0x4 MSTORE PUSH1 0x24 DUP9 REVERT JUMPDEST SWAP4 PUSH1 0x7F AND SWAP4 PUSH3 0x83 JUMP JUMPDEST PUSH4 0x4E487B71 PUSH1 0xE0 SHL PUSH1 0x0 MSTORE PUSH1 0x41 PUSH1 0x4 MSTORE PUSH1 0x24 PUSH1 0x0 REVERT JUMPDEST PUSH1 0x0 DUP1 REVERT INVALID PUSH1 0x80 PUSH1 0x40 DUP2 DUP2 MSTORE PUSH1 0x4 DUP1 CALLDATASIZE LT ISZERO PUSH2 0x15 JUMPI PUSH1 0x0 DUP1 REVERT JUMPDEST PUSH1 0x0 SWAP3 DUP4 CALLDATALOAD PUSH1 0xE0 SHR SWAP1 DUP2 PUSH4 0x1FFC9A7 EQ PUSH2 0xF4F JUMPI POP DUP1 PUSH4 0x6FDDE03 EQ PUSH2 0xE9E JUMPI DUP1 PUSH4 0x81812FC EQ PUSH2 0xE63 JUMPI DUP1 PUSH4 0x95EA7B3 EQ PUSH2 0xD87 JUMPI DUP1 PUSH4 0x18160DDD EQ PUSH2 0xD47 JUMPI DUP1 PUSH4 0x23B872DD EQ PUSH2 0xD2F JUMPI DUP1 PUSH4 0x2ACD990F EQ PUSH2 0xCA4 JUMPI DUP1 PUSH4 0x37DA577C EQ PUSH2 0xC53 JUMPI DUP1 PUSH4 0x3F4BA83A EQ PUSH2 0xBEA JUMPI DUP1 PUSH4 0x42842E0E EQ PUSH2 0xBC1 JUMPI DUP1 PUSH4 0x45A33F32 EQ PUSH2 0xB9A JUMPI DUP1 PUSH4 0x5C975ABB EQ PUSH2 0xB76 JUMPI DUP1 PUSH4 0x6352211E EQ PUSH2 0xB45 JUMPI DUP1 PUSH4 0x70107E15 EQ PUSH2 0xB1E JUMPI DUP1 PUSH4 0x70A08231 EQ PUSH2 0xAC9 JUMPI DUP1 PUSH4 0x715018A6 EQ PUSH2 0xA6C JUMPI DUP1 PUSH4 0x7A2805CB EQ PUSH2 0xA45 JUMPI DUP1 PUSH4 0x8456CB59 EQ PUSH2 0x9EA JUMPI DUP1 PUSH4 0x869F7594 EQ PUSH2 0x9C3 JUMPI DUP1 PUSH4 0x8DA5CB5B EQ PUSH2 0x99A JUMPI DUP1 PUSH4 0x95D89B41 EQ PUSH2 0x8AC JUMPI DUP1 PUSH4 0xA22CB465 EQ PUSH2 0x80F JUMPI DUP1 PUSH4 0xB3C6487B EQ PUSH2 0x7BE JUMPI DUP1 PUSH4 0xB88D4FDE EQ PUSH2 0x756 JUMPI DUP1 PUSH4 0xC87B56DD EQ PUSH2 0x660 JUMPI DUP1 PUSH4 0xD3FC9864 EQ PUSH2 0x23B JUMPI DUP1 PUSH4 0xE985E9C5 EQ PUSH2 0x1E9 JUMPI PUSH4 0xF2FDE38B EQ PUSH2 0x157 JUMPI PUSH1 0x0 DUP1 REVERT JUMPDEST CALLVALUE PUSH2 0x1E5 JUMPI PUSH1 0x20 CALLDATASIZE PUSH1 0x3 NOT ADD SLT PUSH2 0x1E5 JUMPI PUSH2 0x170 PUSH2 0x1015 JUMP JUMPDEST SWAP1 PUSH2 0x179 PUSH2 0x14C2 JUMP JUMPDEST PUSH1 0x1 PUSH1 0x1 PUSH1 0xA0 SHL SUB SWAP2 DUP3 AND SWAP3 DUP4 ISZERO PUSH2 0x1CF JUMPI POP POP PUSH1 0x7 SLOAD DUP3 PUSH12 0xFFFFFFFFFFFFFFFFFFFFFFFF PUSH1 0xA0 SHL DUP3 AND OR PUSH1 0x7 SSTORE AND PUSH32 0x8BE0079C531659141344CD1FD0A4F28419497F9722A3DAAFE3B4186F6B6457E0 DUP4 DUP1 LOG3 DUP1 RETURN JUMPDEST MLOAD PUSH4 0x1E4FBDF7 PUSH1 0xE0 SHL DUP2 MSTORE SWAP1 DUP2 ADD DUP5 SWAP1 MSTORE PUSH1 0x24 SWAP1 REVERT JUMPDEST DUP3 DUP1 REVERT JUMPDEST POP POP CALLVALUE PUSH2 0x237 JUMPI DUP1 PUSH1 0x3 NOT CALLDATASIZE ADD SLT PUSH2 0x237 JUMPI PUSH1 0xFF DUP2 PUSH1 0x20 SWAP4 PUSH2 0x209 PUSH2 0x1015 JUMP JUMPDEST PUSH2 0x211 PUSH2 0x1030 JUMP JUMPDEST PUSH1 0x1 PUSH1 0x1 PUSH1 0xA0 SHL SUB SWAP2 DUP3 AND DUP4 MSTORE PUSH1 0x5 DUP8 MSTORE DUP4 DUP4 KECCAK256 SWAP2 AND DUP3 MSTORE DUP6 MSTORE KECCAK256 SLOAD SWAP2 MLOAD SWAP2 AND ISZERO ISZERO DUP2 MSTORE RETURN JUMPDEST POP DUP1 REVERT JUMPDEST POP SWAP2 SWAP1 CALLVALUE PUSH2 0x237 JUMPI PUSH1 0x60 CALLDATASIZE PUSH1 0x3 NOT ADD SLT PUSH2 0x237 JUMPI PUSH2 0x257 PUSH2 0x1015 JUMP JUMPDEST SWAP1 PUSH1 0x24 SWAP4 DUP5 CALLDATALOAD SWAP2 PUSH1 0x44 CALLDATALOAD SWAP2 PUSH8 0xFFFFFFFFFFFFFFFF SWAP3 DUP4 DUP2 GT PUSH2 0x65C JUMPI CALLDATASIZE PUSH1 0x23 DUP3 ADD SLT ISZERO PUSH2 0x65C JUMPI PUSH2 0x290 SWAP1 CALLDATASIZE SWAP1 DUP10 DUP2 DUP6 ADD CALLDATALOAD SWAP2 ADD PUSH2 0x1101 JUMP JUMPDEST SWAP3 PUSH2 0x299 PUSH2 0x14C2 JUMP JUMPDEST PUSH2 0x2A1 PUSH2 0x14EE JUMP JUMPDEST PUSH1 0x2 PUSH1 0x8 SLOAD EQ PUSH2 0x64D JUMPI PUSH1 0x2 PUSH1 0x8 SSTORE PUSH1 0x1 PUSH1 0x1 PUSH1 0xA0 SHL SUB SWAP6 DUP7 AND SWAP4 DUP5 ISZERO PUSH2 0x5FF JUMPI SWAP1 DUP6 SWAP5 SWAP4 SWAP3 SWAP2 DUP9 SWAP7 DUP8 MSTORE PUSH1 0x20 SWAP10 DUP11 SWAP9 PUSH1 0xE DUP11 MSTORE DUP6 DUP10 KECCAK256 SLOAD PUSH2 0x57A JUMPI JUMPDEST DUP9 SWAP1 DUP8 PUSH1 0xA SLOAD SWAP12 DUP13 SWAP3 PUSH2 0x2F0 DUP5 PUSH2 0x1462 JUMP JUMPDEST PUSH1 0xA SSTORE DUP4 DUP6 MSTORE PUSH1 0x2 DUP3 MSTORE DUP10 DUP6 KECCAK256 SLOAD AND SWAP1 DUP4 DUP11 DUP4 ISZERO ISZERO SWAP7 DUP8 PUSH2 0x547 JUMPI JUMPDEST DUP6 DUP2 MSTORE PUSH1 0x3 DUP5 MSTORE KECCAK256 DUP1 SLOAD PUSH1 0x1 SWAP1 DUP2 ADD SWAP1 SWAP2 SSTORE SWAP14 MSTORE PUSH1 0x2 SWAP1 MSTORE DUP9 DUP15 KECCAK256 DUP1 SLOAD PUSH1 0x1 PUSH1 0x1 PUSH1 0xA0 SHL SUB NOT AND DUP4 OR SWAP1 SSTORE PUSH32 0xDDF252AD1BE2C89B69C2B068FC378DAA952BA7F163C4A11628F55A4DF523B3EF DUP15 DUP1 LOG4 PUSH2 0x533 JUMPI DUP9 DUP11 MSTORE PUSH1 0x6 DUP12 MSTORE DUP5 DUP11 KECCAK256 SWAP4 DUP3 MLOAD SWAP4 DUP5 GT PUSH2 0x522 JUMPI POP POP SWAP1 DUP3 SWAP2 PUSH2 0x385 DUP10 SWAP7 SWAP6 SWAP5 SLOAD PUSH2 0x1138 JUMP JUMPDEST PUSH1 0x1F DUP2 GT PUSH2 0x4CA JUMPI JUMPDEST POP DUP11 SWAP1 PUSH1 0x1F DUP4 GT PUSH1 0x1 EQ PUSH2 0x43D JUMPI PUSH32 0x5E7BA0E952B60AF622A0B42609EECD1854DEEE467F89008E1817F4B827D55D6F SWAP5 SWAP4 SWAP3 SWAP2 DUP12 SWAP2 DUP4 PUSH2 0x432 JUMPI JUMPDEST POP POP PUSH1 0x0 NOT PUSH1 0x3 DUP4 SWAP1 SHL SHR NOT AND SWAP1 DUP9 SHL OR SWAP1 SSTORE JUMPDEST PUSH32 0xF8E1A15ABA9398E019F0B49DF1A4FDE98EE17AE345CB5F6B5E2C27F5033E8CE7 DUP10 DUP3 MLOAD DUP7 DUP2 MSTORE LOG1 DUP4 DUP9 MSTORE PUSH1 0xC DUP10 MSTORE DUP5 DUP2 DUP10 KECCAK256 SSTORE DUP5 DUP9 MSTORE PUSH1 0xD DUP10 MSTORE DUP1 DUP9 KECCAK256 PUSH2 0x425 DUP2 SLOAD PUSH2 0x1462 JUMP JUMPDEST SWAP1 SSTORE MLOAD SWAP7 DUP1 LOG4 PUSH1 0x8 SSTORE DUP2 MSTORE RETURN JUMPDEST ADD MLOAD SWAP1 POP CODESIZE DUP1 PUSH2 0x3C9 JUMP JUMPDEST SWAP6 SWAP5 SWAP4 SWAP3 SWAP2 DUP11 DUP10 SWAP3 DUP14 PUSH1 0x1F NOT DUP5 AND SWAP1 DUP7 DUP5 MSTORE DUP1 DUP5 KECCAK256 SWAP4 SWAP1 JUMPDEST DUP3 DUP3 LT PUSH2 0x4B0 JUMPI POP POP SWAP9 DUP4 PUSH32 0x5E7BA0E952B60AF622A0B42609EECD1854DEEE467F89008E1817F4B827D55D6F SWAP9 SWAP10 SWAP11 LT PUSH2 0x497 JUMPI JUMPDEST POP POP POP DUP2 SHL ADD SWAP1 SSTORE PUSH2 0x3DD JUMP JUMPDEST ADD MLOAD PUSH1 0x0 NOT PUSH1 0xF8 DUP5 PUSH1 0x3 SHL AND SHR NOT AND SWAP1 SSTORE CODESIZE DUP1 DUP1 PUSH2 0x48A JUMP JUMPDEST DUP4 DUP13 ADD MLOAD DUP6 SSTORE DUP15 SWAP11 POP DUP14 SWAP7 SWAP1 SWAP5 ADD SWAP4 SWAP3 DUP4 ADD SWAP3 ADD DUP16 PUSH2 0x455 JUMP JUMPDEST SWAP1 SWAP2 SWAP3 DUP1 SWAP5 SWAP6 SWAP7 POP DUP11 MSTORE DUP11 DUP11 KECCAK256 PUSH1 0x1F DUP5 ADD PUSH1 0x5 SHR DUP2 ADD SWAP2 DUP13 DUP6 LT PUSH2 0x518 JUMPI JUMPDEST DUP11 SWAP8 SWAP7 SWAP6 SWAP5 SWAP4 SWAP3 SWAP2 PUSH1 0x1F DUP12 SWAP3 ADD PUSH1 0x5 SHR ADD SWAP2 JUMPDEST DUP3 DUP2 LT PUSH2 0x50A JUMPI POP POP PUSH2 0x38E JUMP JUMPDEST DUP13 DUP2 SSTORE DUP12 SWAP9 POP DUP11 SWAP2 ADD PUSH2 0x4FC JUMP JUMPDEST SWAP1 SWAP2 POP DUP2 SWAP1 PUSH2 0x4E9 JUMP JUMPDEST PUSH4 0x4E487B71 PUSH1 0xE0 SHL DUP12 MSTORE PUSH1 0x41 SWAP1 MSTORE DUP10 REVERT JUMPDEST DUP5 MLOAD PUSH4 0x39E35637 PUSH1 0xE1 SHL DUP2 MSTORE DUP1 DUP6 ADD DUP12 SWAP1 MSTORE REVERT JUMPDEST PUSH1 0x0 DUP4 DUP2 MSTORE PUSH1 0x4 PUSH1 0x20 MSTORE PUSH1 0x40 SWAP1 KECCAK256 DUP1 SLOAD PUSH1 0x1 PUSH1 0x1 PUSH1 0xA0 SHL SUB NOT AND SWAP1 SSTORE DUP5 DUP2 MSTORE PUSH1 0x3 DUP5 MSTORE DUP2 DUP2 KECCAK256 DUP1 SLOAD PUSH1 0x0 NOT ADD SWAP1 SSTORE PUSH2 0x30C JUMP JUMPDEST SWAP2 SWAP4 SWAP6 SWAP8 POP SWAP2 SWAP4 SWAP6 SWAP8 PUSH1 0xD SWAP1 MSTORE DUP6 DUP10 KECCAK256 SLOAD PUSH1 0xE DUP12 MSTORE DUP7 DUP11 KECCAK256 SLOAD GT ISZERO PUSH2 0x5A8 JUMPI SWAP2 DUP10 SWAP8 SWAP6 SWAP4 SWAP2 DUP10 SWAP8 SWAP6 SWAP4 PUSH2 0x2DE JUMP JUMPDEST DUP6 MLOAD PUSH3 0x461BCD PUSH1 0xE5 SHL DUP2 MSTORE DUP1 DUP7 ADD DUP12 SWAP1 MSTORE PUSH1 0x2C DUP2 DUP5 ADD MSTORE PUSH32 0x4361744E46543A206D617820737570706C79207265616368656420666F722074 PUSH1 0x44 DUP3 ADD MSTORE PUSH12 0x686973206361742074797065 PUSH1 0xA0 SHL PUSH1 0x64 DUP3 ADD MSTORE PUSH1 0x84 SWAP1 REVERT JUMPDEST DUP4 MLOAD PUSH3 0x461BCD PUSH1 0xE5 SHL DUP2 MSTORE PUSH1 0x20 DUP2 DUP6 ADD MSTORE PUSH1 0x23 DUP2 DUP12 ADD MSTORE PUSH32 0x4361744E46543A2063616E6E6F74206D696E7420746F207A65726F2061646472 PUSH1 0x44 DUP3 ADD MSTORE PUSH3 0x657373 PUSH1 0xE8 SHL PUSH1 0x64 DUP3 ADD MSTORE PUSH1 0x84 SWAP1 REVERT JUMPDEST POP SWAP1 MLOAD PUSH4 0x3EE5AEB5 PUSH1 0xE0 SHL DUP2 MSTORE REVERT JUMPDEST DUP7 DUP1 REVERT JUMPDEST POP SWAP1 CALLVALUE PUSH2 0x1E5 JUMPI PUSH1 0x20 SWAP2 DUP3 PUSH1 0x3 NOT CALLDATASIZE ADD SLT PUSH2 0x752 JUMPI CALLDATALOAD PUSH2 0x67F DUP2 PUSH2 0x1487 JUMP JUMPDEST POP DUP4 MSTORE PUSH1 0x6 DUP3 MSTORE DUP1 DUP4 KECCAK256 SWAP3 DUP2 MLOAD DUP1 SWAP5 DUP3 SWAP1 DUP1 SLOAD PUSH2 0x69B DUP2 PUSH2 0x1138 JUMP JUMPDEST SWAP2 DUP3 DUP6 MSTORE PUSH1 0x1 SWAP2 DUP9 PUSH1 0x1 DUP3 AND SWAP2 DUP3 PUSH1 0x0 EQ PUSH2 0x72B JUMPI POP POP PUSH1 0x1 EQ PUSH2 0x6ED JUMPI JUMPDEST POP POP POP PUSH2 0x6E9 SWAP4 SWAP3 SWAP2 PUSH2 0x6CE SWAP2 SUB DUP7 PUSH2 0x10C3 JUMP JUMPDEST DUP2 MLOAD PUSH2 0x6D9 DUP2 PUSH2 0x1091 JUMP JUMPDEST MSTORE MLOAD SWAP3 DUP3 DUP5 SWAP4 DUP5 MSTORE DUP4 ADD SWAP1 PUSH2 0xFD5 JUMP JUMPDEST SUB SWAP1 RETURN JUMPDEST DUP6 MSTORE DUP7 DUP6 KECCAK256 DUP8 SWAP4 POP DUP6 SWAP3 SWAP2 SWAP1 JUMPDEST DUP3 DUP5 LT PUSH2 0x713 JUMPI POP POP POP DUP3 ADD ADD DUP2 PUSH2 0x6CE PUSH2 0x6E9 PUSH2 0x6BA JUMP JUMPDEST DUP1 SLOAD DUP5 DUP12 ADD DUP7 ADD MSTORE DUP10 SWAP6 POP DUP9 SWAP5 SWAP1 SWAP4 ADD SWAP3 DUP2 ADD PUSH2 0x6FA JUMP JUMPDEST PUSH1 0xFF NOT AND DUP8 DUP3 ADD MSTORE SWAP4 ISZERO ISZERO PUSH1 0x5 SHL DUP7 ADD SWAP1 SWAP4 ADD SWAP4 POP DUP5 SWAP3 POP PUSH2 0x6CE SWAP2 POP PUSH2 0x6E9 SWAP1 POP PUSH2 0x6BA JUMP JUMPDEST DUP4 DUP1 REVERT JUMPDEST DUP4 DUP3 CALLVALUE PUSH2 0x237 JUMPI PUSH1 0x80 CALLDATASIZE PUSH1 0x3 NOT ADD SLT PUSH2 0x237 JUMPI PUSH2 0x771 PUSH2 0x1015 JUMP JUMPDEST PUSH2 0x779 PUSH2 0x1030 JUMP JUMPDEST SWAP1 PUSH1 0x64 CALLDATALOAD PUSH8 0xFFFFFFFFFFFFFFFF DUP2 GT PUSH2 0x7BA JUMPI CALLDATASIZE PUSH1 0x23 DUP3 ADD SLT ISZERO PUSH2 0x7BA JUMPI PUSH2 0x7B7 SWAP4 DUP2 PUSH1 0x24 PUSH2 0x7AD SWAP4 CALLDATASIZE SWAP4 ADD CALLDATALOAD SWAP2 ADD PUSH2 0x1101 JUMP JUMPDEST SWAP2 PUSH1 0x44 CALLDATALOAD SWAP2 PUSH2 0x1311 JUMP JUMPDEST DUP1 RETURN JUMPDEST DUP5 DUP1 REVERT JUMPDEST POP POP CALLVALUE PUSH2 0x237 JUMPI PUSH32 0xA0F1665B7B659537B52DEEC61EA64D134A3BCCDA74C7F4E79F2246E7A8187A8A PUSH1 0x20 PUSH2 0x7F1 CALLDATASIZE PUSH2 0x107B JUMP JUMPDEST SWAP1 SWAP4 PUSH2 0x7FB PUSH2 0x14C2 JUMP JUMPDEST DUP5 DUP7 MSTORE PUSH1 0xB DUP4 MSTORE DUP2 DUP2 DUP8 KECCAK256 SSTORE MLOAD SWAP1 DUP2 MSTORE LOG2 DUP1 RETURN JUMPDEST POP SWAP1 CALLVALUE PUSH2 0x1E5 JUMPI DUP1 PUSH1 0x3 NOT CALLDATASIZE ADD SLT PUSH2 0x1E5 JUMPI PUSH2 0x829 PUSH2 0x1015 JUMP JUMPDEST SWAP1 PUSH1 0x24 CALLDATALOAD SWAP2 DUP3 ISZERO ISZERO DUP1 SWAP4 SUB PUSH2 0x7BA JUMPI PUSH1 0x1 PUSH1 0x1 PUSH1 0xA0 SHL SUB AND SWAP3 DUP4 ISZERO PUSH2 0x897 JUMPI POP CALLER DUP5 MSTORE PUSH1 0x5 PUSH1 0x20 MSTORE DUP1 DUP5 KECCAK256 DUP4 DUP6 MSTORE PUSH1 0x20 MSTORE DUP1 DUP5 KECCAK256 PUSH1 0xFF NOT DUP2 SLOAD AND PUSH1 0xFF DUP5 AND OR SWAP1 SSTORE MLOAD SWAP1 DUP2 MSTORE PUSH32 0x17307EAB39AB6107E8899845AD3D59BD9653F200F220920489CA2B5937696C31 PUSH1 0x20 CALLER SWAP3 LOG3 DUP1 RETURN JUMPDEST DUP4 PUSH1 0x24 SWAP3 MLOAD SWAP2 PUSH4 0xB611743 PUSH1 0xE3 SHL DUP4 MSTORE DUP3 ADD MSTORE REVERT JUMPDEST DUP3 DUP5 CALLVALUE PUSH2 0x997 JUMPI DUP1 PUSH1 0x3 NOT CALLDATASIZE ADD SLT PUSH2 0x997 JUMPI DUP2 MLOAD SWAP2 DUP3 DUP3 PUSH1 0x1 SWAP4 PUSH1 0x1 SLOAD SWAP5 PUSH2 0x8D3 DUP7 PUSH2 0x1138 JUMP JUMPDEST SWAP2 DUP3 DUP6 MSTORE PUSH1 0x20 SWAP7 DUP8 PUSH1 0x1 DUP3 AND SWAP2 DUP3 PUSH1 0x0 EQ PUSH2 0x970 JUMPI POP POP PUSH1 0x1 EQ PUSH2 0x914 JUMPI JUMPDEST POP POP POP PUSH2 0x6E9 SWAP3 SWAP2 PUSH2 0x905 SWAP2 SUB DUP6 PUSH2 0x10C3 JUMP JUMPDEST MLOAD SWAP3 DUP3 DUP5 SWAP4 DUP5 MSTORE DUP4 ADD SWAP1 PUSH2 0xFD5 JUMP JUMPDEST SWAP2 SWAP1 DUP7 SWAP4 POP PUSH1 0x1 DUP4 MSTORE PUSH32 0xB10E2D527612073B26EECDFD717E6A320CF44B4AFAC2B0732D9FCBE2B7FA0CF6 JUMPDEST DUP3 DUP5 LT PUSH2 0x958 JUMPI POP POP POP DUP3 ADD ADD DUP2 PUSH2 0x905 PUSH2 0x6E9 PUSH2 0x8F2 JUMP JUMPDEST DUP1 SLOAD DUP5 DUP11 ADD DUP7 ADD MSTORE DUP9 SWAP6 POP DUP8 SWAP5 SWAP1 SWAP4 ADD SWAP3 DUP2 ADD PUSH2 0x93F JUMP JUMPDEST PUSH1 0xFF NOT AND DUP8 DUP3 ADD MSTORE SWAP4 ISZERO ISZERO PUSH1 0x5 SHL DUP7 ADD SWAP1 SWAP4 ADD SWAP4 POP DUP5 SWAP3 POP PUSH2 0x905 SWAP2 POP PUSH2 0x6E9 SWAP1 POP PUSH2 0x8F2 JUMP JUMPDEST DUP1 REVERT JUMPDEST POP POP CALLVALUE PUSH2 0x237 JUMPI DUP2 PUSH1 0x3 NOT CALLDATASIZE ADD SLT PUSH2 0x237 JUMPI PUSH1 0x7 SLOAD SWAP1 MLOAD PUSH1 0x1 PUSH1 0x1 PUSH1 0xA0 SHL SUB SWAP1 SWAP2 AND DUP2 MSTORE PUSH1 0x20 SWAP1 RETURN JUMPDEST POP CALLVALUE PUSH2 0x1E5 JUMPI PUSH1 0x20 CALLDATASIZE PUSH1 0x3 NOT ADD SLT PUSH2 0x1E5 JUMPI PUSH1 0x20 SWAP3 DUP3 SWAP2 CALLDATALOAD DUP2 MSTORE PUSH1 0xE DUP5 MSTORE KECCAK256 SLOAD SWAP1 MLOAD SWAP1 DUP2 MSTORE RETURN JUMPDEST POP POP CALLVALUE PUSH2 0x237 JUMPI DUP2 PUSH1 0x3 NOT CALLDATASIZE ADD SLT PUSH2 0x237 JUMPI PUSH1 0x20 PUSH32 0x62E78CEA01BEE320CD4E420270B5EA74000D11B0C9F74754EBDBFC544B05A258 SWAP2 PUSH2 0xA28 PUSH2 0x14C2 JUMP JUMPDEST PUSH2 0xA30 PUSH2 0x14EE JUMP JUMPDEST PUSH1 0x1 PUSH1 0xFF NOT PUSH1 0x9 SLOAD AND OR PUSH1 0x9 SSTORE MLOAD CALLER DUP2 MSTORE LOG1 DUP1 RETURN JUMPDEST POP CALLVALUE PUSH2 0x1E5 JUMPI PUSH1 0x20 CALLDATASIZE PUSH1 0x3 NOT ADD SLT PUSH2 0x1E5 JUMPI PUSH1 0x20 SWAP3 DUP3 SWAP2 CALLDATALOAD DUP2 MSTORE PUSH1 0xC DUP5 MSTORE KECCAK256 SLOAD SWAP1 MLOAD SWAP1 DUP2 MSTORE RETURN JUMPDEST DUP4 CALLVALUE PUSH2 0x997 JUMPI DUP1 PUSH1 0x3 NOT CALLDATASIZE ADD SLT PUSH2 0x997 JUMPI PUSH2 0xA85 PUSH2 0x14C2 JUMP JUMPDEST PUSH1 0x7 DUP1 SLOAD PUSH1 0x1 PUSH1 0x1 PUSH1 0xA0 SHL SUB NOT DUP2 AND SWAP1 SWAP2 SSTORE DUP2 SWAP1 PUSH1 0x1 PUSH1 0x1 PUSH1 0xA0 SHL SUB AND PUSH32 0x8BE0079C531659141344CD1FD0A4F28419497F9722A3DAAFE3B4186F6B6457E0 DUP3 DUP1 LOG3 DUP1 RETURN JUMPDEST POP SWAP2 CALLVALUE PUSH2 0x997 JUMPI PUSH1 0x20 CALLDATASIZE PUSH1 0x3 NOT ADD SLT PUSH2 0x997 JUMPI PUSH1 0x1 PUSH1 0x1 PUSH1 0xA0 SHL SUB PUSH2 0xAEC PUSH2 0x1015 JUMP JUMPDEST AND SWAP3 DUP4 ISZERO PUSH2 0xB09 JUMPI POP DUP1 PUSH1 0x20 SWAP4 DUP4 SWAP3 MSTORE PUSH1 0x3 DUP5 MSTORE KECCAK256 SLOAD SWAP1 MLOAD SWAP1 DUP2 MSTORE RETURN JUMPDEST SWAP2 MLOAD PUSH4 0x22718AD9 PUSH1 0xE2 SHL DUP2 MSTORE SWAP2 DUP3 ADD MSTORE PUSH1 0x24 SWAP1 REVERT JUMPDEST POP CALLVALUE PUSH2 0x1E5 JUMPI PUSH1 0x20 CALLDATASIZE PUSH1 0x3 NOT ADD SLT PUSH2 0x1E5 JUMPI PUSH1 0x20 SWAP3 DUP3 SWAP2 CALLDATALOAD DUP2 MSTORE PUSH1 0xB DUP5 MSTORE KECCAK256 SLOAD SWAP1 MLOAD SWAP1 DUP2 MSTORE RETURN JUMPDEST POP SWAP2 CALLVALUE PUSH2 0x997 JUMPI PUSH1 0x20 CALLDATASIZE PUSH1 0x3 NOT ADD SLT PUSH2 0x997 JUMPI POP PUSH2 0xB65 PUSH1 0x20 SWAP3 CALLDATALOAD PUSH2 0x1487 JUMP JUMPDEST SWAP1 MLOAD PUSH1 0x1 PUSH1 0x1 PUSH1 0xA0 SHL SUB SWAP1 SWAP2 AND DUP2 MSTORE RETURN JUMPDEST POP POP CALLVALUE PUSH2 0x237 JUMPI DUP2 PUSH1 0x3 NOT CALLDATASIZE ADD SLT PUSH2 0x237 JUMPI PUSH1 0x20 SWAP1 PUSH1 0xFF PUSH1 0x9 SLOAD AND SWAP1 MLOAD SWAP1 ISZERO ISZERO DUP2 MSTORE RETURN JUMPDEST POP CALLVALUE PUSH2 0x1E5 JUMPI PUSH1 0x20 CALLDATASIZE PUSH1 0x3 NOT ADD SLT PUSH2 0x1E5 JUMPI PUSH1 0x20 SWAP3 DUP3 SWAP2 CALLDATALOAD DUP2 MSTORE PUSH1 0xD DUP5 MSTORE KECCAK256 SLOAD SWAP1 MLOAD SWAP1 DUP2 MSTORE RETURN JUMPDEST POP POP CALLVALUE PUSH2 0x237 JUMPI PUSH2 0x7B7 SWAP1 PUSH2 0xBD5 CALLDATASIZE PUSH2 0x1046 JUMP JUMPDEST SWAP2 SWAP3 MLOAD SWAP3 PUSH2 0xBE2 DUP5 PUSH2 0x1091 JUMP JUMPDEST DUP6 DUP5 MSTORE PUSH2 0x1311 JUMP JUMPDEST POP CALLVALUE PUSH2 0x1E5 JUMPI DUP3 PUSH1 0x3 NOT CALLDATASIZE ADD SLT PUSH2 0x1E5 JUMPI PUSH2 0xC03 PUSH2 0x14C2 JUMP JUMPDEST PUSH1 0x9 SLOAD SWAP1 PUSH1 0xFF DUP3 AND ISZERO PUSH2 0xC45 JUMPI POP PUSH1 0xFF NOT AND PUSH1 0x9 SSTORE MLOAD CALLER DUP2 MSTORE PUSH32 0x5DB9EE0A495BF2E6FF9C91A7834C1BA4FDD244A5E8AA4E537BD38AEAE4B073AA SWAP1 PUSH1 0x20 SWAP1 LOG1 DUP1 RETURN JUMPDEST DUP3 MLOAD PUSH4 0x8DFC202B PUSH1 0xE0 SHL DUP2 MSTORE REVERT JUMPDEST POP POP CALLVALUE PUSH2 0x237 JUMPI PUSH32 0x5AF22A09E6677EFE5D29D19BF6A17F71D28CAAD7707022D8EAB337320DF9F50D PUSH1 0x20 PUSH2 0xC86 CALLDATASIZE PUSH2 0x107B JUMP JUMPDEST SWAP1 SWAP4 PUSH2 0xC90 PUSH2 0x14C2 JUMP JUMPDEST DUP5 DUP7 MSTORE PUSH1 0xE DUP4 MSTORE DUP2 DUP2 DUP8 KECCAK256 SSTORE MLOAD SWAP1 DUP2 MSTORE LOG2 DUP1 RETURN JUMPDEST POP DUP3 SWAP1 CALLVALUE PUSH2 0x237 JUMPI PUSH1 0x20 CALLDATASIZE PUSH1 0x3 NOT ADD SLT PUSH2 0x237 JUMPI DUP1 CALLDATALOAD DUP1 DUP4 MSTORE PUSH1 0x2 PUSH1 0x20 MSTORE DUP4 DUP4 KECCAK256 SLOAD SWAP1 SWAP2 SWAP1 PUSH1 0x1 PUSH1 0x1 PUSH1 0xA0 SHL SUB AND ISZERO PUSH2 0xCEC JUMPI PUSH1 0x20 DUP5 DUP1 DUP6 DUP6 DUP2 MSTORE PUSH1 0xC DUP5 MSTORE KECCAK256 SLOAD SWAP1 MLOAD SWAP1 DUP2 MSTORE RETURN JUMPDEST PUSH1 0x64 SWAP1 PUSH1 0x20 DUP6 MLOAD SWAP2 PUSH3 0x461BCD PUSH1 0xE5 SHL DUP4 MSTORE DUP3 ADD MSTORE PUSH1 0x1C PUSH1 0x24 DUP3 ADD MSTORE PUSH32 0x4361744E46543A20746F6B656E20646F6573206E6F7420657869737400000000 PUSH1 0x44 DUP3 ADD MSTORE REVERT JUMPDEST DUP4 CALLVALUE PUSH2 0x997 JUMPI PUSH2 0x7B7 PUSH2 0xD41 CALLDATASIZE PUSH2 0x1046 JUMP JUMPDEST SWAP2 PUSH2 0x1172 JUMP JUMPDEST POP SWAP2 SWAP1 CALLVALUE PUSH2 0x237 JUMPI DUP2 PUSH1 0x3 NOT CALLDATASIZE ADD SLT PUSH2 0x237 JUMPI PUSH1 0xA SLOAD PUSH1 0x0 NOT DUP2 ADD SWAP3 SWAP1 DUP4 GT PUSH2 0xD74 JUMPI PUSH1 0x20 DUP4 DUP4 MLOAD SWAP1 DUP2 MSTORE RETURN JUMPDEST PUSH4 0x4E487B71 PUSH1 0xE0 SHL DUP2 MSTORE PUSH1 0x11 DUP5 MSTORE PUSH1 0x24 SWAP1 REVERT JUMPDEST POP SWAP1 CALLVALUE PUSH2 0x1E5 JUMPI DUP1 PUSH1 0x3 NOT CALLDATASIZE ADD SLT PUSH2 0x1E5 JUMPI PUSH2 0xDA1 PUSH2 0x1015 JUMP JUMPDEST SWAP2 PUSH1 0x24 CALLDATALOAD PUSH2 0xDAE DUP2 PUSH2 0x1487 JUMP JUMPDEST CALLER ISZERO ISZERO DUP1 PUSH2 0xE50 JUMPI JUMPDEST DUP1 PUSH2 0xE27 JUMPI JUMPDEST PUSH2 0xE11 JUMPI PUSH1 0x1 PUSH1 0x1 PUSH1 0xA0 SHL SUB SWAP5 DUP6 AND SWAP5 DUP3 SWAP2 DUP7 SWAP2 AND PUSH32 0x8C5BE1E5EBEC7D5BD14F71427D1E84F3DD0314C0F7B2291E5B200AC8C7C3B925 DUP9 DUP1 LOG4 DUP5 MSTORE PUSH1 0x20 MSTORE DUP3 KECCAK256 DUP1 SLOAD PUSH1 0x1 PUSH1 0x1 PUSH1 0xA0 SHL SUB NOT AND SWAP1 SWAP2 OR SWAP1 SSTORE DUP1 RETURN JUMPDEST DUP4 MLOAD PUSH4 0xA9FBF51F PUSH1 0xE0 SHL DUP2 MSTORE CALLER DUP2 DUP6 ADD MSTORE PUSH1 0x24 SWAP1 REVERT JUMPDEST POP PUSH1 0x1 PUSH1 0x1 PUSH1 0xA0 SHL SUB DUP2 AND DUP7 MSTORE PUSH1 0x5 PUSH1 0x20 SWAP1 DUP2 MSTORE DUP5 DUP8 KECCAK256 CALLER DUP9 MSTORE SWAP1 MSTORE DUP4 DUP7 KECCAK256 SLOAD PUSH1 0xFF AND ISZERO PUSH2 0xDBD JUMP JUMPDEST POP PUSH1 0x1 PUSH1 0x1 PUSH1 0xA0 SHL SUB DUP2 AND CALLER EQ ISZERO PUSH2 0xDB7 JUMP JUMPDEST POP CALLVALUE PUSH2 0x1E5 JUMPI PUSH1 0x20 CALLDATASIZE PUSH1 0x3 NOT ADD SLT PUSH2 0x1E5 JUMPI SWAP2 DUP3 PUSH1 0x20 SWAP4 CALLDATALOAD PUSH2 0xE84 DUP2 PUSH2 0x1487 JUMP JUMPDEST POP DUP3 MSTORE DUP4 MSTORE DUP2 SWAP1 KECCAK256 SLOAD SWAP1 MLOAD PUSH1 0x1 PUSH1 0x1 PUSH1 0xA0 SHL SUB SWAP1 SWAP2 AND DUP2 MSTORE RETURN JUMPDEST DUP3 DUP5 CALLVALUE PUSH2 0x997 JUMPI DUP1 PUSH1 0x3 NOT CALLDATASIZE ADD SLT PUSH2 0x997 JUMPI DUP2 MLOAD SWAP2 DUP3 DUP3 DUP4 SLOAD PUSH2 0xEC0 DUP2 PUSH2 0x1138 JUMP JUMPDEST SWAP1 DUP2 DUP5 MSTORE PUSH1 0x20 SWAP6 PUSH1 0x1 SWAP2 DUP8 PUSH1 0x1 DUP3 AND SWAP2 DUP3 PUSH1 0x0 EQ PUSH2 0x970 JUMPI POP POP PUSH1 0x1 EQ PUSH2 0xEF4 JUMPI POP POP POP PUSH2 0x6E9 SWAP3 SWAP2 PUSH2 0x905 SWAP2 SUB DUP6 PUSH2 0x10C3 JUMP JUMPDEST SWAP2 SWAP1 DUP7 SWAP4 POP DUP3 DUP1 MSTORE PUSH32 0x290DECD9548B62A8D60345A988386FC84BA6BC95484008F6362F93160EF3E563 JUMPDEST DUP3 DUP5 LT PUSH2 0xF37 JUMPI POP POP POP DUP3 ADD ADD DUP2 PUSH2 0x905 PUSH2 0x6E9 PUSH2 0x8F2 JUMP JUMPDEST DUP1 SLOAD DUP5 DUP11 ADD DUP7 ADD MSTORE DUP9 SWAP6 POP DUP8 SWAP5 SWAP1 SWAP4 ADD SWAP3 DUP2 ADD PUSH2 0xF1E JUMP JUMPDEST SWAP3 POP POP CALLVALUE PUSH2 0x1E5 JUMPI PUSH1 0x20 CALLDATASIZE PUSH1 0x3 NOT ADD SLT PUSH2 0x1E5 JUMPI CALLDATALOAD PUSH4 0xFFFFFFFF PUSH1 0xE0 SHL DUP2 AND DUP1 SWAP2 SUB PUSH2 0x1E5 JUMPI PUSH1 0x20 SWAP3 POP PUSH4 0x24832483 PUSH1 0xE1 SHL DUP2 EQ SWAP1 DUP2 ISZERO PUSH2 0xF92 JUMPI JUMPDEST POP ISZERO ISZERO DUP2 MSTORE RETURN JUMPDEST PUSH4 0x80AC58CD PUSH1 0xE0 SHL DUP2 EQ SWAP2 POP DUP2 ISZERO PUSH2 0xFC4 JUMPI JUMPDEST DUP2 ISZERO PUSH2 0xFB3 JUMPI JUMPDEST POP CODESIZE PUSH2 0xF8B JUMP JUMPDEST PUSH4 0x1FFC9A7 PUSH1 0xE0 SHL EQ SWAP1 POP CODESIZE PUSH2 0xFAC JUMP JUMPDEST PUSH4 0x5B5E139F PUSH1 0xE0 SHL DUP2 EQ SWAP2 POP PUSH2 0xFA5 JUMP JUMPDEST SWAP2 SWAP1 DUP3 MLOAD SWAP3 DUP4 DUP3 MSTORE PUSH1 0x0 JUMPDEST DUP5 DUP2 LT PUSH2 0x1001 JUMPI POP POP DUP3 PUSH1 0x0 PUSH1 0x20 DUP1 SWAP5 SWAP6 DUP5 ADD ADD MSTORE PUSH1 0x1F DUP1 NOT SWAP2 ADD AND ADD ADD SWAP1 JUMP JUMPDEST PUSH1 0x20 DUP2 DUP4 ADD DUP2 ADD MLOAD DUP5 DUP4 ADD DUP3 ADD MSTORE ADD PUSH2 0xFE0 JUMP JUMPDEST PUSH1 0x4 CALLDATALOAD SWAP1 PUSH1 0x1 PUSH1 0x1 PUSH1 0xA0 SHL SUB DUP3 AND DUP3 SUB PUSH2 0x102B JUMPI JUMP JUMPDEST PUSH1 0x0 DUP1 REVERT JUMPDEST PUSH1 0x24 CALLDATALOAD SWAP1 PUSH1 0x1 PUSH1 0x1 PUSH1 0xA0 SHL SUB DUP3 AND DUP3 SUB PUSH2 0x102B JUMPI JUMP JUMPDEST PUSH1 0x60 SWAP1 PUSH1 0x3 NOT ADD SLT PUSH2 0x102B JUMPI PUSH1 0x1 PUSH1 0x1 PUSH1 0xA0 SHL SUB SWAP1 PUSH1 0x4 CALLDATALOAD DUP3 DUP2 AND DUP2 SUB PUSH2 0x102B JUMPI SWAP2 PUSH1 0x24 CALLDATALOAD SWAP1 DUP2 AND DUP2 SUB PUSH2 0x102B JUMPI SWAP1 PUSH1 0x44 CALLDATALOAD SWAP1 JUMP JUMPDEST PUSH1 0x40 SWAP1 PUSH1 0x3 NOT ADD SLT PUSH2 0x102B JUMPI PUSH1 0x4 CALLDATALOAD SWAP1 PUSH1 0x24 CALLDATALOAD SWAP1 JUMP JUMPDEST PUSH1 0x20 DUP2 ADD SWAP1 DUP2 LT PUSH8 0xFFFFFFFFFFFFFFFF DUP3 GT OR PUSH2 0x10AD JUMPI PUSH1 0x40 MSTORE JUMP JUMPDEST PUSH4 0x4E487B71 PUSH1 0xE0 SHL PUSH1 0x0 MSTORE PUSH1 0x41 PUSH1 0x4 MSTORE PUSH1 0x24 PUSH1 0x0 REVERT JUMPDEST SWAP1 PUSH1 0x1F DUP1 NOT SWAP2 ADD AND DUP2 ADD SWAP1 DUP2 LT PUSH8 0xFFFFFFFFFFFFFFFF DUP3 GT OR PUSH2 0x10AD JUMPI PUSH1 0x40 MSTORE JUMP JUMPDEST PUSH8 0xFFFFFFFFFFFFFFFF DUP2 GT PUSH2 0x10AD JUMPI PUSH1 0x1F ADD PUSH1 0x1F NOT AND PUSH1 0x20 ADD SWAP1 JUMP JUMPDEST SWAP3 SWAP2 SWAP3 PUSH2 0x110D DUP3 PUSH2 0x10E5 JUMP JUMPDEST SWAP2 PUSH2 0x111B PUSH1 0x40 MLOAD SWAP4 DUP5 PUSH2 0x10C3 JUMP JUMPDEST DUP3 SWAP5 DUP2 DUP5 MSTORE DUP2 DUP4 ADD GT PUSH2 0x102B JUMPI DUP3 DUP2 PUSH1 0x20 SWAP4 DUP5 PUSH1 0x0 SWAP7 ADD CALLDATACOPY ADD ADD MSTORE JUMP JUMPDEST SWAP1 PUSH1 0x1 DUP3 DUP2 SHR SWAP3 AND DUP1 ISZERO PUSH2 0x1168 JUMPI JUMPDEST PUSH1 0x20 DUP4 LT EQ PUSH2 0x1152 JUMPI JUMP JUMPDEST PUSH4 0x4E487B71 PUSH1 0xE0 SHL PUSH1 0x0 MSTORE PUSH1 0x22 PUSH1 0x4 MSTORE PUSH1 0x24 PUSH1 0x0 REVERT JUMPDEST SWAP2 PUSH1 0x7F AND SWAP2 PUSH2 0x1147 JUMP JUMPDEST PUSH1 0x1 PUSH1 0x1 PUSH1 0xA0 SHL SUB SWAP2 DUP3 AND SWAP3 SWAP1 SWAP2 DUP4 ISZERO PUSH2 0x12F8 JUMPI PUSH1 0x0 SWAP3 DUP3 DUP5 MSTORE DUP3 PUSH1 0x20 SWAP6 PUSH1 0x2 DUP8 MSTORE PUSH1 0x40 SWAP7 DUP5 DUP9 DUP9 KECCAK256 SLOAD AND SWAP7 DUP8 SWAP2 CALLER ISZERO ISZERO DUP1 PUSH2 0x1262 JUMPI JUMPDEST POP SWAP1 PUSH1 0x2 PUSH32 0xDDF252AD1BE2C89B69C2B068FC378DAA952BA7F163C4A11628F55A4DF523B3EF SWAP3 DUP5 PUSH2 0x122F JUMPI JUMPDEST DUP6 DUP4 MSTORE PUSH1 0x3 DUP2 MSTORE DUP12 DUP4 KECCAK256 DUP1 SLOAD PUSH1 0x1 ADD SWAP1 SSTORE DUP7 DUP4 MSTORE MSTORE DUP10 DUP2 KECCAK256 DUP1 SLOAD PUSH1 0x1 PUSH1 0x1 PUSH1 0xA0 SHL SUB NOT AND DUP6 OR SWAP1 SSTORE DUP1 LOG4 AND SWAP3 DUP4 DUP4 SUB PUSH2 0x120E JUMPI POP POP POP POP JUMP JUMPDEST PUSH1 0x64 SWAP5 POP MLOAD SWAP3 PUSH4 0x64283D7B PUSH1 0xE0 SHL DUP5 MSTORE PUSH1 0x4 DUP5 ADD MSTORE PUSH1 0x24 DUP4 ADD MSTORE PUSH1 0x44 DUP3 ADD MSTORE REVERT JUMPDEST PUSH1 0x0 DUP8 DUP2 MSTORE PUSH1 0x4 PUSH1 0x20 MSTORE PUSH1 0x40 SWAP1 KECCAK256 DUP1 SLOAD PUSH1 0x1 PUSH1 0x1 PUSH1 0xA0 SHL SUB NOT AND SWAP1 SSTORE DUP5 DUP4 MSTORE PUSH1 0x3 DUP2 MSTORE DUP12 DUP4 KECCAK256 DUP1 SLOAD PUSH1 0x0 NOT ADD SWAP1 SSTORE PUSH2 0x11D5 JUMP JUMPDEST SWAP2 SWAP4 SWAP5 POP SWAP2 POP DUP1 PUSH2 0x12B7 JUMPI JUMPDEST ISZERO PUSH2 0x127E JUMPI DUP6 SWAP3 SWAP2 DUP8 SWAP2 CODESIZE PUSH2 0x11A9 JUMP JUMPDEST DUP8 DUP7 DUP9 PUSH2 0x129B JUMPI PUSH1 0x24 SWAP2 MLOAD SWAP1 PUSH4 0x7E273289 PUSH1 0xE0 SHL DUP3 MSTORE PUSH1 0x4 DUP3 ADD MSTORE REVERT JUMPDEST PUSH1 0x44 SWAP2 MLOAD SWAP1 PUSH4 0x177E802F PUSH1 0xE0 SHL DUP3 MSTORE CALLER PUSH1 0x4 DUP4 ADD MSTORE PUSH1 0x24 DUP3 ADD MSTORE REVERT JUMPDEST POP CALLER DUP8 EQ DUP1 ISZERO PUSH2 0x12DC JUMPI JUMPDEST DUP1 PUSH2 0x126E JUMPI POP DUP6 DUP3 MSTORE PUSH1 0x4 DUP2 MSTORE CALLER DUP6 DUP10 DUP5 KECCAK256 SLOAD AND EQ PUSH2 0x126E JUMP JUMPDEST POP DUP7 DUP3 MSTORE PUSH1 0x5 DUP2 MSTORE DUP8 DUP3 KECCAK256 CALLER DUP4 MSTORE DUP2 MSTORE PUSH1 0xFF DUP9 DUP4 KECCAK256 SLOAD AND PUSH2 0x12C2 JUMP JUMPDEST PUSH1 0x40 MLOAD PUSH4 0x32505749 PUSH1 0xE1 SHL DUP2 MSTORE PUSH1 0x0 PUSH1 0x4 DUP3 ADD MSTORE PUSH1 0x24 SWAP1 REVERT JUMPDEST SWAP3 SWAP1 SWAP3 PUSH2 0x131F DUP4 DUP6 DUP4 PUSH2 0x1172 JUMP JUMPDEST DUP4 EXTCODESIZE PUSH2 0x132C JUMPI JUMPDEST POP POP POP POP JUMP JUMPDEST PUSH1 0x40 MLOAD PUSH4 0xA85BD01 PUSH1 0xE1 SHL DUP1 DUP3 MSTORE CALLER PUSH1 0x4 DUP4 ADD MSTORE PUSH1 0x1 PUSH1 0x1 PUSH1 0xA0 SHL SUB SWAP3 DUP4 AND PUSH1 0x24 DUP4 ADD MSTORE PUSH1 0x44 DUP3 ADD SWAP5 SWAP1 SWAP5 MSTORE PUSH1 0x80 PUSH1 0x64 DUP3 ADD MSTORE SWAP5 SWAP4 AND SWAP3 PUSH1 0x20 SWAP3 SWAP1 SWAP2 DUP6 SWAP1 PUSH2 0x1378 SWAP1 PUSH1 0x84 DUP4 ADD SWAP1 PUSH2 0xFD5 JUMP JUMPDEST SUB SWAP5 DUP4 DUP2 PUSH1 0x0 SWAP8 DUP2 DUP10 DUP10 GAS CALL DUP7 SWAP2 DUP2 PUSH2 0x1422 JUMPI JUMPDEST POP PUSH2 0x13ED JUMPI POP POP POP RETURNDATASIZE PUSH1 0x0 EQ PUSH2 0x13E4 JUMPI RETURNDATASIZE PUSH2 0x13A6 DUP2 PUSH2 0x10E5 JUMP JUMPDEST SWAP1 PUSH2 0x13B4 PUSH1 0x40 MLOAD SWAP3 DUP4 PUSH2 0x10C3 JUMP JUMPDEST DUP2 MSTORE DUP1 SWAP4 DUP3 RETURNDATASIZE SWAP3 ADD RETURNDATACOPY JUMPDEST DUP3 MLOAD SWAP3 DUP4 PUSH2 0x13DF JUMPI PUSH1 0x40 MLOAD PUSH4 0x32505749 PUSH1 0xE1 SHL DUP2 MSTORE PUSH1 0x4 DUP2 ADD DUP5 SWAP1 MSTORE PUSH1 0x24 SWAP1 REVERT JUMPDEST ADD SWAP1 POP REVERT JUMPDEST PUSH1 0x60 SWAP3 POP PUSH2 0x13BE JUMP JUMPDEST SWAP2 SWAP5 POP SWAP2 POP PUSH4 0xFFFFFFFF PUSH1 0xE0 SHL AND SUB PUSH2 0x140A JUMPI POP CODESIZE DUP1 DUP1 DUP1 PUSH2 0x1326 JUMP JUMPDEST PUSH1 0x24 SWAP1 PUSH1 0x40 MLOAD SWAP1 PUSH4 0x32505749 PUSH1 0xE1 SHL DUP3 MSTORE PUSH1 0x4 DUP3 ADD MSTORE REVERT JUMPDEST SWAP1 SWAP2 POP DUP5 DUP2 DUP2 RETURNDATASIZE DUP4 GT PUSH2 0x145B JUMPI JUMPDEST PUSH2 0x143A DUP2 DUP4 PUSH2 0x10C3 JUMP JUMPDEST DUP2 ADD SUB SLT PUSH2 0x65C JUMPI MLOAD PUSH1 0x1 PUSH1 0x1 PUSH1 0xE0 SHL SUB NOT DUP2 AND DUP2 SUB PUSH2 0x65C JUMPI SWAP1 CODESIZE PUSH2 0x138C JUMP JUMPDEST POP RETURNDATASIZE PUSH2 0x1430 JUMP JUMPDEST PUSH1 0x0 NOT DUP2 EQ PUSH2 0x1471 JUMPI PUSH1 0x1 ADD SWAP1 JUMP JUMPDEST PUSH4 0x4E487B71 PUSH1 0xE0 SHL PUSH1 0x0 MSTORE PUSH1 0x11 PUSH1 0x4 MSTORE PUSH1 0x24 PUSH1 0x0 REVERT JUMPDEST PUSH1 0x0 DUP2 DUP2 MSTORE PUSH1 0x2 PUSH1 0x20 MSTORE PUSH1 0x40 SWAP1 KECCAK256 SLOAD PUSH1 0x1 PUSH1 0x1 PUSH1 0xA0 SHL SUB AND SWAP1 DUP2 ISZERO PUSH2 0x14AA JUMPI POP SWAP1 JUMP JUMPDEST PUSH1 0x24 SWAP1 PUSH1 0x40 MLOAD SWAP1 PUSH4 0x7E273289 PUSH1 0xE0 SHL DUP3 MSTORE PUSH1 0x4 DUP3 ADD MSTORE REVERT JUMPDEST PUSH1 0x7 SLOAD PUSH1 0x1 PUSH1 0x1 PUSH1 0xA0 SHL SUB AND CALLER SUB PUSH2 0x14D6 JUMPI JUMP JUMPDEST PUSH1 0x40 MLOAD PUSH4 0x118CDAA7 PUSH1 0xE0 SHL DUP2 MSTORE CALLER PUSH1 0x4 DUP3 ADD MSTORE PUSH1 0x24 SWAP1 REVERT JUMPDEST PUSH1 0xFF PUSH1 0x9 SLOAD AND PUSH2 0x14FA JUMPI JUMP JUMPDEST PUSH1 0x40 MLOAD PUSH4 0xD93C0665 PUSH1 0xE0 SHL DUP2 MSTORE PUSH1 0x4 SWAP1 REVERT INVALID LOG2 PUSH5 0x6970667358 0x22 SLT KECCAK256 0xCA 0xE 0xB2 0xDB 0xC6 BLOCKHASH SGT XOR 0xDE 0xB8 XOR SHL JUMP SWAP14 CALLDATACOPY 0xC5 0xD5 SWAP16 SIGNEXTEND JUMPI 0xB2 SAR PC PUSH27 0x918A366B3AD1DD8864736F6C634300081800330000000000000000 "},"methodIdentifiers":{"approve(address,uint256)":"095ea7b3","balanceOf(address)":"70a08231","catPrices(uint256)":"70107e15","catType(uint256)":"7a2805cb","getApproved(uint256)":"081812fc","getCatType(uint256)":"2acd990f","isApprovedForAll(address,address)":"e985e9c5","maxSupply(uint256)":"869f7594","mint(address,uint256,string)":"d3fc9864","name()":"06fdde03","owner()":"8da5cb5b","ownerOf(uint256)":"6352211e","pause()":"8456cb59","paused()":"5c975abb","renounceOwnership()":"715018a6","safeTransferFrom(address,address,uint256)":"42842e0e","safeTransferFrom(address,address,uint256,bytes)":"b88d4fde","setApprovalForAll(address,bool)":"a22cb465","setCatPrice(uint256,uint256)":"b3c6487b","setMaxSupply(uint256,uint256)":"37da577c","supportsInterface(bytes4)":"01ffc9a7","symbol()":"95d89b41","tokenURI(uint256)":"c87b56dd","totalSupply()":"18160ddd","transferFrom(address,address,uint256)":"23b872dd","transferOwnership(address)":"f2fde38b","typeSupply(uint256)":"45a33f32","unpause()":"3f4ba83a"}},"storageLayout":{"storage":[{"astId":2308,"contract":"contracts/CatNFT.sol:CatNFT","label":"_name","offset":0,"slot":"0","type":"t_string_storage"},{"astId":2310,"contract":"contracts/CatNFT.sol:CatNFT","label":"_symbol","offset":0,"slot":"1","type":"t_string_storage"},{"astId":2314,"contract":"contracts/CatNFT.sol:CatNFT","label":"_owners","offset":0,"slot":"2","type":"t_mapping(t_uint256,t_address)"},{"astId":2318,"contract":"contracts/CatNFT.sol:CatNFT","label":"_balances","offset":0,"slot":"3","type":"t_mapping(t_address,t_uint256)"},{"astId":2322,"contract":"contracts/CatNFT.sol:CatNFT","label":"_tokenApprovals","offset":0,"slot":"4","type":"t_mapping(t_uint256,t_address)"},{"astId":2328,"contract":"contracts/CatNFT.sol:CatNFT","label":"_operatorApprovals","offset":0,"slot":"5","type":"t_mapping(t_address,t_mapping(t_address,t_bool))"},{"astId":3397,"contract":"contracts/CatNFT.sol:CatNFT","label":"_tokenURIs","offset":0,"slot":"6","type":"t_mapping(t_uint256,t_string_storage)"},{"astId":8,"contract":"contracts/CatNFT.sol:CatNFT","label":"_owner","offset":0,"slot":"7","type":"t_address"},{"astId":4811,"contract":"contracts/CatNFT.sol:CatNFT","label":"_status","offset":0,"slot":"8","type":"t_uint256"},{"astId":4701,"contract":"contracts/CatNFT.sol:CatNFT","label":"_paused","offset":0,"slot":"9","type":"t_bool"},{"astId":10251,"contract":"contracts/CatNFT.sol:CatNFT","label":"_nextTokenId","offset":0,"slot":"10","type":"t_uint256"},{"astId":10255,"contract":"contracts/CatNFT.sol:CatNFT","label":"catPrices","offset":0,"slot":"11","type":"t_mapping(t_uint256,t_uint256)"},{"astId":10259,"contract":"contracts/CatNFT.sol:CatNFT","label":"catType","offset":0,"slot":"12","type":"t_mapping(t_uint256,t_uint256)"},{"astId":10263,"contract":"contracts/CatNFT.sol:CatNFT","label":"typeSupply","offset":0,"slot":"13","type":"t_mapping(t_uint256,t_uint256)"},{"astId":10267,"contract":"contracts/CatNFT.sol:CatNFT","label":"maxSupply","offset":0,"slot":"14","type":"t_mapping(t_uint256,t_uint256)"}],"types":{"t_address":{"encoding":"inplace","label":"address","numberOfBytes":"20"},"t_bool":{"encoding":"inplace","label":"bool","numberOfBytes":"1"},"t_mapping(t_address,t_bool)":{"encoding":"mapping","key":"t_address","label":"mapping(address => bool)","numberOfBytes":"32","value":"t_bool"},"t_mapping(t_address,t_mapping(t_address,t_bool))":{"encoding":"mapping","key":"t_address","label":"mapping(address => mapping(address => bool))","numberOfBytes":"32","value":"t_mapping(t_address,t_bool)"},"t_mapping(t_address,t_uint256)":{"encoding":"mapping","key":"t_address","label":"mapping(address => uint256)","numberOfBytes":"32","value":"t_uint256"},"t_mapping(t_uint256,t_address)":{"encoding":"mapping","key":"t_uint256","label":"mapping(uint256 => address)","numberOfBytes":"32","value":"t_address"},"t_mapping(t_uint256,t_string_storage)":{"encoding":"mapping","key":"t_uint256","label":"mapping(uint256 => string)","numberOfBytes":"32","value":"t_string_storage"},"t_mapping(t_uint256,t_uint256)":{"encoding":"mapping","key":"t_uint256","label":"mapping(uint256 => uint256)","numberOfBytes":"32","value":"t_uint256"},"t_string_storage":{"encoding":"bytes","label":"string","numberOfBytes":"32"},"t_uint256":{"encoding":"inplace","label":"uint256","numberOfBytes":"32"}}}}}}