{"contracts/PomodoroGame.sol":{"PomodoroGame":{"abi":[{"inputs":[{"internalType":"address","name":"_catCoin","type":"address"},{"internalType":"address","name":"_catNFT","type":"address"},{"internalType":"address","name":"_gameItem","type":"address"}],"stateMutability":"nonpayable","type":"constructor"},{"inputs":[],"name":"EnforcedPause","type":"error"},{"inputs":[],"name":"ExpectedPause","type":"error"},{"inputs":[{"internalType":"address","name":"owner","type":"address"}],"name":"OwnableInvalidOwner","type":"error"},{"inputs":[{"internalType":"address","name":"account","type":"address"}],"name":"OwnableUnauthorizedAccount","type":"error"},{"inputs":[],"name":"ReentrancyGuardReentrantCall","type":"error"},{"anonymous":false,"inputs":[{"indexed":true,"internalType":"address","name":"user","type":"address"},{"indexed":false,"internalType":"uint256","name":"catTokenId","type":"uint256"}],"name":"CatDied","type":"event"},{"anonymous":false,"inputs":[{"indexed":true,"internalType":"address","name":"user","type":"address"},{"indexed":false,"internalType":"uint256","name":"catTokenId","type":"uint256"},{"indexed":false,"internalType":"uint256","name":"foodId","type":"uint256"},{"indexed":false,"internalType":"uint256","name":"hungerReduced","type":"uint256"}],"name":"CatFed","type":"event"},{"anonymous":false,"inputs":[{"indexed":true,"internalType":"address","name":"user","type":"address"},{"indexed":false,"internalType":"uint256","name":"tokenId","type":"uint256"},{"indexed":false,"internalType":"uint256","name":"catTypeId","type":"uint256"}],"name":"CatPurchased","type":"event"},{"anonymous":false,"inputs":[{"indexed":true,"internalType":"address","name":"user","type":"address"},{"indexed":false,"internalType":"uint256","name":"catTokenId","type":"uint256"},{"indexed":false,"internalType":"uint256","name":"hunger","type":"uint256"},{"indexed":false,"internalType":"uint256","name":"happiness","type":"uint256"}],"name":"CatStatsUpdated","type":"event"},{"anonymous":false,"inputs":[{"indexed":true,"internalType":"address","name":"user","type":"address"},{"indexed":false,"internalType":"uint256","name":"itemId","type":"uint256"},{"indexed":false,"internalType":"uint256","name":"amount","type":"uint256"}],"name":"ItemPurchased","type":"event"},{"anonymous":false,"inputs":[{"indexed":true,"internalType":"address","name":"previousOwner","type":"address"},{"indexed":true,"internalType":"address","name":"newOwner","type":"address"}],"name":"OwnershipTransferred","type":"event"},{"anonymous":false,"inputs":[{"indexed":false,"internalType":"address","name":"account","type":"address"}],"name":"Paused","type":"event"},{"anonymous":false,"inputs":[{"indexed":true,"internalType":"address","name":"user","type":"address"},{"indexed":false,"internalType":"uint256","name":"coinsEarned","type":"uint256"},{"indexed":false,"internalType":"uint256","name":"timestamp","type":"uint256"}],"name":"SessionCompleted","type":"event"},{"anonymous":false,"inputs":[{"indexed":true,"internalType":"address","name":"user","type":"address"},{"indexed":false,"internalType":"uint256","name":"amount","type":"uint256"},{"indexed":false,"internalType":"uint256","name":"timestamp","type":"uint256"}],"name":"Staked","type":"event"},{"anonymous":false,"inputs":[{"indexed":false,"internalType":"address","name":"account","type":"address"}],"name":"Unpaused","type":"event"},{"anonymous":false,"inputs":[{"indexed":true,"internalType":"address","name":"user","type":"address"},{"indexed":false,"internalType":"uint256","name":"amount","type":"uint256"},{"indexed":false,"internalType":"uint256","name":"reward","type":"uint256"}],"name":"Unstaked","type":"event"},{"inputs":[],"name":"COINS_PER_SESSION","outputs":[{"internalType":"uint256","name":"","type":"uint256"}],"stateMutability":"view","type":"function"},{"inputs":[],"name":"MAX_STAKE_DURATION","outputs":[{"internalType":"uint256","name":"","type":"uint256"}],"stateMutability":"view","type":"function"},{"inputs":[],"name":"MIN_STAKE_DURATION","outputs":[{"internalType":"uint256","name":"","type":"uint256"}],"stateMutability":"view","type":"function"},{"inputs":[],"name":"SESSION_DURATION","outputs":[{"internalType":"uint256","name":"","type":"uint256"}],"stateMutability":"view","type":"function"},{"inputs":[],"name":"catCoin","outputs":[{"internalType":"contract CATCoin","name":"","type":"address"}],"stateMutability":"view","type":"function"},{"inputs":[],"name":"catNFT","outputs":[{"internalType":"contract CatNFT","name":"","type":"address"}],"stateMutability":"view","type":"function"},{"inputs":[{"internalType":"address","name":"","type":"address"},{"internalType":"uint256","name":"","type":"uint256"}],"name":"catStats","outputs":[{"internalType":"uint256","name":"hunger","type":"uint256"},{"internalType":"uint256","name":"happiness","type":"uint256"},{"internalType":"uint256","name":"lastFedTime","type":"uint256"},{"internalType":"bool","name":"isAlive","type":"bool"},{"internalType":"uint256","name":"daysWithoutFeeding","type":"uint256"}],"stateMutability":"view","type":"function"},{"inputs":[],"name":"completeSession","outputs":[],"stateMutability":"nonpayable","type":"function"},{"inputs":[{"internalType":"address","name":"","type":"address"}],"name":"completedSessions","outputs":[{"internalType":"uint256","name":"","type":"uint256"}],"stateMutability":"view","type":"function"},{"inputs":[],"name":"emergencyWithdraw","outputs":[],"stateMutability":"nonpayable","type":"function"},{"inputs":[{"internalType":"uint256","name":"catTokenId","type":"uint256"},{"internalType":"uint256","name":"foodId","type":"uint256"}],"name":"feedCat","outputs":[],"stateMutability":"nonpayable","type":"function"},{"inputs":[],"name":"gameItem","outputs":[{"internalType":"contract GameItem","name":"","type":"address"}],"stateMutability":"view","type":"function"},{"inputs":[{"internalType":"uint256","name":"foodId","type":"uint256"}],"name":"getFoodValue","outputs":[{"internalType":"uint256","name":"","type":"uint256"}],"stateMutability":"pure","type":"function"},{"inputs":[{"internalType":"address","name":"user","type":"address"}],"name":"getStakingReward","outputs":[{"internalType":"uint256","name":"","type":"uint256"}],"stateMutability":"view","type":"function"},{"inputs":[{"internalType":"address","name":"","type":"address"}],"name":"lastSessionTime","outputs":[{"internalType":"uint256","name":"","type":"uint256"}],"stateMutability":"view","type":"function"},{"inputs":[],"name":"owner","outputs":[{"internalType":"address","name":"","type":"address"}],"stateMutability":"view","type":"function"},{"inputs":[],"name":"pause","outputs":[],"stateMutability":"nonpayable","type":"function"},{"inputs":[],"name":"paused","outputs":[{"internalType":"bool","name":"","type":"bool"}],"stateMutability":"view","type":"function"},{"inputs":[{"internalType":"uint256","name":"catTokenId","type":"uint256"},{"internalType":"uint256","name":"toyId","type":"uint256"}],"name":"playWithCat","outputs":[],"stateMutability":"nonpayable","type":"function"},{"inputs":[{"internalType":"uint256","name":"catTypeId","type":"uint256"}],"name":"purchaseCat","outputs":[],"stateMutability":"nonpayable","type":"function"},{"inputs":[{"internalType":"uint256","name":"itemId","type":"uint256"},{"internalType":"uint256","name":"amount","type":"uint256"}],"name":"purchaseItem","outputs":[],"stateMutability":"nonpayable","type":"function"},{"inputs":[],"name":"renounceOwnership","outputs":[],"stateMutability":"nonpayable","type":"function"},{"inputs":[{"internalType":"uint256","name":"newRate","type":"uint256"}],"name":"setStakingRewardRate","outputs":[],"stateMutability":"nonpayable","type":"function"},{"inputs":[{"internalType":"uint256","name":"amount","type":"uint256"}],"name":"stake","outputs":[],"stateMutability":"nonpayable","type":"function"},{"inputs":[{"internalType":"address","name":"","type":"address"}],"name":"stakes","outputs":[{"internalType":"uint256","name":"amount","type":"uint256"},{"internalType":"uint256","name":"timestamp","type":"uint256"},{"internalType":"bool","name":"active","type":"bool"}],"stateMutability":"view","type":"function"},{"inputs":[],"name":"stakingRewardRate","outputs":[{"internalType":"uint256","name":"","type":"uint256"}],"stateMutability":"view","type":"function"},{"inputs":[{"internalType":"address","name":"newOwner","type":"address"}],"name":"transferOwnership","outputs":[],"stateMutability":"nonpayable","type":"function"},{"inputs":[],"name":"unpause","outputs":[],"stateMutability":"nonpayable","type":"function"},{"inputs":[],"name":"unstake","outputs":[],"stateMutability":"nonpayable","type":"function"},{"inputs":[{"internalType":"uint256","name":"catTokenId","type":"uint256"}],"name":"updateCatStats","outputs":[],"stateMutability":"nonpayable","type":"function"}],"evm":{"bytecode":{"linkReferences":{},"object":"6080346200023257601f6200218a38819003918201601f191683019291906001600160401b0384118385101762000237578160609284926040968752833981010312620002325762000051816200024d565b906200006d8362000065602084016200024d565b92016200024d565b33156200021a57600080546001600160a01b0319808216339081178455875191956001600160a01b039490938516907f8be0079c531659141344cd1fd0a4f28419497f9722a3daafe3b4186f6b6457e09080a360018055600a60095582861615620001ca575081169182156200017a5716928315620001275760025490610100600160a81b039060081b1690610100600160a81b03191617600255816003541617600355600454161760045551611f279081620002638239f35b845162461bcd60e51b815260206004820152602660248201527f506f6d6f646f726f47616d653a20696e76616c69642047616d654974656d206160448201526564647265737360d01b6064820152608490fd5b855162461bcd60e51b8152602060048201526024808201527f506f6d6f646f726f47616d653a20696e76616c6964204361744e4654206164646044820152637265737360e01b6064820152608490fd5b62461bcd60e51b815260206004820152602560248201527f506f6d6f646f726f47616d653a20696e76616c696420434154436f696e206164604482015264647265737360d81b6064820152608490fd5b8351631e4fbdf760e01b815260006004820152602490fd5b600080fd5b634e487b7160e01b600052604160045260246000fd5b51906001600160a01b0382168203620002325756fe608060408181526004918236101561001657600080fd5b600092833560e01c9182630daf130414611af95750816314a1d4f01461189f57816316934fc41461184a5781632def6620146116555781632e1256fb1461161d57816335fb21d6146115fa5781633deaa341146115dd5781633f4ba83a1461157357816342f28cea146112e65781634f3fc2df146112c75781635c975abb146112a35781635e8e9cd61461127b578163715018a61461122157816378f4d413146111fb5781637cc03014146111d1578163803df3211461115f5781638456cb59146111045781638da5cb5b146110dc5781639c758891146110af578163a694fc3a14610ecd578163aa902b4d14610eae578163b7d6851914610e32578163d42fd40714610aa257838263db2e21bc1461097d57508163e067569814610713578163e07c896c146103e2578163e0c570ba146103c4578163f139bda814610240578163f2fde38b146101ab575063f5aea8991461017157600080fd5b346101a75760203660031901126101a75760209181906001600160a01b03610197611b1e565b1681526005845220549051908152f35b5080fd5b90503461023c57602036600319011261023c576101c6611b1e565b906101cf611ea5565b6001600160a01b03918216928315610226575050600054826bffffffffffffffffffffffff60a01b821617600055167f8be0079c531659141344cd1fd0a4f28419497f9722a3daafe3b4186f6b6457e0600080a380f35b51631e4fbdf760e01b8152908101849052602490fd5b8280fd5b9190503461023c578260031936011261023c5761025b611e64565b610263611e82565b3383526005602052808320546105dc81018091116103b157421061035e573383526005602052428184205560066020528083208054600019811461034b57600101905560025460081c6001600160a01b0316918390833b156101a7578251906340c10f1960e01b82523390820152818160448183670de0b6b3a7640000988960248401525af180156103415761032d575b5050807f5948e5593b9f60e79646653d7bd7e88be2dc92a187d9da2a8fa4ca72cd19dc5691519283524260208401523392a26001805580f35b61033690611b7c565b61023c5782386102f4565b83513d84823e3d90fd5b634e487b7160e01b855260118452602485fd5b906020608492519162461bcd60e51b8352820152602760248201527f506f6d6f646f726f47616d653a2073657373696f6e206e6f7420636f6d706c656044820152661d1959081e595d60ca1b6064820152fd5b634e487b7160e01b845260118352602484fd5b5050346101a757816003193601126101a75760209051620151808152f35b8383346101a7576020928360031936011261023c578084913590610404611e64565b61040c611e82565b60035484516370107e1560e01b815280830184905296602492916001600160a01b03919089908590829085165afa9788156107095787986106da575b5087156106995786978160025460081c169087516370a0823160e01b8152338582015287818781865afa90811561068f578a9161065c575b508161048d911015611e0c565b813b156106585788918583928a519485938492630852cd8d60e31b8452898401525af1801561064e578692918991610631575b50506003541660848751809981936334ff261960e21b835233878401528888840152606060448401528160648401525af19586156106275787966105f3575b5084519160a083019083821067ffffffffffffffff8311176105e05750916032959492918694928652848252876105878a868501888152898601904282528a606088019360018552608089019681885233825260078c528282209082528b522096518755516001870155516002860155511515600385019060ff801983541691151516179055565b51910155835190868252828201527f8461727b19ec1277235c4949e60db78a990df97f165fd1074a4eb8e9d6653c2e843392a28251948552840152820152600080516020611ed283398151915260603392a26001805580f35b634e487b7160e01b600090815260418452fd5b9095508381813d8311610620575b61060b8183611b90565b8101031261061b575194876104ff565b600080fd5b503d610601565b85513d89823e3d90fd5b61063d91929350611b7c565b61064a578490878a6104c0565b8680fd5b87513d8a823e3d90fd5b8880fd5b809a50888092503d8311610688575b6106758183611b90565b8101031261061b57975189989081610480565b503d61066b565b89513d8c823e3d90fd5b50601e6064928587519362461bcd60e51b85528401528201527f506f6d6f646f726f47616d653a20636174206e6f7420666f722073616c6500006044820152fd5b9097508481813d8311610702575b6106f28183611b90565b8101031261061b57519688610448565b503d6106e8565b86513d89823e3d90fd5b90503461023c5761072336611b34565b61072e939193611e64565b610736611e82565b610741811515611dac565b82548251635fc8d6cf60e11b8152808501869052602094916001600160a01b03919086908290602490829086165afa908115610973578891610946575b508015610903579061079284899493611c99565b8160025460081c169086516370a0823160e01b815233858201528881602481865afa9081156108f95786916108c6575b50816107cf911015611e0c565b813b1561089a5784916024839289519485938492630852cd8d60e31b8452898401525af180156108bc579084916108a8575b505081541690813b1561023c57829160a483928751948593849263731133e960e01b845233908401528b6024840152886044840152608060648401528160848401525af1801561089e57610886575b50507f1452773cf753d0d7c71ed9990f7c7e2bdde4a2d08d187b3647953877e400488d9282519485528401523392a26001805580f35b61088f90611b7c565b61089a578438610850565b8480fd5b84513d84823e3d90fd5b6108b190611b7c565b61023c578238610801565b86513d86823e3d90fd5b809650898092503d83116108f2575b6108df8183611b90565b8101031261061b579351899490816107c2565b503d6108d5565b88513d88823e3d90fd5b845162461bcd60e51b8152808401879052601f60248201527f506f6d6f646f726f47616d653a206974656d206e6f7420666f722073616c65006044820152606490fd5b90508581813d831161096c575b61095d8183611b90565b8101031261061b57513861077e565b503d610953565b85513d8a823e3d90fd5b915091346101a757816003193601126101a757610998611ea5565b60025481516370a0823160e01b815230858201526020946001600160a01b039260081c8316908683602481855afa928315610a98578693610a66575b50826109de578580f35b8554855163a9059cbb60e01b815294166001600160a01b0316908401908152602081019290925291938592859290918391829060400103925af1908115610a5d5750610a2f575b8080808086948580f35b81610a4e92903d10610a56575b610a468183611b90565b810190611cac565b503880610a25565b503d610a3c565b513d85823e3d90fd5b955091508585813d8111610a91575b610a7f8183611b90565b8101031261061b5786945191386109d4565b503d610a75565b85513d88823e3d90fd5b839150346101a757610ab336611b34565b939091610abe611e64565b610ac6611e82565b60035482516331a9108f60e11b81528281018590526020916001600160a01b03919083908290602490829086165afa9081156106275790610b12918891610e05575b5082163314611bd1565b82548451627eeac760e11b815233818601908152602081018a90529290911692918290829081906040010381865afa908115610627578791610dd8575b5015610d9657835163c19a4ef560e01b81528381018890528181602481865afa908115610627579060ff918891610d69575b5016610d275733865260078152838620908587525282852090610baa60ff600384015416611c1d565b803b15610d235785809160c4865180948193637921219560e11b835233898401523060248401528c60448401526001606484015260a060848401528160a48401525af18015610d1957610cf2575b50610caf90867f3aec2738d4ed5144ad8b9585e1b0d8726e0bab20fbb7c1feac0c64226f2cfc2f610c8b610c3c600080516020611ed283398151915298999a611d63565b84548111610cea57610c4f818654611c69565b85555b8a6001860197885460648110610cb9575b5042600288015586015587518a81526020810194909452604084015233929081906060820190565b0390a254915492519283923396846040919493926060820195825260208201520152565b0390a26001805580f35b8360011c6064610cc98284611c8c565b1115610cdc57505060645b89558d610c63565b610ce591611c8c565b610cd4565b8a8555610c52565b90600080516020611ed28339815191529495610d10610caf93611b7c565b95945090610bf8565b84513d88823e3d90fd5b8580fd5b9050606492519162461bcd60e51b8352820152601e60248201527f506f6d6f646f726f47616d653a206974656d206973206e6f7420666f6f6400006044820152fd5b610d899150833d8511610d8f575b610d818183611b90565b810190611cc4565b89610b81565b503d610d77565b9050606492519162461bcd60e51b8352820152601f60248201527f506f6d6f646f726f47616d653a206e6f20666f6f6420617661696c61626c65006044820152fd5b90508181813d8311610dfe575b610def8183611b90565b8101031261064a575188610b4f565b503d610de5565b610e259150843d8611610e2b575b610e1d8183611b90565b810190611bb2565b89610b08565b503d610e13565b90503461023c57602036600319011261023c57803591610e50611ea5565b60648311610e6057505060095580f35b906020608492519162461bcd60e51b8352820152602260248201527f506f6d6f646f726f47616d653a20726577617264207261746520746f6f2068696044820152610ced60f31b6064820152fd5b5050346101a757816003193601126101a757602090516301e133808152f35b8383346101a7576020908160031936011261023c57833591610eed611e64565b610ef5611e82565b610f00831515611dac565b60025482516370a0823160e01b8152338188015260089190911c6001600160a01b0316959082816024818a5afa8015610d19578590879061107e575b610f4892501015611e0c565b3385526008825260ff600284872001541661103d57849560648392855197889384926323b872dd60e01b845233908401523060248401528860448401525af1938415611033577f1449c6dd7851abc30abf37f57715f492010519147cc2652fbc38202c18a6ee909394611016575b506110028251610fc581611b4a565b85815260028382014281528583019060018252338a5260088652868a209351845551600184015551151591019060ff801983541691151516179055565b815193845242908401523392a26001805580f35b61102c90823d8411610a5657610a468183611b90565b5085610fb6565b82513d87823e3d90fd5b915162461bcd60e51b815291820152601d60248201527f506f6d6f646f726f47616d653a20616c7265616479207374616b696e670000006044820152606490fd5b50508281813d83116110a8575b6110958183611b90565b81010312610d235784610f489151610f3c565b503d61108b565b5050346101a757816003193601126101a757600254905160089190911c6001600160a01b03168152602090f35b5050346101a757816003193601126101a757905490516001600160a01b039091168152602090f35b5050346101a757816003193601126101a75760207f62e78cea01bee320cd4e420270b5ea74000d11b0c9f74754ebdbfc544b05a25891611142611ea5565b61114a611e64565b600160ff19600254161760025551338152a180f35b9190503461023c578060031936011261023c5760a09281906001600160a01b03611187611b1e565b168152600760205281812060243582526020522080549260018201549260028301549160ff6003850154169301549381519586526020860152840152151560608301526080820152f35b8284346111f85760203660031901126111f857506111f160209235611d63565b9051908152f35b80fd5b5050346101a75760203660031901126101a7576020906111f161121c611b1e565b611cdd565b83346111f857806003193601126111f85761123a611ea5565b80546001600160a01b03198116825581906001600160a01b03167f8be0079c531659141344cd1fd0a4f28419497f9722a3daafe3b4186f6b6457e08280a380f35b90503461023c578260031936011261023c575490516001600160a01b03909116815260209150f35b5050346101a757816003193601126101a75760209060ff6002541690519015158152f35b5050346101a757816003193601126101a7576020906009549051908152f35b8383346101a7576112f636611b34565b611301929192611e64565b611309611e82565b60035482516331a9108f60e11b8152868101859052602092916001600160a01b03919084908290602490829086165afa908115610627579061135591889161155c575082163314611bd1565b86548451627eeac760e11b815233818a01908152602081018590529290911692918490829081906040010381865afa90811561062757879161152f575b50156114ec578290602485518094819363c19a4ef560e01b83528b8301525afa9081156114e25760019160ff9187916114c5575b501603611483573384526007815281842090838552528083206113ef60ff600383015416611c1d565b600181019081546064811061142e575b505490549151928352602083015260408201523390600080516020611ed2833981519152908060608101610caf565b600a8101809111611470579495509293600080516020611ed283398151915293610caf91606481111561146b575060645b835590869594506113ff565b61145f565b634e487b7160e01b865260118752602486fd5b8490606492519162461bcd60e51b8352820152601f60248201527f506f6d6f646f726f47616d653a206974656d206973206e6f74206120746f79006044820152fd5b6114dc9150843d8611610d8f57610d818183611b90565b886113c6565b83513d87823e3d90fd5b835162461bcd60e51b8152808801849052601e60248201527f506f6d6f646f726f47616d653a206e6f20746f7920617661696c61626c6500006044820152606490fd5b90508381813d8311611555575b6115468183611b90565b8101031261064a575188611392565b503d61153c565b610e259150853d8711610e2b57610e1d8183611b90565b90503461023c578260031936011261023c5761158d611ea5565b6002549060ff8216156115cf575060ff1916600255513381527f5db9ee0a495bf2e6ff9c91a7834c1ba4fdd244a5e8aa4e537bd38aeae4b073aa90602090a180f35b8251638dfc202b60e01b8152fd5b5050346101a757816003193601126101a757602090516105dc8152f35b5050346101a757816003193601126101a75760209051670de0b6b3a76400008152f35b5050346101a75760203660031901126101a75760209181906001600160a01b03611645611b1e565b1681526006845220549051908152f35b8383346101a757816003193601126101a75761166f611e64565b611677611e82565b33825260209060088252808320600281019081549560ff87161561180757600182016116a4815442611c69565b6201518081106117ad5791876117359899926301e1338089950496600188116117a4575b6116ec60646116e489549a6116df6009548d611c99565b611c99565b048099611c8c565b60ff19909516905581865555600254865163a9059cbb60e01b81523392810192835260208301939093529197889260081c6001600160a01b03169183918b918391604090910190565b03925af194851561179a577f7fc4727e062e336010f2c282598ef5f14facb3de68cf8195c2f23e1454b2b74e949561177d575b50549382519485528401523392a26001805580f35b61179390863d8811610a5657610a468183611b90565b5086611768565b83513d88823e3d90fd5b600197506116c8565b855162461bcd60e51b8152808401889052602e60248201527f506f6d6f646f726f47616d653a206d696e696d756d207374616b696e6720647560448201526d1c985d1a5bdb881b9bdd081b595d60921b6064820152608490fd5b835162461bcd60e51b8152908101859052601d60248201527f506f6d6f646f726f47616d653a206e6f20616374697665207374616b650000006044820152606490fd5b5050346101a75760203660031901126101a75760609181906001600160a01b03611872611b1e565b1681526008602052209081549160ff60026001830154920154169082519384526020840152151590820152f35b839150346101a7576020928360031936011261023c578135916118c0611e64565b6118c8611e82565b60035482516331a9108f60e11b8152828101859052906001600160a01b039087908390602490829085165afa918215610d19579061191192918792611ada575b50163314611bd1565b338452600785528184208385528552818420600381019586549661193760ff8916611c1d565b611945600284015442611c69565b97610e10620151808a04998a878701550480151580611acf575b611a9f575b508354946046861180611a92575b611a0c575b5091610caf9391600193600080516020611ed283398151915298999a60648810159081611a00575b506119c8575b505050015492519283923396846040919493926060820195825260208201520152565b60ff19169055855188815233917f2f8eda2b6116c4c6b8f5fbf8297de6070b86d678c8ae4db8a79376ffe50f665391a28880806119a5565b6003915010158c61199f565b600185018054919a9160058110611a6c576004198101908111611a5957600080516020611ed2833981519152999a9b50916001959391610caf979593905b559a9998509193509193611977565b634e487b7160e01b8b5260118c5260248bfd5b50899a5091610caf95939160019593600080516020611ed28339815191529a9b90611a4a565b5060018501541515611972565b8454906064611aae8284611c8c565b1115611ac157505060645b845589611964565b611aca91611c8c565b611ab9565b50606485541061195f565b611af2919250883d8a11610e2b57610e1d8183611b90565b9088611908565b8490346101a757816003193601126101a7576003546001600160a01b03168152602090f35b600435906001600160a01b038216820361061b57565b604090600319011261061b576004359060243590565b6060810190811067ffffffffffffffff821117611b6657604052565b634e487b7160e01b600052604160045260246000fd5b67ffffffffffffffff8111611b6657604052565b90601f8019910116810190811067ffffffffffffffff821117611b6657604052565b9081602091031261061b57516001600160a01b038116810361061b5790565b15611bd857565b60405162461bcd60e51b815260206004820152601a60248201527f506f6d6f646f726f47616d653a206e6f7420796f7572206361740000000000006044820152606490fd5b15611c2457565b60405162461bcd60e51b815260206004820152601960248201527f506f6d6f646f726f47616d653a206361742069732064656164000000000000006044820152606490fd5b91908203918211611c7657565b634e487b7160e01b600052601160045260246000fd5b91908201809211611c7657565b81810292918115918404141715611c7657565b9081602091031261061b5751801515810361061b5790565b9081602091031261061b575160ff8116810361061b5790565b60018060a01b03166000526008602052604060002060405190611cff82611b4a565b8054825260ff60026001830154928360208601520154161580156040840152611d5c576064916301e13380611d37611d4f9342611c69565b049060018211611d53575b516009546116df91611c99565b0490565b60019150611d42565b5050600090565b60018114611da65760028114611da05760038114611d9a5760048114611d9457600514611d8f57600a90565b601e90565b50600c90565b50601490565b50600f90565b50600a90565b15611db357565b60405162461bcd60e51b815260206004820152602b60248201527f506f6d6f646f726f47616d653a20616d6f756e74206d7573742062652067726560448201526a061746572207468616e20360ac1b6064820152608490fd5b15611e1357565b60405162461bcd60e51b8152602060048201526024808201527f506f6d6f646f726f47616d653a20696e73756666696369656e742043415420636044820152636f696e7360e01b6064820152608490fd5b60ff60025416611e7057565b60405163d93c066560e01b8152600490fd5b600260015414611e93576002600155565b604051633ee5aeb560e01b8152600490fd5b6000546001600160a01b03163303611eb957565b60405163118cdaa760e01b8152336004820152602490fdfeb733cea79eda96cc1c02a9aa9f3fd4dbcfd2bb03ef13b4fa48eeaf1cbd2e6bfea2646970667358221220b5a518340669633c4f41df3bff579fc32537235d3862cdaf1cc4bdeac91c6ed464736f6c63430008180033","opcodes":"PUSH1 0x80 CALLVALUE PUSH3 0x232 JUMPI PUSH1 0x1F PUSH3 0x218A CODESIZE DUP2 SWAP1 SUB SWAP2 DUP3 ADD PUSH1 0x1F NOT AND DUP4 ADD SWAP3 SWAP2 SWAP1 PUSH1 0x1 PUSH1 0x1 PUSH1 0x40 SHL SUB DUP5 GT DUP4 DUP6 LT OR PUSH3 0x237 JUMPI DUP2 PUSH1 0x60 SWAP3 DUP5 SWAP3 PUSH1 0x40 SWAP7 DUP8 MSTORE DUP4 CODECOPY DUP2 ADD SUB SLT PUSH3 0x232 JUMPI PUSH3 0x51 DUP2 PUSH3 0x24D JUMP JUMPDEST SWAP1 PUSH3 0x6D DUP4 PUSH3 0x65 PUSH1 0x20 DUP5 ADD PUSH3 0x24D JUMP JUMPDEST SWAP3 ADD PUSH3 0x24D JUMP JUMPDEST CALLER ISZERO PUSH3 0x21A JUMPI PUSH1 0x0 DUP1 SLOAD PUSH1 0x1 PUSH1 0x1 PUSH1 0xA0 SHL SUB NOT DUP1 DUP3 AND CALLER SWAP1 DUP2 OR DUP5 SSTORE DUP8 MLOAD SWAP2 SWAP6 PUSH1 0x1 PUSH1 0x1 PUSH1 0xA0 SHL SUB SWAP5 SWAP1 SWAP4 DUP6 AND SWAP1 PUSH32 0x8BE0079C531659141344CD1FD0A4F28419497F9722A3DAAFE3B4186F6B6457E0 SWAP1 DUP1 LOG3 PUSH1 0x1 DUP1 SSTORE PUSH1 0xA PUSH1 0x9 SSTORE DUP3 DUP7 AND ISZERO PUSH3 0x1CA JUMPI POP DUP2 AND SWAP2 DUP3 ISZERO PUSH3 0x17A JUMPI AND SWAP3 DUP4 ISZERO PUSH3 0x127 JUMPI PUSH1 0x2 SLOAD SWAP1 PUSH2 0x100 PUSH1 0x1 PUSH1 0xA8 SHL SUB SWAP1 PUSH1 0x8 SHL AND SWAP1 PUSH2 0x100 PUSH1 0x1 PUSH1 0xA8 SHL SUB NOT AND OR PUSH1 0x2 SSTORE DUP2 PUSH1 0x3 SLOAD AND OR PUSH1 0x3 SSTORE PUSH1 0x4 SLOAD AND OR PUSH1 0x4 SSTORE MLOAD PUSH2 0x1F27 SWAP1 DUP2 PUSH3 0x263 DUP3 CODECOPY RETURN JUMPDEST DUP5 MLOAD PUSH3 0x461BCD PUSH1 0xE5 SHL DUP2 MSTORE PUSH1 0x20 PUSH1 0x4 DUP3 ADD MSTORE PUSH1 0x26 PUSH1 0x24 DUP3 ADD MSTORE PUSH32 0x506F6D6F646F726F47616D653A20696E76616C69642047616D654974656D2061 PUSH1 0x44 DUP3 ADD MSTORE PUSH6 0x646472657373 PUSH1 0xD0 SHL PUSH1 0x64 DUP3 ADD MSTORE PUSH1 0x84 SWAP1 REVERT JUMPDEST DUP6 MLOAD PUSH3 0x461BCD PUSH1 0xE5 SHL DUP2 MSTORE PUSH1 0x20 PUSH1 0x4 DUP3 ADD MSTORE PUSH1 0x24 DUP1 DUP3 ADD MSTORE PUSH32 0x506F6D6F646F726F47616D653A20696E76616C6964204361744E465420616464 PUSH1 0x44 DUP3 ADD MSTORE PUSH4 0x72657373 PUSH1 0xE0 SHL PUSH1 0x64 DUP3 ADD MSTORE PUSH1 0x84 SWAP1 REVERT JUMPDEST PUSH3 0x461BCD PUSH1 0xE5 SHL DUP2 MSTORE PUSH1 0x20 PUSH1 0x4 DUP3 ADD MSTORE PUSH1 0x25 PUSH1 0x24 DUP3 ADD MSTORE PUSH32 0x506F6D6F646F726F47616D653A20696E76616C696420434154436F696E206164 PUSH1 0x44 DUP3 ADD MSTORE PUSH5 0x6472657373 PUSH1 0xD8 SHL PUSH1 0x64 DUP3 ADD MSTORE PUSH1 0x84 SWAP1 REVERT JUMPDEST DUP4 MLOAD PUSH4 0x1E4FBDF7 PUSH1 0xE0 SHL DUP2 MSTORE PUSH1 0x0 PUSH1 0x4 DUP3 ADD MSTORE PUSH1 0x24 SWAP1 REVERT JUMPDEST PUSH1 0x0 DUP1 REVERT JUMPDEST PUSH4 0x4E487B71 PUSH1 0xE0 SHL PUSH1 0x0 MSTORE PUSH1 0x41 PUSH1 0x4 MSTORE PUSH1 0x24 PUSH1 0x0 REVERT JUMPDEST MLOAD SWAP1 PUSH1 0x1 PUSH1 0x1 PUSH1 0xA0 SHL SUB DUP3 AND DUP3 SUB PUSH3 0x232 JUMPI JUMP INVALID PUSH1 0x80 PUSH1 0x40 DUP2 DUP2 MSTORE PUSH1 0x4 SWAP2 DUP3 CALLDATASIZE LT ISZERO PUSH2 0x16 JUMPI PUSH1 0x0 DUP1 REVERT JUMPDEST PUSH1 0x0 SWAP3 DUP4 CALLDATALOAD PUSH1 0xE0 SHR SWAP2 DUP3 PUSH4 0xDAF1304 EQ PUSH2 0x1AF9 JUMPI POP DUP2 PUSH4 0x14A1D4F0 EQ PUSH2 0x189F JUMPI DUP2 PUSH4 0x16934FC4 EQ PUSH2 0x184A JUMPI DUP2 PUSH4 0x2DEF6620 EQ PUSH2 0x1655 JUMPI DUP2 PUSH4 0x2E1256FB EQ PUSH2 0x161D JUMPI DUP2 PUSH4 0x35FB21D6 EQ PUSH2 0x15FA JUMPI DUP2 PUSH4 0x3DEAA341 EQ PUSH2 0x15DD JUMPI DUP2 PUSH4 0x3F4BA83A EQ PUSH2 0x1573 JUMPI DUP2 PUSH4 0x42F28CEA EQ PUSH2 0x12E6 JUMPI DUP2 PUSH4 0x4F3FC2DF EQ PUSH2 0x12C7 JUMPI DUP2 PUSH4 0x5C975ABB EQ PUSH2 0x12A3 JUMPI DUP2 PUSH4 0x5E8E9CD6 EQ PUSH2 0x127B JUMPI DUP2 PUSH4 0x715018A6 EQ PUSH2 0x1221 JUMPI DUP2 PUSH4 0x78F4D413 EQ PUSH2 0x11FB JUMPI DUP2 PUSH4 0x7CC03014 EQ PUSH2 0x11D1 JUMPI DUP2 PUSH4 0x803DF321 EQ PUSH2 0x115F JUMPI DUP2 PUSH4 0x8456CB59 EQ PUSH2 0x1104 JUMPI DUP2 PUSH4 0x8DA5CB5B EQ PUSH2 0x10DC JUMPI DUP2 PUSH4 0x9C758891 EQ PUSH2 0x10AF JUMPI DUP2 PUSH4 0xA694FC3A EQ PUSH2 0xECD JUMPI DUP2 PUSH4 0xAA902B4D EQ PUSH2 0xEAE JUMPI DUP2 PUSH4 0xB7D68519 EQ PUSH2 0xE32 JUMPI DUP2 PUSH4 0xD42FD407 EQ PUSH2 0xAA2 JUMPI DUP4 DUP3 PUSH4 0xDB2E21BC EQ PUSH2 0x97D JUMPI POP DUP2 PUSH4 0xE0675698 EQ PUSH2 0x713 JUMPI DUP2 PUSH4 0xE07C896C EQ PUSH2 0x3E2 JUMPI DUP2 PUSH4 0xE0C570BA EQ PUSH2 0x3C4 JUMPI DUP2 PUSH4 0xF139BDA8 EQ PUSH2 0x240 JUMPI DUP2 PUSH4 0xF2FDE38B EQ PUSH2 0x1AB JUMPI POP PUSH4 0xF5AEA899 EQ PUSH2 0x171 JUMPI PUSH1 0x0 DUP1 REVERT JUMPDEST CALLVALUE PUSH2 0x1A7 JUMPI PUSH1 0x20 CALLDATASIZE PUSH1 0x3 NOT ADD SLT PUSH2 0x1A7 JUMPI PUSH1 0x20 SWAP2 DUP2 SWAP1 PUSH1 0x1 PUSH1 0x1 PUSH1 0xA0 SHL SUB PUSH2 0x197 PUSH2 0x1B1E JUMP JUMPDEST AND DUP2 MSTORE PUSH1 0x5 DUP5 MSTORE KECCAK256 SLOAD SWAP1 MLOAD SWAP1 DUP2 MSTORE RETURN JUMPDEST POP DUP1 REVERT JUMPDEST SWAP1 POP CALLVALUE PUSH2 0x23C JUMPI PUSH1 0x20 CALLDATASIZE PUSH1 0x3 NOT ADD SLT PUSH2 0x23C JUMPI PUSH2 0x1C6 PUSH2 0x1B1E JUMP JUMPDEST SWAP1 PUSH2 0x1CF PUSH2 0x1EA5 JUMP JUMPDEST PUSH1 0x1 PUSH1 0x1 PUSH1 0xA0 SHL SUB SWAP2 DUP3 AND SWAP3 DUP4 ISZERO PUSH2 0x226 JUMPI POP POP PUSH1 0x0 SLOAD DUP3 PUSH12 0xFFFFFFFFFFFFFFFFFFFFFFFF PUSH1 0xA0 SHL DUP3 AND OR PUSH1 0x0 SSTORE AND PUSH32 0x8BE0079C531659141344CD1FD0A4F28419497F9722A3DAAFE3B4186F6B6457E0 PUSH1 0x0 DUP1 LOG3 DUP1 RETURN JUMPDEST MLOAD PUSH4 0x1E4FBDF7 PUSH1 0xE0 SHL DUP2 MSTORE SWAP1 DUP2 ADD DUP5 SWAP1 MSTORE PUSH1 0x24 SWAP1 REVERT JUMPDEST DUP3 DUP1 REVERT JUMPDEST SWAP2 SWAP1 POP CALLVALUE PUSH2 0x23C JUMPI DUP3 PUSH1 0x3 NOT CALLDATASIZE ADD SLT PUSH2 0x23C JUMPI PUSH2 0x25B PUSH2 0x1E64 JUMP JUMPDEST PUSH2 0x263 PUSH2 0x1E82 JUMP JUMPDEST CALLER DUP4 MSTORE PUSH1 0x5 PUSH1 0x20 MSTORE DUP1 DUP4 KECCAK256 SLOAD PUSH2 0x5DC DUP2 ADD DUP1 SWAP2 GT PUSH2 0x3B1 JUMPI TIMESTAMP LT PUSH2 0x35E JUMPI CALLER DUP4 MSTORE PUSH1 0x5 PUSH1 0x20 MSTORE TIMESTAMP DUP2 DUP5 KECCAK256 SSTORE PUSH1 0x6 PUSH1 0x20 MSTORE DUP1 DUP4 KECCAK256 DUP1 SLOAD PUSH1 0x0 NOT DUP2 EQ PUSH2 0x34B JUMPI PUSH1 0x1 ADD SWAP1 SSTORE PUSH1 0x2 SLOAD PUSH1 0x8 SHR PUSH1 0x1 PUSH1 0x1 PUSH1 0xA0 SHL SUB AND SWAP2 DUP4 SWAP1 DUP4 EXTCODESIZE ISZERO PUSH2 0x1A7 JUMPI DUP3 MLOAD SWAP1 PUSH4 0x40C10F19 PUSH1 0xE0 SHL DUP3 MSTORE CALLER SWAP1 DUP3 ADD MSTORE DUP2 DUP2 PUSH1 0x44 DUP2 DUP4 PUSH8 0xDE0B6B3A7640000 SWAP9 DUP10 PUSH1 0x24 DUP5 ADD MSTORE GAS CALL DUP1 ISZERO PUSH2 0x341 JUMPI PUSH2 0x32D JUMPI JUMPDEST POP POP DUP1 PUSH32 0x5948E5593B9F60E79646653D7BD7E88BE2DC92A187D9DA2A8FA4CA72CD19DC56 SWAP2 MLOAD SWAP3 DUP4 MSTORE TIMESTAMP PUSH1 0x20 DUP5 ADD MSTORE CALLER SWAP3 LOG2 PUSH1 0x1 DUP1 SSTORE DUP1 RETURN JUMPDEST PUSH2 0x336 SWAP1 PUSH2 0x1B7C JUMP JUMPDEST PUSH2 0x23C JUMPI DUP3 CODESIZE PUSH2 0x2F4 JUMP JUMPDEST DUP4 MLOAD RETURNDATASIZE DUP5 DUP3 RETURNDATACOPY RETURNDATASIZE SWAP1 REVERT JUMPDEST PUSH4 0x4E487B71 PUSH1 0xE0 SHL DUP6 MSTORE PUSH1 0x11 DUP5 MSTORE PUSH1 0x24 DUP6 REVERT JUMPDEST SWAP1 PUSH1 0x20 PUSH1 0x84 SWAP3 MLOAD SWAP2 PUSH3 0x461BCD PUSH1 0xE5 SHL DUP4 MSTORE DUP3 ADD MSTORE PUSH1 0x27 PUSH1 0x24 DUP3 ADD MSTORE PUSH32 0x506F6D6F646F726F47616D653A2073657373696F6E206E6F7420636F6D706C65 PUSH1 0x44 DUP3 ADD MSTORE PUSH7 0x1D1959081E595D PUSH1 0xCA SHL PUSH1 0x64 DUP3 ADD MSTORE REVERT JUMPDEST PUSH4 0x4E487B71 PUSH1 0xE0 SHL DUP5 MSTORE PUSH1 0x11 DUP4 MSTORE PUSH1 0x24 DUP5 REVERT JUMPDEST POP POP CALLVALUE PUSH2 0x1A7 JUMPI DUP2 PUSH1 0x3 NOT CALLDATASIZE ADD SLT PUSH2 0x1A7 JUMPI PUSH1 0x20 SWAP1 MLOAD PUSH3 0x15180 DUP2 MSTORE RETURN JUMPDEST DUP4 DUP4 CALLVALUE PUSH2 0x1A7 JUMPI PUSH1 0x20 SWAP3 DUP4 PUSH1 0x3 NOT CALLDATASIZE ADD SLT PUSH2 0x23C JUMPI DUP1 DUP5 SWAP2 CALLDATALOAD SWAP1 PUSH2 0x404 PUSH2 0x1E64 JUMP JUMPDEST PUSH2 0x40C PUSH2 0x1E82 JUMP JUMPDEST PUSH1 0x3 SLOAD DUP5 MLOAD PUSH4 0x70107E15 PUSH1 0xE0 SHL DUP2 MSTORE DUP1 DUP4 ADD DUP5 SWAP1 MSTORE SWAP7 PUSH1 0x24 SWAP3 SWAP2 PUSH1 0x1 PUSH1 0x1 PUSH1 0xA0 SHL SUB SWAP2 SWAP1 DUP10 SWAP1 DUP6 SWAP1 DUP3 SWAP1 DUP6 AND GAS STATICCALL SWAP8 DUP9 ISZERO PUSH2 0x709 JUMPI DUP8 SWAP9 PUSH2 0x6DA JUMPI JUMPDEST POP DUP8 ISZERO PUSH2 0x699 JUMPI DUP7 SWAP8 DUP2 PUSH1 0x2 SLOAD PUSH1 0x8 SHR AND SWAP1 DUP8 MLOAD PUSH4 0x70A08231 PUSH1 0xE0 SHL DUP2 MSTORE CALLER DUP6 DUP3 ADD MSTORE DUP8 DUP2 DUP8 DUP2 DUP7 GAS STATICCALL SWAP1 DUP2 ISZERO PUSH2 0x68F JUMPI DUP11 SWAP2 PUSH2 0x65C JUMPI JUMPDEST POP DUP2 PUSH2 0x48D SWAP2 LT ISZERO PUSH2 0x1E0C JUMP JUMPDEST DUP2 EXTCODESIZE ISZERO PUSH2 0x658 JUMPI DUP9 SWAP2 DUP6 DUP4 SWAP3 DUP11 MLOAD SWAP5 DUP6 SWAP4 DUP5 SWAP3 PUSH4 0x852CD8D PUSH1 0xE3 SHL DUP5 MSTORE DUP10 DUP5 ADD MSTORE GAS CALL DUP1 ISZERO PUSH2 0x64E JUMPI DUP7 SWAP3 SWAP2 DUP10 SWAP2 PUSH2 0x631 JUMPI JUMPDEST POP POP PUSH1 0x3 SLOAD AND PUSH1 0x84 DUP8 MLOAD DUP1 SWAP10 DUP2 SWAP4 PUSH4 0x34FF2619 PUSH1 0xE2 SHL DUP4 MSTORE CALLER DUP8 DUP5 ADD MSTORE DUP9 DUP9 DUP5 ADD MSTORE PUSH1 0x60 PUSH1 0x44 DUP5 ADD MSTORE DUP2 PUSH1 0x64 DUP5 ADD MSTORE GAS CALL SWAP6 DUP7 ISZERO PUSH2 0x627 JUMPI DUP8 SWAP7 PUSH2 0x5F3 JUMPI JUMPDEST POP DUP5 MLOAD SWAP2 PUSH1 0xA0 DUP4 ADD SWAP1 DUP4 DUP3 LT PUSH8 0xFFFFFFFFFFFFFFFF DUP4 GT OR PUSH2 0x5E0 JUMPI POP SWAP2 PUSH1 0x32 SWAP6 SWAP5 SWAP3 SWAP2 DUP7 SWAP5 SWAP3 DUP7 MSTORE DUP5 DUP3 MSTORE DUP8 PUSH2 0x587 DUP11 DUP7 DUP6 ADD DUP9 DUP2 MSTORE DUP10 DUP7 ADD SWAP1 TIMESTAMP DUP3 MSTORE DUP11 PUSH1 0x60 DUP9 ADD SWAP4 PUSH1 0x1 DUP6 MSTORE PUSH1 0x80 DUP10 ADD SWAP7 DUP2 DUP9 MSTORE CALLER DUP3 MSTORE PUSH1 0x7 DUP13 MSTORE DUP3 DUP3 KECCAK256 SWAP1 DUP3 MSTORE DUP12 MSTORE KECCAK256 SWAP7 MLOAD DUP8 SSTORE MLOAD PUSH1 0x1 DUP8 ADD SSTORE MLOAD PUSH1 0x2 DUP7 ADD SSTORE MLOAD ISZERO ISZERO PUSH1 0x3 DUP6 ADD SWAP1 PUSH1 0xFF DUP1 NOT DUP4 SLOAD AND SWAP2 ISZERO ISZERO AND OR SWAP1 SSTORE JUMP JUMPDEST MLOAD SWAP2 ADD SSTORE DUP4 MLOAD SWAP1 DUP7 DUP3 MSTORE DUP3 DUP3 ADD MSTORE PUSH32 0x8461727B19EC1277235C4949E60DB78A990DF97F165FD1074A4EB8E9D6653C2E DUP5 CALLER SWAP3 LOG2 DUP3 MLOAD SWAP5 DUP6 MSTORE DUP5 ADD MSTORE DUP3 ADD MSTORE PUSH1 0x0 DUP1 MLOAD PUSH1 0x20 PUSH2 0x1ED2 DUP4 CODECOPY DUP2 MLOAD SWAP2 MSTORE PUSH1 0x60 CALLER SWAP3 LOG2 PUSH1 0x1 DUP1 SSTORE DUP1 RETURN JUMPDEST PUSH4 0x4E487B71 PUSH1 0xE0 SHL PUSH1 0x0 SWAP1 DUP2 MSTORE PUSH1 0x41 DUP5 MSTORE REVERT JUMPDEST SWAP1 SWAP6 POP DUP4 DUP2 DUP2 RETURNDATASIZE DUP4 GT PUSH2 0x620 JUMPI JUMPDEST PUSH2 0x60B DUP2 DUP4 PUSH2 0x1B90 JUMP JUMPDEST DUP2 ADD SUB SLT PUSH2 0x61B JUMPI MLOAD SWAP5 DUP8 PUSH2 0x4FF JUMP JUMPDEST PUSH1 0x0 DUP1 REVERT JUMPDEST POP RETURNDATASIZE PUSH2 0x601 JUMP JUMPDEST DUP6 MLOAD RETURNDATASIZE DUP10 DUP3 RETURNDATACOPY RETURNDATASIZE SWAP1 REVERT JUMPDEST PUSH2 0x63D SWAP2 SWAP3 SWAP4 POP PUSH2 0x1B7C JUMP JUMPDEST PUSH2 0x64A JUMPI DUP5 SWAP1 DUP8 DUP11 PUSH2 0x4C0 JUMP JUMPDEST DUP7 DUP1 REVERT JUMPDEST DUP8 MLOAD RETURNDATASIZE DUP11 DUP3 RETURNDATACOPY RETURNDATASIZE SWAP1 REVERT JUMPDEST DUP9 DUP1 REVERT JUMPDEST DUP1 SWAP11 POP DUP9 DUP1 SWAP3 POP RETURNDATASIZE DUP4 GT PUSH2 0x688 JUMPI JUMPDEST PUSH2 0x675 DUP2 DUP4 PUSH2 0x1B90 JUMP JUMPDEST DUP2 ADD SUB SLT PUSH2 0x61B JUMPI SWAP8 MLOAD DUP10 SWAP9 SWAP1 DUP2 PUSH2 0x480 JUMP JUMPDEST POP RETURNDATASIZE PUSH2 0x66B JUMP JUMPDEST DUP10 MLOAD RETURNDATASIZE DUP13 DUP3 RETURNDATACOPY RETURNDATASIZE SWAP1 REVERT JUMPDEST POP PUSH1 0x1E PUSH1 0x64 SWAP3 DUP6 DUP8 MLOAD SWAP4 PUSH3 0x461BCD PUSH1 0xE5 SHL DUP6 MSTORE DUP5 ADD MSTORE DUP3 ADD MSTORE PUSH32 0x506F6D6F646F726F47616D653A20636174206E6F7420666F722073616C650000 PUSH1 0x44 DUP3 ADD MSTORE REVERT JUMPDEST SWAP1 SWAP8 POP DUP5 DUP2 DUP2 RETURNDATASIZE DUP4 GT PUSH2 0x702 JUMPI JUMPDEST PUSH2 0x6F2 DUP2 DUP4 PUSH2 0x1B90 JUMP JUMPDEST DUP2 ADD SUB SLT PUSH2 0x61B JUMPI MLOAD SWAP7 DUP9 PUSH2 0x448 JUMP JUMPDEST POP RETURNDATASIZE PUSH2 0x6E8 JUMP JUMPDEST DUP7 MLOAD RETURNDATASIZE DUP10 DUP3 RETURNDATACOPY RETURNDATASIZE SWAP1 REVERT JUMPDEST SWAP1 POP CALLVALUE PUSH2 0x23C JUMPI PUSH2 0x723 CALLDATASIZE PUSH2 0x1B34 JUMP JUMPDEST PUSH2 0x72E SWAP4 SWAP2 SWAP4 PUSH2 0x1E64 JUMP JUMPDEST PUSH2 0x736 PUSH2 0x1E82 JUMP JUMPDEST PUSH2 0x741 DUP2 ISZERO ISZERO PUSH2 0x1DAC JUMP JUMPDEST DUP3 SLOAD DUP3 MLOAD PUSH4 0x5FC8D6CF PUSH1 0xE1 SHL DUP2 MSTORE DUP1 DUP6 ADD DUP7 SWAP1 MSTORE PUSH1 0x20 SWAP5 SWAP2 PUSH1 0x1 PUSH1 0x1 PUSH1 0xA0 SHL SUB SWAP2 SWAP1 DUP7 SWAP1 DUP3 SWAP1 PUSH1 0x24 SWAP1 DUP3 SWAP1 DUP7 AND GAS STATICCALL SWAP1 DUP2 ISZERO PUSH2 0x973 JUMPI DUP9 SWAP2 PUSH2 0x946 JUMPI JUMPDEST POP DUP1 ISZERO PUSH2 0x903 JUMPI SWAP1 PUSH2 0x792 DUP5 DUP10 SWAP5 SWAP4 PUSH2 0x1C99 JUMP JUMPDEST DUP2 PUSH1 0x2 SLOAD PUSH1 0x8 SHR AND SWAP1 DUP7 MLOAD PUSH4 0x70A08231 PUSH1 0xE0 SHL DUP2 MSTORE CALLER DUP6 DUP3 ADD MSTORE DUP9 DUP2 PUSH1 0x24 DUP2 DUP7 GAS STATICCALL SWAP1 DUP2 ISZERO PUSH2 0x8F9 JUMPI DUP7 SWAP2 PUSH2 0x8C6 JUMPI JUMPDEST POP DUP2 PUSH2 0x7CF SWAP2 LT ISZERO PUSH2 0x1E0C JUMP JUMPDEST DUP2 EXTCODESIZE ISZERO PUSH2 0x89A JUMPI DUP5 SWAP2 PUSH1 0x24 DUP4 SWAP3 DUP10 MLOAD SWAP5 DUP6 SWAP4 DUP5 SWAP3 PUSH4 0x852CD8D PUSH1 0xE3 SHL DUP5 MSTORE DUP10 DUP5 ADD MSTORE GAS CALL DUP1 ISZERO PUSH2 0x8BC JUMPI SWAP1 DUP5 SWAP2 PUSH2 0x8A8 JUMPI JUMPDEST POP POP DUP2 SLOAD AND SWAP1 DUP2 EXTCODESIZE ISZERO PUSH2 0x23C JUMPI DUP3 SWAP2 PUSH1 0xA4 DUP4 SWAP3 DUP8 MLOAD SWAP5 DUP6 SWAP4 DUP5 SWAP3 PUSH4 0x731133E9 PUSH1 0xE0 SHL DUP5 MSTORE CALLER SWAP1 DUP5 ADD MSTORE DUP12 PUSH1 0x24 DUP5 ADD MSTORE DUP9 PUSH1 0x44 DUP5 ADD MSTORE PUSH1 0x80 PUSH1 0x64 DUP5 ADD MSTORE DUP2 PUSH1 0x84 DUP5 ADD MSTORE GAS CALL DUP1 ISZERO PUSH2 0x89E JUMPI PUSH2 0x886 JUMPI JUMPDEST POP POP PUSH32 0x1452773CF753D0D7C71ED9990F7C7E2BDDE4A2D08D187B3647953877E400488D SWAP3 DUP3 MLOAD SWAP5 DUP6 MSTORE DUP5 ADD MSTORE CALLER SWAP3 LOG2 PUSH1 0x1 DUP1 SSTORE DUP1 RETURN JUMPDEST PUSH2 0x88F SWAP1 PUSH2 0x1B7C JUMP JUMPDEST PUSH2 0x89A JUMPI DUP5 CODESIZE PUSH2 0x850 JUMP JUMPDEST DUP5 DUP1 REVERT JUMPDEST DUP5 MLOAD RETURNDATASIZE DUP5 DUP3 RETURNDATACOPY RETURNDATASIZE SWAP1 REVERT JUMPDEST PUSH2 0x8B1 SWAP1 PUSH2 0x1B7C JUMP JUMPDEST PUSH2 0x23C JUMPI DUP3 CODESIZE PUSH2 0x801 JUMP JUMPDEST DUP7 MLOAD RETURNDATASIZE DUP7 DUP3 RETURNDATACOPY RETURNDATASIZE SWAP1 REVERT JUMPDEST DUP1 SWAP7 POP DUP10 DUP1 SWAP3 POP RETURNDATASIZE DUP4 GT PUSH2 0x8F2 JUMPI JUMPDEST PUSH2 0x8DF DUP2 DUP4 PUSH2 0x1B90 JUMP JUMPDEST DUP2 ADD SUB SLT PUSH2 0x61B JUMPI SWAP4 MLOAD DUP10 SWAP5 SWAP1 DUP2 PUSH2 0x7C2 JUMP JUMPDEST POP RETURNDATASIZE PUSH2 0x8D5 JUMP JUMPDEST DUP9 MLOAD RETURNDATASIZE DUP9 DUP3 RETURNDATACOPY RETURNDATASIZE SWAP1 REVERT JUMPDEST DUP5 MLOAD PUSH3 0x461BCD PUSH1 0xE5 SHL DUP2 MSTORE DUP1 DUP5 ADD DUP8 SWAP1 MSTORE PUSH1 0x1F PUSH1 0x24 DUP3 ADD MSTORE PUSH32 0x506F6D6F646F726F47616D653A206974656D206E6F7420666F722073616C6500 PUSH1 0x44 DUP3 ADD MSTORE PUSH1 0x64 SWAP1 REVERT JUMPDEST SWAP1 POP DUP6 DUP2 DUP2 RETURNDATASIZE DUP4 GT PUSH2 0x96C JUMPI JUMPDEST PUSH2 0x95D DUP2 DUP4 PUSH2 0x1B90 JUMP JUMPDEST DUP2 ADD SUB SLT PUSH2 0x61B JUMPI MLOAD CODESIZE PUSH2 0x77E JUMP JUMPDEST POP RETURNDATASIZE PUSH2 0x953 JUMP JUMPDEST DUP6 MLOAD RETURNDATASIZE DUP11 DUP3 RETURNDATACOPY RETURNDATASIZE SWAP1 REVERT JUMPDEST SWAP2 POP SWAP2 CALLVALUE PUSH2 0x1A7 JUMPI DUP2 PUSH1 0x3 NOT CALLDATASIZE ADD SLT PUSH2 0x1A7 JUMPI PUSH2 0x998 PUSH2 0x1EA5 JUMP JUMPDEST PUSH1 0x2 SLOAD DUP2 MLOAD PUSH4 0x70A08231 PUSH1 0xE0 SHL DUP2 MSTORE ADDRESS DUP6 DUP3 ADD MSTORE PUSH1 0x20 SWAP5 PUSH1 0x1 PUSH1 0x1 PUSH1 0xA0 SHL SUB SWAP3 PUSH1 0x8 SHR DUP4 AND SWAP1 DUP7 DUP4 PUSH1 0x24 DUP2 DUP6 GAS STATICCALL SWAP3 DUP4 ISZERO PUSH2 0xA98 JUMPI DUP7 SWAP4 PUSH2 0xA66 JUMPI JUMPDEST POP DUP3 PUSH2 0x9DE JUMPI DUP6 DUP1 RETURN JUMPDEST DUP6 SLOAD DUP6 MLOAD PUSH4 0xA9059CBB PUSH1 0xE0 SHL DUP2 MSTORE SWAP5 AND PUSH1 0x1 PUSH1 0x1 PUSH1 0xA0 SHL SUB AND SWAP1 DUP5 ADD SWAP1 DUP2 MSTORE PUSH1 0x20 DUP2 ADD SWAP3 SWAP1 SWAP3 MSTORE SWAP2 SWAP4 DUP6 SWAP3 DUP6 SWAP3 SWAP1 SWAP2 DUP4 SWAP2 DUP3 SWAP1 PUSH1 0x40 ADD SUB SWAP3 GAS CALL SWAP1 DUP2 ISZERO PUSH2 0xA5D JUMPI POP PUSH2 0xA2F JUMPI JUMPDEST DUP1 DUP1 DUP1 DUP1 DUP7 SWAP5 DUP6 DUP1 RETURN JUMPDEST DUP2 PUSH2 0xA4E SWAP3 SWAP1 RETURNDATASIZE LT PUSH2 0xA56 JUMPI JUMPDEST PUSH2 0xA46 DUP2 DUP4 PUSH2 0x1B90 JUMP JUMPDEST DUP2 ADD SWAP1 PUSH2 0x1CAC JUMP JUMPDEST POP CODESIZE DUP1 PUSH2 0xA25 JUMP JUMPDEST POP RETURNDATASIZE PUSH2 0xA3C JUMP JUMPDEST MLOAD RETURNDATASIZE DUP6 DUP3 RETURNDATACOPY RETURNDATASIZE SWAP1 REVERT JUMPDEST SWAP6 POP SWAP2 POP DUP6 DUP6 DUP2 RETURNDATASIZE DUP2 GT PUSH2 0xA91 JUMPI JUMPDEST PUSH2 0xA7F DUP2 DUP4 PUSH2 0x1B90 JUMP JUMPDEST DUP2 ADD SUB SLT PUSH2 0x61B JUMPI DUP7 SWAP5 MLOAD SWAP2 CODESIZE PUSH2 0x9D4 JUMP JUMPDEST POP RETURNDATASIZE PUSH2 0xA75 JUMP JUMPDEST DUP6 MLOAD RETURNDATASIZE DUP9 DUP3 RETURNDATACOPY RETURNDATASIZE SWAP1 REVERT JUMPDEST DUP4 SWAP2 POP CALLVALUE PUSH2 0x1A7 JUMPI PUSH2 0xAB3 CALLDATASIZE PUSH2 0x1B34 JUMP JUMPDEST SWAP4 SWAP1 SWAP2 PUSH2 0xABE PUSH2 0x1E64 JUMP JUMPDEST PUSH2 0xAC6 PUSH2 0x1E82 JUMP JUMPDEST PUSH1 0x3 SLOAD DUP3 MLOAD PUSH4 0x31A9108F PUSH1 0xE1 SHL DUP2 MSTORE DUP3 DUP2 ADD DUP6 SWAP1 MSTORE PUSH1 0x20 SWAP2 PUSH1 0x1 PUSH1 0x1 PUSH1 0xA0 SHL SUB SWAP2 SWAP1 DUP4 SWAP1 DUP3 SWAP1 PUSH1 0x24 SWAP1 DUP3 SWAP1 DUP7 AND GAS STATICCALL SWAP1 DUP2 ISZERO PUSH2 0x627 JUMPI SWAP1 PUSH2 0xB12 SWAP2 DUP9 SWAP2 PUSH2 0xE05 JUMPI JUMPDEST POP DUP3 AND CALLER EQ PUSH2 0x1BD1 JUMP JUMPDEST DUP3 SLOAD DUP5 MLOAD PUSH3 0x7EEAC7 PUSH1 0xE1 SHL DUP2 MSTORE CALLER DUP2 DUP7 ADD SWAP1 DUP2 MSTORE PUSH1 0x20 DUP2 ADD DUP11 SWAP1 MSTORE SWAP3 SWAP1 SWAP2 AND SWAP3 SWAP2 DUP3 SWAP1 DUP3 SWAP1 DUP2 SWAP1 PUSH1 0x40 ADD SUB DUP2 DUP7 GAS STATICCALL SWAP1 DUP2 ISZERO PUSH2 0x627 JUMPI DUP8 SWAP2 PUSH2 0xDD8 JUMPI JUMPDEST POP ISZERO PUSH2 0xD96 JUMPI DUP4 MLOAD PUSH4 0xC19A4EF5 PUSH1 0xE0 SHL DUP2 MSTORE DUP4 DUP2 ADD DUP9 SWAP1 MSTORE DUP2 DUP2 PUSH1 0x24 DUP2 DUP7 GAS STATICCALL SWAP1 DUP2 ISZERO PUSH2 0x627 JUMPI SWAP1 PUSH1 0xFF SWAP2 DUP9 SWAP2 PUSH2 0xD69 JUMPI JUMPDEST POP AND PUSH2 0xD27 JUMPI CALLER DUP7 MSTORE PUSH1 0x7 DUP2 MSTORE DUP4 DUP7 KECCAK256 SWAP1 DUP6 DUP8 MSTORE MSTORE DUP3 DUP6 KECCAK256 SWAP1 PUSH2 0xBAA PUSH1 0xFF PUSH1 0x3 DUP5 ADD SLOAD AND PUSH2 0x1C1D JUMP JUMPDEST DUP1 EXTCODESIZE ISZERO PUSH2 0xD23 JUMPI DUP6 DUP1 SWAP2 PUSH1 0xC4 DUP7 MLOAD DUP1 SWAP5 DUP2 SWAP4 PUSH4 0x79212195 PUSH1 0xE1 SHL DUP4 MSTORE CALLER DUP10 DUP5 ADD MSTORE ADDRESS PUSH1 0x24 DUP5 ADD MSTORE DUP13 PUSH1 0x44 DUP5 ADD MSTORE PUSH1 0x1 PUSH1 0x64 DUP5 ADD MSTORE PUSH1 0xA0 PUSH1 0x84 DUP5 ADD MSTORE DUP2 PUSH1 0xA4 DUP5 ADD MSTORE GAS CALL DUP1 ISZERO PUSH2 0xD19 JUMPI PUSH2 0xCF2 JUMPI JUMPDEST POP PUSH2 0xCAF SWAP1 DUP7 PUSH32 0x3AEC2738D4ED5144AD8B9585E1B0D8726E0BAB20FBB7C1FEAC0C64226F2CFC2F PUSH2 0xC8B PUSH2 0xC3C PUSH1 0x0 DUP1 MLOAD PUSH1 0x20 PUSH2 0x1ED2 DUP4 CODECOPY DUP2 MLOAD SWAP2 MSTORE SWAP9 SWAP10 SWAP11 PUSH2 0x1D63 JUMP JUMPDEST DUP5 SLOAD DUP2 GT PUSH2 0xCEA JUMPI PUSH2 0xC4F DUP2 DUP7 SLOAD PUSH2 0x1C69 JUMP JUMPDEST DUP6 SSTORE JUMPDEST DUP11 PUSH1 0x1 DUP7 ADD SWAP8 DUP9 SLOAD PUSH1 0x64 DUP2 LT PUSH2 0xCB9 JUMPI JUMPDEST POP TIMESTAMP PUSH1 0x2 DUP9 ADD SSTORE DUP7 ADD SSTORE DUP8 MLOAD DUP11 DUP2 MSTORE PUSH1 0x20 DUP2 ADD SWAP5 SWAP1 SWAP5 MSTORE PUSH1 0x40 DUP5 ADD MSTORE CALLER SWAP3 SWAP1 DUP2 SWAP1 PUSH1 0x60 DUP3 ADD SWAP1 JUMP JUMPDEST SUB SWAP1 LOG2 SLOAD SWAP2 SLOAD SWAP3 MLOAD SWAP3 DUP4 SWAP3 CALLER SWAP7 DUP5 PUSH1 0x40 SWAP2 SWAP5 SWAP4 SWAP3 PUSH1 0x60 DUP3 ADD SWAP6 DUP3 MSTORE PUSH1 0x20 DUP3 ADD MSTORE ADD MSTORE JUMP JUMPDEST SUB SWAP1 LOG2 PUSH1 0x1 DUP1 SSTORE DUP1 RETURN JUMPDEST DUP4 PUSH1 0x1 SHR PUSH1 0x64 PUSH2 0xCC9 DUP3 DUP5 PUSH2 0x1C8C JUMP JUMPDEST GT ISZERO PUSH2 0xCDC JUMPI POP POP PUSH1 0x64 JUMPDEST DUP10 SSTORE DUP14 PUSH2 0xC63 JUMP JUMPDEST PUSH2 0xCE5 SWAP2 PUSH2 0x1C8C JUMP JUMPDEST PUSH2 0xCD4 JUMP JUMPDEST DUP11 DUP6 SSTORE PUSH2 0xC52 JUMP JUMPDEST SWAP1 PUSH1 0x0 DUP1 MLOAD PUSH1 0x20 PUSH2 0x1ED2 DUP4 CODECOPY DUP2 MLOAD SWAP2 MSTORE SWAP5 SWAP6 PUSH2 0xD10 PUSH2 0xCAF SWAP4 PUSH2 0x1B7C JUMP JUMPDEST SWAP6 SWAP5 POP SWAP1 PUSH2 0xBF8 JUMP JUMPDEST DUP5 MLOAD RETURNDATASIZE DUP9 DUP3 RETURNDATACOPY RETURNDATASIZE SWAP1 REVERT JUMPDEST DUP6 DUP1 REVERT JUMPDEST SWAP1 POP PUSH1 0x64 SWAP3 MLOAD SWAP2 PUSH3 0x461BCD PUSH1 0xE5 SHL DUP4 MSTORE DUP3 ADD MSTORE PUSH1 0x1E PUSH1 0x24 DUP3 ADD MSTORE PUSH32 0x506F6D6F646F726F47616D653A206974656D206973206E6F7420666F6F640000 PUSH1 0x44 DUP3 ADD MSTORE REVERT JUMPDEST PUSH2 0xD89 SWAP2 POP DUP4 RETURNDATASIZE DUP6 GT PUSH2 0xD8F JUMPI JUMPDEST PUSH2 0xD81 DUP2 DUP4 PUSH2 0x1B90 JUMP JUMPDEST DUP2 ADD SWAP1 PUSH2 0x1CC4 JUMP JUMPDEST DUP10 PUSH2 0xB81 JUMP JUMPDEST POP RETURNDATASIZE PUSH2 0xD77 JUMP JUMPDEST SWAP1 POP PUSH1 0x64 SWAP3 MLOAD SWAP2 PUSH3 0x461BCD PUSH1 0xE5 SHL DUP4 MSTORE DUP3 ADD MSTORE PUSH1 0x1F PUSH1 0x24 DUP3 ADD MSTORE PUSH32 0x506F6D6F646F726F47616D653A206E6F20666F6F6420617661696C61626C6500 PUSH1 0x44 DUP3 ADD MSTORE REVERT JUMPDEST SWAP1 POP DUP2 DUP2 DUP2 RETURNDATASIZE DUP4 GT PUSH2 0xDFE JUMPI JUMPDEST PUSH2 0xDEF DUP2 DUP4 PUSH2 0x1B90 JUMP JUMPDEST DUP2 ADD SUB SLT PUSH2 0x64A JUMPI MLOAD DUP9 PUSH2 0xB4F JUMP JUMPDEST POP RETURNDATASIZE PUSH2 0xDE5 JUMP JUMPDEST PUSH2 0xE25 SWAP2 POP DUP5 RETURNDATASIZE DUP7 GT PUSH2 0xE2B JUMPI JUMPDEST PUSH2 0xE1D DUP2 DUP4 PUSH2 0x1B90 JUMP JUMPDEST DUP2 ADD SWAP1 PUSH2 0x1BB2 JUMP JUMPDEST DUP10 PUSH2 0xB08 JUMP JUMPDEST POP RETURNDATASIZE PUSH2 0xE13 JUMP JUMPDEST SWAP1 POP CALLVALUE PUSH2 0x23C JUMPI PUSH1 0x20 CALLDATASIZE PUSH1 0x3 NOT ADD SLT PUSH2 0x23C JUMPI DUP1 CALLDATALOAD SWAP2 PUSH2 0xE50 PUSH2 0x1EA5 JUMP JUMPDEST PUSH1 0x64 DUP4 GT PUSH2 0xE60 JUMPI POP POP PUSH1 0x9 SSTORE DUP1 RETURN JUMPDEST SWAP1 PUSH1 0x20 PUSH1 0x84 SWAP3 MLOAD SWAP2 PUSH3 0x461BCD PUSH1 0xE5 SHL DUP4 MSTORE DUP3 ADD MSTORE PUSH1 0x22 PUSH1 0x24 DUP3 ADD MSTORE PUSH32 0x506F6D6F646F726F47616D653A20726577617264207261746520746F6F206869 PUSH1 0x44 DUP3 ADD MSTORE PUSH2 0xCED PUSH1 0xF3 SHL PUSH1 0x64 DUP3 ADD MSTORE REVERT JUMPDEST POP POP CALLVALUE PUSH2 0x1A7 JUMPI DUP2 PUSH1 0x3 NOT CALLDATASIZE ADD SLT PUSH2 0x1A7 JUMPI PUSH1 0x20 SWAP1 MLOAD PUSH4 0x1E13380 DUP2 MSTORE RETURN JUMPDEST DUP4 DUP4 CALLVALUE PUSH2 0x1A7 JUMPI PUSH1 0x20 SWAP1 DUP2 PUSH1 0x3 NOT CALLDATASIZE ADD SLT PUSH2 0x23C JUMPI DUP4 CALLDATALOAD SWAP2 PUSH2 0xEED PUSH2 0x1E64 JUMP JUMPDEST PUSH2 0xEF5 PUSH2 0x1E82 JUMP JUMPDEST PUSH2 0xF00 DUP4 ISZERO ISZERO PUSH2 0x1DAC JUMP JUMPDEST PUSH1 0x2 SLOAD DUP3 MLOAD PUSH4 0x70A08231 PUSH1 0xE0 SHL DUP2 MSTORE CALLER DUP2 DUP9 ADD MSTORE PUSH1 0x8 SWAP2 SWAP1 SWAP2 SHR PUSH1 0x1 PUSH1 0x1 PUSH1 0xA0 SHL SUB AND SWAP6 SWAP1 DUP3 DUP2 PUSH1 0x24 DUP2 DUP11 GAS STATICCALL DUP1 ISZERO PUSH2 0xD19 JUMPI DUP6 SWAP1 DUP8 SWAP1 PUSH2 0x107E JUMPI JUMPDEST PUSH2 0xF48 SWAP3 POP LT ISZERO PUSH2 0x1E0C JUMP JUMPDEST CALLER DUP6 MSTORE PUSH1 0x8 DUP3 MSTORE PUSH1 0xFF PUSH1 0x2 DUP5 DUP8 KECCAK256 ADD SLOAD AND PUSH2 0x103D JUMPI DUP5 SWAP6 PUSH1 0x64 DUP4 SWAP3 DUP6 MLOAD SWAP8 DUP9 SWAP4 DUP5 SWAP3 PUSH4 0x23B872DD PUSH1 0xE0 SHL DUP5 MSTORE CALLER SWAP1 DUP5 ADD MSTORE ADDRESS PUSH1 0x24 DUP5 ADD MSTORE DUP9 PUSH1 0x44 DUP5 ADD MSTORE GAS CALL SWAP4 DUP5 ISZERO PUSH2 0x1033 JUMPI PUSH32 0x1449C6DD7851ABC30ABF37F57715F492010519147CC2652FBC38202C18A6EE90 SWAP4 SWAP5 PUSH2 0x1016 JUMPI JUMPDEST POP PUSH2 0x1002 DUP3 MLOAD PUSH2 0xFC5 DUP2 PUSH2 0x1B4A JUMP JUMPDEST DUP6 DUP2 MSTORE PUSH1 0x2 DUP4 DUP3 ADD TIMESTAMP DUP2 MSTORE DUP6 DUP4 ADD SWAP1 PUSH1 0x1 DUP3 MSTORE CALLER DUP11 MSTORE PUSH1 0x8 DUP7 MSTORE DUP7 DUP11 KECCAK256 SWAP4 MLOAD DUP5 SSTORE MLOAD PUSH1 0x1 DUP5 ADD SSTORE MLOAD ISZERO ISZERO SWAP2 ADD SWAP1 PUSH1 0xFF DUP1 NOT DUP4 SLOAD AND SWAP2 ISZERO ISZERO AND OR SWAP1 SSTORE JUMP JUMPDEST DUP2 MLOAD SWAP4 DUP5 MSTORE TIMESTAMP SWAP1 DUP5 ADD MSTORE CALLER SWAP3 LOG2 PUSH1 0x1 DUP1 SSTORE DUP1 RETURN JUMPDEST PUSH2 0x102C SWAP1 DUP3 RETURNDATASIZE DUP5 GT PUSH2 0xA56 JUMPI PUSH2 0xA46 DUP2 DUP4 PUSH2 0x1B90 JUMP JUMPDEST POP DUP6 PUSH2 0xFB6 JUMP JUMPDEST DUP3 MLOAD RETURNDATASIZE DUP8 DUP3 RETURNDATACOPY RETURNDATASIZE SWAP1 REVERT JUMPDEST SWAP2 MLOAD PUSH3 0x461BCD PUSH1 0xE5 SHL DUP2 MSTORE SWAP2 DUP3 ADD MSTORE PUSH1 0x1D PUSH1 0x24 DUP3 ADD MSTORE PUSH32 0x506F6D6F646F726F47616D653A20616C7265616479207374616B696E67000000 PUSH1 0x44 DUP3 ADD MSTORE PUSH1 0x64 SWAP1 REVERT JUMPDEST POP POP DUP3 DUP2 DUP2 RETURNDATASIZE DUP4 GT PUSH2 0x10A8 JUMPI JUMPDEST PUSH2 0x1095 DUP2 DUP4 PUSH2 0x1B90 JUMP JUMPDEST DUP2 ADD SUB SLT PUSH2 0xD23 JUMPI DUP5 PUSH2 0xF48 SWAP2 MLOAD PUSH2 0xF3C JUMP JUMPDEST POP RETURNDATASIZE PUSH2 0x108B JUMP JUMPDEST POP POP CALLVALUE PUSH2 0x1A7 JUMPI DUP2 PUSH1 0x3 NOT CALLDATASIZE ADD SLT PUSH2 0x1A7 JUMPI PUSH1 0x2 SLOAD SWAP1 MLOAD PUSH1 0x8 SWAP2 SWAP1 SWAP2 SHR PUSH1 0x1 PUSH1 0x1 PUSH1 0xA0 SHL SUB AND DUP2 MSTORE PUSH1 0x20 SWAP1 RETURN JUMPDEST POP POP CALLVALUE PUSH2 0x1A7 JUMPI DUP2 PUSH1 0x3 NOT CALLDATASIZE ADD SLT PUSH2 0x1A7 JUMPI SWAP1 SLOAD SWAP1 MLOAD PUSH1 0x1 PUSH1 0x1 PUSH1 0xA0 SHL SUB SWAP1 SWAP2 AND DUP2 MSTORE PUSH1 0x20 SWAP1 RETURN JUMPDEST POP POP CALLVALUE PUSH2 0x1A7 JUMPI DUP2 PUSH1 0x3 NOT CALLDATASIZE ADD SLT PUSH2 0x1A7 JUMPI PUSH1 0x20 PUSH32 0x62E78CEA01BEE320CD4E420270B5EA74000D11B0C9F74754EBDBFC544B05A258 SWAP2 PUSH2 0x1142 PUSH2 0x1EA5 JUMP JUMPDEST PUSH2 0x114A PUSH2 0x1E64 JUMP JUMPDEST PUSH1 0x1 PUSH1 0xFF NOT PUSH1 0x2 SLOAD AND OR PUSH1 0x2 SSTORE MLOAD CALLER DUP2 MSTORE LOG1 DUP1 RETURN JUMPDEST SWAP2 SWAP1 POP CALLVALUE PUSH2 0x23C JUMPI DUP1 PUSH1 0x3 NOT CALLDATASIZE ADD SLT PUSH2 0x23C JUMPI PUSH1 0xA0 SWAP3 DUP2 SWAP1 PUSH1 0x1 PUSH1 0x1 PUSH1 0xA0 SHL SUB PUSH2 0x1187 PUSH2 0x1B1E JUMP JUMPDEST AND DUP2 MSTORE PUSH1 0x7 PUSH1 0x20 MSTORE DUP2 DUP2 KECCAK256 PUSH1 0x24 CALLDATALOAD DUP3 MSTORE PUSH1 0x20 MSTORE KECCAK256 DUP1 SLOAD SWAP3 PUSH1 0x1 DUP3 ADD SLOAD SWAP3 PUSH1 0x2 DUP4 ADD SLOAD SWAP2 PUSH1 0xFF PUSH1 0x3 DUP6 ADD SLOAD AND SWAP4 ADD SLOAD SWAP4 DUP2 MLOAD SWAP6 DUP7 MSTORE PUSH1 0x20 DUP7 ADD MSTORE DUP5 ADD MSTORE ISZERO ISZERO PUSH1 0x60 DUP4 ADD MSTORE PUSH1 0x80 DUP3 ADD MSTORE RETURN JUMPDEST DUP3 DUP5 CALLVALUE PUSH2 0x11F8 JUMPI PUSH1 0x20 CALLDATASIZE PUSH1 0x3 NOT ADD SLT PUSH2 0x11F8 JUMPI POP PUSH2 0x11F1 PUSH1 0x20 SWAP3 CALLDATALOAD PUSH2 0x1D63 JUMP JUMPDEST SWAP1 MLOAD SWAP1 DUP2 MSTORE RETURN JUMPDEST DUP1 REVERT JUMPDEST POP POP CALLVALUE PUSH2 0x1A7 JUMPI PUSH1 0x20 CALLDATASIZE PUSH1 0x3 NOT ADD SLT PUSH2 0x1A7 JUMPI PUSH1 0x20 SWAP1 PUSH2 0x11F1 PUSH2 0x121C PUSH2 0x1B1E JUMP JUMPDEST PUSH2 0x1CDD JUMP JUMPDEST DUP4 CALLVALUE PUSH2 0x11F8 JUMPI DUP1 PUSH1 0x3 NOT CALLDATASIZE ADD SLT PUSH2 0x11F8 JUMPI PUSH2 0x123A PUSH2 0x1EA5 JUMP JUMPDEST DUP1 SLOAD PUSH1 0x1 PUSH1 0x1 PUSH1 0xA0 SHL SUB NOT DUP2 AND DUP3 SSTORE DUP2 SWAP1 PUSH1 0x1 PUSH1 0x1 PUSH1 0xA0 SHL SUB AND PUSH32 0x8BE0079C531659141344CD1FD0A4F28419497F9722A3DAAFE3B4186F6B6457E0 DUP3 DUP1 LOG3 DUP1 RETURN JUMPDEST SWAP1 POP CALLVALUE PUSH2 0x23C JUMPI DUP3 PUSH1 0x3 NOT CALLDATASIZE ADD SLT PUSH2 0x23C JUMPI SLOAD SWAP1 MLOAD PUSH1 0x1 PUSH1 0x1 PUSH1 0xA0 SHL SUB SWAP1 SWAP2 AND DUP2 MSTORE PUSH1 0x20 SWAP2 POP RETURN JUMPDEST POP POP CALLVALUE PUSH2 0x1A7 JUMPI DUP2 PUSH1 0x3 NOT CALLDATASIZE ADD SLT PUSH2 0x1A7 JUMPI PUSH1 0x20 SWAP1 PUSH1 0xFF PUSH1 0x2 SLOAD AND SWAP1 MLOAD SWAP1 ISZERO ISZERO DUP2 MSTORE RETURN JUMPDEST POP POP CALLVALUE PUSH2 0x1A7 JUMPI DUP2 PUSH1 0x3 NOT CALLDATASIZE ADD SLT PUSH2 0x1A7 JUMPI PUSH1 0x20 SWAP1 PUSH1 0x9 SLOAD SWAP1 MLOAD SWAP1 DUP2 MSTORE RETURN JUMPDEST DUP4 DUP4 CALLVALUE PUSH2 0x1A7 JUMPI PUSH2 0x12F6 CALLDATASIZE PUSH2 0x1B34 JUMP JUMPDEST PUSH2 0x1301 SWAP3 SWAP2 SWAP3 PUSH2 0x1E64 JUMP JUMPDEST PUSH2 0x1309 PUSH2 0x1E82 JUMP JUMPDEST PUSH1 0x3 SLOAD DUP3 MLOAD PUSH4 0x31A9108F PUSH1 0xE1 SHL DUP2 MSTORE DUP7 DUP2 ADD DUP6 SWAP1 MSTORE PUSH1 0x20 SWAP3 SWAP2 PUSH1 0x1 PUSH1 0x1 PUSH1 0xA0 SHL SUB SWAP2 SWAP1 DUP5 SWAP1 DUP3 SWAP1 PUSH1 0x24 SWAP1 DUP3 SWAP1 DUP7 AND GAS STATICCALL SWAP1 DUP2 ISZERO PUSH2 0x627 JUMPI SWAP1 PUSH2 0x1355 SWAP2 DUP9 SWAP2 PUSH2 0x155C JUMPI POP DUP3 AND CALLER EQ PUSH2 0x1BD1 JUMP JUMPDEST DUP7 SLOAD DUP5 MLOAD PUSH3 0x7EEAC7 PUSH1 0xE1 SHL DUP2 MSTORE CALLER DUP2 DUP11 ADD SWAP1 DUP2 MSTORE PUSH1 0x20 DUP2 ADD DUP6 SWAP1 MSTORE SWAP3 SWAP1 SWAP2 AND SWAP3 SWAP2 DUP5 SWAP1 DUP3 SWAP1 DUP2 SWAP1 PUSH1 0x40 ADD SUB DUP2 DUP7 GAS STATICCALL SWAP1 DUP2 ISZERO PUSH2 0x627 JUMPI DUP8 SWAP2 PUSH2 0x152F JUMPI JUMPDEST POP ISZERO PUSH2 0x14EC JUMPI DUP3 SWAP1 PUSH1 0x24 DUP6 MLOAD DUP1 SWAP5 DUP2 SWAP4 PUSH4 0xC19A4EF5 PUSH1 0xE0 SHL DUP4 MSTORE DUP12 DUP4 ADD MSTORE GAS STATICCALL SWAP1 DUP2 ISZERO PUSH2 0x14E2 JUMPI PUSH1 0x1 SWAP2 PUSH1 0xFF SWAP2 DUP8 SWAP2 PUSH2 0x14C5 JUMPI JUMPDEST POP AND SUB PUSH2 0x1483 JUMPI CALLER DUP5 MSTORE PUSH1 0x7 DUP2 MSTORE DUP2 DUP5 KECCAK256 SWAP1 DUP4 DUP6 MSTORE MSTORE DUP1 DUP4 KECCAK256 PUSH2 0x13EF PUSH1 0xFF PUSH1 0x3 DUP4 ADD SLOAD AND PUSH2 0x1C1D JUMP JUMPDEST PUSH1 0x1 DUP2 ADD SWAP1 DUP2 SLOAD PUSH1 0x64 DUP2 LT PUSH2 0x142E JUMPI JUMPDEST POP SLOAD SWAP1 SLOAD SWAP2 MLOAD SWAP3 DUP4 MSTORE PUSH1 0x20 DUP4 ADD MSTORE PUSH1 0x40 DUP3 ADD MSTORE CALLER SWAP1 PUSH1 0x0 DUP1 MLOAD PUSH1 0x20 PUSH2 0x1ED2 DUP4 CODECOPY DUP2 MLOAD SWAP2 MSTORE SWAP1 DUP1 PUSH1 0x60 DUP2 ADD PUSH2 0xCAF JUMP JUMPDEST PUSH1 0xA DUP2 ADD DUP1 SWAP2 GT PUSH2 0x1470 JUMPI SWAP5 SWAP6 POP SWAP3 SWAP4 PUSH1 0x0 DUP1 MLOAD PUSH1 0x20 PUSH2 0x1ED2 DUP4 CODECOPY DUP2 MLOAD SWAP2 MSTORE SWAP4 PUSH2 0xCAF SWAP2 PUSH1 0x64 DUP2 GT ISZERO PUSH2 0x146B JUMPI POP PUSH1 0x64 JUMPDEST DUP4 SSTORE SWAP1 DUP7 SWAP6 SWAP5 POP PUSH2 0x13FF JUMP JUMPDEST PUSH2 0x145F JUMP JUMPDEST PUSH4 0x4E487B71 PUSH1 0xE0 SHL DUP7 MSTORE PUSH1 0x11 DUP8 MSTORE PUSH1 0x24 DUP7 REVERT JUMPDEST DUP5 SWAP1 PUSH1 0x64 SWAP3 MLOAD SWAP2 PUSH3 0x461BCD PUSH1 0xE5 SHL DUP4 MSTORE DUP3 ADD MSTORE PUSH1 0x1F PUSH1 0x24 DUP3 ADD MSTORE PUSH32 0x506F6D6F646F726F47616D653A206974656D206973206E6F74206120746F7900 PUSH1 0x44 DUP3 ADD MSTORE REVERT JUMPDEST PUSH2 0x14DC SWAP2 POP DUP5 RETURNDATASIZE DUP7 GT PUSH2 0xD8F JUMPI PUSH2 0xD81 DUP2 DUP4 PUSH2 0x1B90 JUMP JUMPDEST DUP9 PUSH2 0x13C6 JUMP JUMPDEST DUP4 MLOAD RETURNDATASIZE DUP8 DUP3 RETURNDATACOPY RETURNDATASIZE SWAP1 REVERT JUMPDEST DUP4 MLOAD PUSH3 0x461BCD PUSH1 0xE5 SHL DUP2 MSTORE DUP1 DUP9 ADD DUP5 SWAP1 MSTORE PUSH1 0x1E PUSH1 0x24 DUP3 ADD MSTORE PUSH32 0x506F6D6F646F726F47616D653A206E6F20746F7920617661696C61626C650000 PUSH1 0x44 DUP3 ADD MSTORE PUSH1 0x64 SWAP1 REVERT JUMPDEST SWAP1 POP DUP4 DUP2 DUP2 RETURNDATASIZE DUP4 GT PUSH2 0x1555 JUMPI JUMPDEST PUSH2 0x1546 DUP2 DUP4 PUSH2 0x1B90 JUMP JUMPDEST DUP2 ADD SUB SLT PUSH2 0x64A JUMPI MLOAD DUP9 PUSH2 0x1392 JUMP JUMPDEST POP RETURNDATASIZE PUSH2 0x153C JUMP JUMPDEST PUSH2 0xE25 SWAP2 POP DUP6 RETURNDATASIZE DUP8 GT PUSH2 0xE2B JUMPI PUSH2 0xE1D DUP2 DUP4 PUSH2 0x1B90 JUMP JUMPDEST SWAP1 POP CALLVALUE PUSH2 0x23C JUMPI DUP3 PUSH1 0x3 NOT CALLDATASIZE ADD SLT PUSH2 0x23C JUMPI PUSH2 0x158D PUSH2 0x1EA5 JUMP JUMPDEST PUSH1 0x2 SLOAD SWAP1 PUSH1 0xFF DUP3 AND ISZERO PUSH2 0x15CF JUMPI POP PUSH1 0xFF NOT AND PUSH1 0x2 SSTORE MLOAD CALLER DUP2 MSTORE PUSH32 0x5DB9EE0A495BF2E6FF9C91A7834C1BA4FDD244A5E8AA4E537BD38AEAE4B073AA SWAP1 PUSH1 0x20 SWAP1 LOG1 DUP1 RETURN JUMPDEST DUP3 MLOAD PUSH4 0x8DFC202B PUSH1 0xE0 SHL DUP2 MSTORE REVERT JUMPDEST POP POP CALLVALUE PUSH2 0x1A7 JUMPI DUP2 PUSH1 0x3 NOT CALLDATASIZE ADD SLT PUSH2 0x1A7 JUMPI PUSH1 0x20 SWAP1 MLOAD PUSH2 0x5DC DUP2 MSTORE RETURN JUMPDEST POP POP CALLVALUE PUSH2 0x1A7 JUMPI DUP2 PUSH1 0x3 NOT CALLDATASIZE ADD SLT PUSH2 0x1A7 JUMPI PUSH1 0x20 SWAP1 MLOAD PUSH8 0xDE0B6B3A7640000 DUP2 MSTORE RETURN JUMPDEST POP POP CALLVALUE PUSH2 0x1A7 JUMPI PUSH1 0x20 CALLDATASIZE PUSH1 0x3 NOT ADD SLT PUSH2 0x1A7 JUMPI PUSH1 0x20 SWAP2 DUP2 SWAP1 PUSH1 0x1 PUSH1 0x1 PUSH1 0xA0 SHL SUB PUSH2 0x1645 PUSH2 0x1B1E JUMP JUMPDEST AND DUP2 MSTORE PUSH1 0x6 DUP5 MSTORE KECCAK256 SLOAD SWAP1 MLOAD SWAP1 DUP2 MSTORE RETURN JUMPDEST DUP4 DUP4 CALLVALUE PUSH2 0x1A7 JUMPI DUP2 PUSH1 0x3 NOT CALLDATASIZE ADD SLT PUSH2 0x1A7 JUMPI PUSH2 0x166F PUSH2 0x1E64 JUMP JUMPDEST PUSH2 0x1677 PUSH2 0x1E82 JUMP JUMPDEST CALLER DUP3 MSTORE PUSH1 0x20 SWAP1 PUSH1 0x8 DUP3 MSTORE DUP1 DUP4 KECCAK256 PUSH1 0x2 DUP2 ADD SWAP1 DUP2 SLOAD SWAP6 PUSH1 0xFF DUP8 AND ISZERO PUSH2 0x1807 JUMPI PUSH1 0x1 DUP3 ADD PUSH2 0x16A4 DUP2 SLOAD TIMESTAMP PUSH2 0x1C69 JUMP JUMPDEST PUSH3 0x15180 DUP2 LT PUSH2 0x17AD JUMPI SWAP2 DUP8 PUSH2 0x1735 SWAP9 SWAP10 SWAP3 PUSH4 0x1E13380 DUP10 SWAP6 DIV SWAP7 PUSH1 0x1 DUP9 GT PUSH2 0x17A4 JUMPI JUMPDEST PUSH2 0x16EC PUSH1 0x64 PUSH2 0x16E4 DUP10 SLOAD SWAP11 PUSH2 0x16DF PUSH1 0x9 SLOAD DUP14 PUSH2 0x1C99 JUMP JUMPDEST PUSH2 0x1C99 JUMP JUMPDEST DIV DUP1 SWAP10 PUSH2 0x1C8C JUMP JUMPDEST PUSH1 0xFF NOT SWAP1 SWAP6 AND SWAP1 SSTORE DUP2 DUP7 SSTORE SSTORE PUSH1 0x2 SLOAD DUP7 MLOAD PUSH4 0xA9059CBB PUSH1 0xE0 SHL DUP2 MSTORE CALLER SWAP3 DUP2 ADD SWAP3 DUP4 MSTORE PUSH1 0x20 DUP4 ADD SWAP4 SWAP1 SWAP4 MSTORE SWAP2 SWAP8 DUP9 SWAP3 PUSH1 0x8 SHR PUSH1 0x1 PUSH1 0x1 PUSH1 0xA0 SHL SUB AND SWAP2 DUP4 SWAP2 DUP12 SWAP2 DUP4 SWAP2 PUSH1 0x40 SWAP1 SWAP2 ADD SWAP1 JUMP JUMPDEST SUB SWAP3 GAS CALL SWAP5 DUP6 ISZERO PUSH2 0x179A JUMPI PUSH32 0x7FC4727E062E336010F2C282598EF5F14FACB3DE68CF8195C2F23E1454B2B74E SWAP5 SWAP6 PUSH2 0x177D JUMPI JUMPDEST POP SLOAD SWAP4 DUP3 MLOAD SWAP5 DUP6 MSTORE DUP5 ADD MSTORE CALLER SWAP3 LOG2 PUSH1 0x1 DUP1 SSTORE DUP1 RETURN JUMPDEST PUSH2 0x1793 SWAP1 DUP7 RETURNDATASIZE DUP9 GT PUSH2 0xA56 JUMPI PUSH2 0xA46 DUP2 DUP4 PUSH2 0x1B90 JUMP JUMPDEST POP DUP7 PUSH2 0x1768 JUMP JUMPDEST DUP4 MLOAD RETURNDATASIZE DUP9 DUP3 RETURNDATACOPY RETURNDATASIZE SWAP1 REVERT JUMPDEST PUSH1 0x1 SWAP8 POP PUSH2 0x16C8 JUMP JUMPDEST DUP6 MLOAD PUSH3 0x461BCD PUSH1 0xE5 SHL DUP2 MSTORE DUP1 DUP5 ADD DUP9 SWAP1 MSTORE PUSH1 0x2E PUSH1 0x24 DUP3 ADD MSTORE PUSH32 0x506F6D6F646F726F47616D653A206D696E696D756D207374616B696E67206475 PUSH1 0x44 DUP3 ADD MSTORE PUSH14 0x1C985D1A5BDB881B9BDD081B595D PUSH1 0x92 SHL PUSH1 0x64 DUP3 ADD MSTORE PUSH1 0x84 SWAP1 REVERT JUMPDEST DUP4 MLOAD PUSH3 0x461BCD PUSH1 0xE5 SHL DUP2 MSTORE SWAP1 DUP2 ADD DUP6 SWAP1 MSTORE PUSH1 0x1D PUSH1 0x24 DUP3 ADD MSTORE PUSH32 0x506F6D6F646F726F47616D653A206E6F20616374697665207374616B65000000 PUSH1 0x44 DUP3 ADD MSTORE PUSH1 0x64 SWAP1 REVERT JUMPDEST POP POP CALLVALUE PUSH2 0x1A7 JUMPI PUSH1 0x20 CALLDATASIZE PUSH1 0x3 NOT ADD SLT PUSH2 0x1A7 JUMPI PUSH1 0x60 SWAP2 DUP2 SWAP1 PUSH1 0x1 PUSH1 0x1 PUSH1 0xA0 SHL SUB PUSH2 0x1872 PUSH2 0x1B1E JUMP JUMPDEST AND DUP2 MSTORE PUSH1 0x8 PUSH1 0x20 MSTORE KECCAK256 SWAP1 DUP2 SLOAD SWAP2 PUSH1 0xFF PUSH1 0x2 PUSH1 0x1 DUP4 ADD SLOAD SWAP3 ADD SLOAD AND SWAP1 DUP3 MLOAD SWAP4 DUP5 MSTORE PUSH1 0x20 DUP5 ADD MSTORE ISZERO ISZERO SWAP1 DUP3 ADD MSTORE RETURN JUMPDEST DUP4 SWAP2 POP CALLVALUE PUSH2 0x1A7 JUMPI PUSH1 0x20 SWAP3 DUP4 PUSH1 0x3 NOT CALLDATASIZE ADD SLT PUSH2 0x23C JUMPI DUP2 CALLDATALOAD SWAP2 PUSH2 0x18C0 PUSH2 0x1E64 JUMP JUMPDEST PUSH2 0x18C8 PUSH2 0x1E82 JUMP JUMPDEST PUSH1 0x3 SLOAD DUP3 MLOAD PUSH4 0x31A9108F PUSH1 0xE1 SHL DUP2 MSTORE DUP3 DUP2 ADD DUP6 SWAP1 MSTORE SWAP1 PUSH1 0x1 PUSH1 0x1 PUSH1 0xA0 SHL SUB SWAP1 DUP8 SWAP1 DUP4 SWAP1 PUSH1 0x24 SWAP1 DUP3 SWAP1 DUP6 AND GAS STATICCALL SWAP2 DUP3 ISZERO PUSH2 0xD19 JUMPI SWAP1 PUSH2 0x1911 SWAP3 SWAP2 DUP8 SWAP3 PUSH2 0x1ADA JUMPI JUMPDEST POP AND CALLER EQ PUSH2 0x1BD1 JUMP JUMPDEST CALLER DUP5 MSTORE PUSH1 0x7 DUP6 MSTORE DUP2 DUP5 KECCAK256 DUP4 DUP6 MSTORE DUP6 MSTORE DUP2 DUP5 KECCAK256 PUSH1 0x3 DUP2 ADD SWAP6 DUP7 SLOAD SWAP7 PUSH2 0x1937 PUSH1 0xFF DUP10 AND PUSH2 0x1C1D JUMP JUMPDEST PUSH2 0x1945 PUSH1 0x2 DUP5 ADD SLOAD TIMESTAMP PUSH2 0x1C69 JUMP JUMPDEST SWAP8 PUSH2 0xE10 PUSH3 0x15180 DUP11 DIV SWAP10 DUP11 DUP8 DUP8 ADD SSTORE DIV DUP1 ISZERO ISZERO DUP1 PUSH2 0x1ACF JUMPI JUMPDEST PUSH2 0x1A9F JUMPI JUMPDEST POP DUP4 SLOAD SWAP5 PUSH1 0x46 DUP7 GT DUP1 PUSH2 0x1A92 JUMPI JUMPDEST PUSH2 0x1A0C JUMPI JUMPDEST POP SWAP2 PUSH2 0xCAF SWAP4 SWAP2 PUSH1 0x1 SWAP4 PUSH1 0x0 DUP1 MLOAD PUSH1 0x20 PUSH2 0x1ED2 DUP4 CODECOPY DUP2 MLOAD SWAP2 MSTORE SWAP9 SWAP10 SWAP11 PUSH1 0x64 DUP9 LT ISZERO SWAP1 DUP2 PUSH2 0x1A00 JUMPI JUMPDEST POP PUSH2 0x19C8 JUMPI JUMPDEST POP POP POP ADD SLOAD SWAP3 MLOAD SWAP3 DUP4 SWAP3 CALLER SWAP7 DUP5 PUSH1 0x40 SWAP2 SWAP5 SWAP4 SWAP3 PUSH1 0x60 DUP3 ADD SWAP6 DUP3 MSTORE PUSH1 0x20 DUP3 ADD MSTORE ADD MSTORE JUMP JUMPDEST PUSH1 0xFF NOT AND SWAP1 SSTORE DUP6 MLOAD DUP9 DUP2 MSTORE CALLER SWAP2 PUSH32 0x2F8EDA2B6116C4C6B8F5FBF8297DE6070B86D678C8AE4DB8A79376FFE50F6653 SWAP2 LOG2 DUP9 DUP1 DUP1 PUSH2 0x19A5 JUMP JUMPDEST PUSH1 0x3 SWAP2 POP LT ISZERO DUP13 PUSH2 0x199F JUMP JUMPDEST PUSH1 0x1 DUP6 ADD DUP1 SLOAD SWAP2 SWAP11 SWAP2 PUSH1 0x5 DUP2 LT PUSH2 0x1A6C JUMPI PUSH1 0x4 NOT DUP2 ADD SWAP1 DUP2 GT PUSH2 0x1A59 JUMPI PUSH1 0x0 DUP1 MLOAD PUSH1 0x20 PUSH2 0x1ED2 DUP4 CODECOPY DUP2 MLOAD SWAP2 MSTORE SWAP10 SWAP11 SWAP12 POP SWAP2 PUSH1 0x1 SWAP6 SWAP4 SWAP2 PUSH2 0xCAF SWAP8 SWAP6 SWAP4 SWAP1 JUMPDEST SSTORE SWAP11 SWAP10 SWAP9 POP SWAP2 SWAP4 POP SWAP2 SWAP4 PUSH2 0x1977 JUMP JUMPDEST PUSH4 0x4E487B71 PUSH1 0xE0 SHL DUP12 MSTORE PUSH1 0x11 DUP13 MSTORE PUSH1 0x24 DUP12 REVERT JUMPDEST POP DUP10 SWAP11 POP SWAP2 PUSH2 0xCAF SWAP6 SWAP4 SWAP2 PUSH1 0x1 SWAP6 SWAP4 PUSH1 0x0 DUP1 MLOAD PUSH1 0x20 PUSH2 0x1ED2 DUP4 CODECOPY DUP2 MLOAD SWAP2 MSTORE SWAP11 SWAP12 SWAP1 PUSH2 0x1A4A JUMP JUMPDEST POP PUSH1 0x1 DUP6 ADD SLOAD ISZERO ISZERO PUSH2 0x1972 JUMP JUMPDEST DUP5 SLOAD SWAP1 PUSH1 0x64 PUSH2 0x1AAE DUP3 DUP5 PUSH2 0x1C8C JUMP JUMPDEST GT ISZERO PUSH2 0x1AC1 JUMPI POP POP PUSH1 0x64 JUMPDEST DUP5 SSTORE DUP10 PUSH2 0x1964 JUMP JUMPDEST PUSH2 0x1ACA SWAP2 PUSH2 0x1C8C JUMP JUMPDEST PUSH2 0x1AB9 JUMP JUMPDEST POP PUSH1 0x64 DUP6 SLOAD LT PUSH2 0x195F JUMP JUMPDEST PUSH2 0x1AF2 SWAP2 SWAP3 POP DUP9 RETURNDATASIZE DUP11 GT PUSH2 0xE2B JUMPI PUSH2 0xE1D DUP2 DUP4 PUSH2 0x1B90 JUMP JUMPDEST SWAP1 DUP9 PUSH2 0x1908 JUMP JUMPDEST DUP5 SWAP1 CALLVALUE PUSH2 0x1A7 JUMPI DUP2 PUSH1 0x3 NOT CALLDATASIZE ADD SLT PUSH2 0x1A7 JUMPI PUSH1 0x3 SLOAD PUSH1 0x1 PUSH1 0x1 PUSH1 0xA0 SHL SUB AND DUP2 MSTORE PUSH1 0x20 SWAP1 RETURN JUMPDEST PUSH1 0x4 CALLDATALOAD SWAP1 PUSH1 0x1 PUSH1 0x1 PUSH1 0xA0 SHL SUB DUP3 AND DUP3 SUB PUSH2 0x61B JUMPI JUMP JUMPDEST PUSH1 0x40 SWAP1 PUSH1 0x3 NOT ADD SLT PUSH2 0x61B JUMPI PUSH1 0x4 CALLDATALOAD SWAP1 PUSH1 0x24 CALLDATALOAD SWAP1 JUMP JUMPDEST PUSH1 0x60 DUP2 ADD SWAP1 DUP2 LT PUSH8 0xFFFFFFFFFFFFFFFF DUP3 GT OR PUSH2 0x1B66 JUMPI PUSH1 0x40 MSTORE JUMP JUMPDEST PUSH4 0x4E487B71 PUSH1 0xE0 SHL PUSH1 0x0 MSTORE PUSH1 0x41 PUSH1 0x4 MSTORE PUSH1 0x24 PUSH1 0x0 REVERT JUMPDEST PUSH8 0xFFFFFFFFFFFFFFFF DUP2 GT PUSH2 0x1B66 JUMPI PUSH1 0x40 MSTORE JUMP JUMPDEST SWAP1 PUSH1 0x1F DUP1 NOT SWAP2 ADD AND DUP2 ADD SWAP1 DUP2 LT PUSH8 0xFFFFFFFFFFFFFFFF DUP3 GT OR PUSH2 0x1B66 JUMPI PUSH1 0x40 MSTORE JUMP JUMPDEST SWAP1 DUP2 PUSH1 0x20 SWAP2 SUB SLT PUSH2 0x61B JUMPI MLOAD PUSH1 0x1 PUSH1 0x1 PUSH1 0xA0 SHL SUB DUP2 AND DUP2 SUB PUSH2 0x61B JUMPI SWAP1 JUMP JUMPDEST ISZERO PUSH2 0x1BD8 JUMPI JUMP JUMPDEST PUSH1 0x40 MLOAD PUSH3 0x461BCD PUSH1 0xE5 SHL DUP2 MSTORE PUSH1 0x20 PUSH1 0x4 DUP3 ADD MSTORE PUSH1 0x1A PUSH1 0x24 DUP3 ADD MSTORE PUSH32 0x506F6D6F646F726F47616D653A206E6F7420796F757220636174000000000000 PUSH1 0x44 DUP3 ADD MSTORE PUSH1 0x64 SWAP1 REVERT JUMPDEST ISZERO PUSH2 0x1C24 JUMPI JUMP JUMPDEST PUSH1 0x40 MLOAD PUSH3 0x461BCD PUSH1 0xE5 SHL DUP2 MSTORE PUSH1 0x20 PUSH1 0x4 DUP3 ADD MSTORE PUSH1 0x19 PUSH1 0x24 DUP3 ADD MSTORE PUSH32 0x506F6D6F646F726F47616D653A20636174206973206465616400000000000000 PUSH1 0x44 DUP3 ADD MSTORE PUSH1 0x64 SWAP1 REVERT JUMPDEST SWAP2 SWAP1 DUP3 SUB SWAP2 DUP3 GT PUSH2 0x1C76 JUMPI JUMP JUMPDEST PUSH4 0x4E487B71 PUSH1 0xE0 SHL PUSH1 0x0 MSTORE PUSH1 0x11 PUSH1 0x4 MSTORE PUSH1 0x24 PUSH1 0x0 REVERT JUMPDEST SWAP2 SWAP1 DUP3 ADD DUP1 SWAP3 GT PUSH2 0x1C76 JUMPI JUMP JUMPDEST DUP2 DUP2 MUL SWAP3 SWAP2 DUP2 ISZERO SWAP2 DUP5 DIV EQ OR ISZERO PUSH2 0x1C76 JUMPI JUMP JUMPDEST SWAP1 DUP2 PUSH1 0x20 SWAP2 SUB SLT PUSH2 0x61B JUMPI MLOAD DUP1 ISZERO ISZERO DUP2 SUB PUSH2 0x61B JUMPI SWAP1 JUMP JUMPDEST SWAP1 DUP2 PUSH1 0x20 SWAP2 SUB SLT PUSH2 0x61B JUMPI MLOAD PUSH1 0xFF DUP2 AND DUP2 SUB PUSH2 0x61B JUMPI SWAP1 JUMP JUMPDEST PUSH1 0x1 DUP1 PUSH1 0xA0 SHL SUB AND PUSH1 0x0 MSTORE PUSH1 0x8 PUSH1 0x20 MSTORE PUSH1 0x40 PUSH1 0x0 KECCAK256 PUSH1 0x40 MLOAD SWAP1 PUSH2 0x1CFF DUP3 PUSH2 0x1B4A JUMP JUMPDEST DUP1 SLOAD DUP3 MSTORE PUSH1 0xFF PUSH1 0x2 PUSH1 0x1 DUP4 ADD SLOAD SWAP3 DUP4 PUSH1 0x20 DUP7 ADD MSTORE ADD SLOAD AND ISZERO DUP1 ISZERO PUSH1 0x40 DUP5 ADD MSTORE PUSH2 0x1D5C JUMPI PUSH1 0x64 SWAP2 PUSH4 0x1E13380 PUSH2 0x1D37 PUSH2 0x1D4F SWAP4 TIMESTAMP PUSH2 0x1C69 JUMP JUMPDEST DIV SWAP1 PUSH1 0x1 DUP3 GT PUSH2 0x1D53 JUMPI JUMPDEST MLOAD PUSH1 0x9 SLOAD PUSH2 0x16DF SWAP2 PUSH2 0x1C99 JUMP JUMPDEST DIV SWAP1 JUMP JUMPDEST PUSH1 0x1 SWAP2 POP PUSH2 0x1D42 JUMP JUMPDEST POP POP PUSH1 0x0 SWAP1 JUMP JUMPDEST PUSH1 0x1 DUP2 EQ PUSH2 0x1DA6 JUMPI PUSH1 0x2 DUP2 EQ PUSH2 0x1DA0 JUMPI PUSH1 0x3 DUP2 EQ PUSH2 0x1D9A JUMPI PUSH1 0x4 DUP2 EQ PUSH2 0x1D94 JUMPI PUSH1 0x5 EQ PUSH2 0x1D8F JUMPI PUSH1 0xA SWAP1 JUMP JUMPDEST PUSH1 0x1E SWAP1 JUMP JUMPDEST POP PUSH1 0xC SWAP1 JUMP JUMPDEST POP PUSH1 0x14 SWAP1 JUMP JUMPDEST POP PUSH1 0xF SWAP1 JUMP JUMPDEST POP PUSH1 0xA SWAP1 JUMP JUMPDEST ISZERO PUSH2 0x1DB3 JUMPI JUMP JUMPDEST PUSH1 0x40 MLOAD PUSH3 0x461BCD PUSH1 0xE5 SHL DUP2 MSTORE PUSH1 0x20 PUSH1 0x4 DUP3 ADD MSTORE PUSH1 0x2B PUSH1 0x24 DUP3 ADD MSTORE PUSH32 0x506F6D6F646F726F47616D653A20616D6F756E74206D75737420626520677265 PUSH1 0x44 DUP3 ADD MSTORE PUSH11 0x61746572207468616E203 PUSH1 0xAC SHL PUSH1 0x64 DUP3 ADD MSTORE PUSH1 0x84 SWAP1 REVERT JUMPDEST ISZERO PUSH2 0x1E13 JUMPI JUMP JUMPDEST PUSH1 0x40 MLOAD PUSH3 0x461BCD PUSH1 0xE5 SHL DUP2 MSTORE PUSH1 0x20 PUSH1 0x4 DUP3 ADD MSTORE PUSH1 0x24 DUP1 DUP3 ADD MSTORE PUSH32 0x506F6D6F646F726F47616D653A20696E73756666696369656E74204341542063 PUSH1 0x44 DUP3 ADD MSTORE PUSH4 0x6F696E73 PUSH1 0xE0 SHL PUSH1 0x64 DUP3 ADD MSTORE PUSH1 0x84 SWAP1 REVERT JUMPDEST PUSH1 0xFF PUSH1 0x2 SLOAD AND PUSH2 0x1E70 JUMPI JUMP JUMPDEST PUSH1 0x40 MLOAD PUSH4 0xD93C0665 PUSH1 0xE0 SHL DUP2 MSTORE PUSH1 0x4 SWAP1 REVERT JUMPDEST PUSH1 0x2 PUSH1 0x1 SLOAD EQ PUSH2 0x1E93 JUMPI PUSH1 0x2 PUSH1 0x1 SSTORE JUMP JUMPDEST PUSH1 0x40 MLOAD PUSH4 0x3EE5AEB5 PUSH1 0xE0 SHL DUP2 MSTORE PUSH1 0x4 SWAP1 REVERT JUMPDEST PUSH1 0x0 SLOAD PUSH1 0x1 PUSH1 0x1 PUSH1 0xA0 SHL SUB AND CALLER SUB PUSH2 0x1EB9 JUMPI JUMP JUMPDEST PUSH1 0x40 MLOAD PUSH4 0x118CDAA7 PUSH1 0xE0 SHL DUP2 MSTORE CALLER PUSH1 0x4 DUP3 ADD MSTORE PUSH1 0x24 SWAP1 REVERT INVALID 0xB7 CALLER 0xCE 0xA7 SWAP15 0xDA SWAP7 0xCC SHR MUL 0xA9 0xAA SWAP16 EXTCODEHASH 0xD4 0xDB 0xCF 0xD2 0xBB SUB 0xEF SGT 0xB4 STATICCALL BASEFEE 0xEE 0xAF SHR 0xBD 0x2E PUSH12 0xFEA2646970667358221220B5 0xA5 XOR CALLVALUE MOD PUSH10 0x633C4F41DF3BFF579FC3 0x25 CALLDATACOPY 0x23 TSTORE CODESIZE PUSH3 0xCDAF1C 0xC4 0xBD 0xEA 0xC9 SHR PUSH15 0xD464736F6C63430008180033000000 "},"methodIdentifiers":{"COINS_PER_SESSION()":"35fb21d6","MAX_STAKE_DURATION()":"aa902b4d","MIN_STAKE_DURATION()":"e0c570ba","SESSION_DURATION()":"3deaa341","catCoin()":"9c758891","catNFT()":"0daf1304","catStats(address,uint256)":"803df321","completeSession()":"f139bda8","completedSessions(address)":"2e1256fb","emergencyWithdraw()":"db2e21bc","feedCat(uint256,uint256)":"d42fd407","gameItem()":"5e8e9cd6","getFoodValue(uint256)":"7cc03014","getStakingReward(address)":"78f4d413","lastSessionTime(address)":"f5aea899","owner()":"8da5cb5b","pause()":"8456cb59","paused()":"5c975abb","playWithCat(uint256,uint256)":"42f28cea","purchaseCat(uint256)":"e07c896c","purchaseItem(uint256,uint256)":"e0675698","renounceOwnership()":"715018a6","setStakingRewardRate(uint256)":"b7d68519","stake(uint256)":"a694fc3a","stakes(address)":"16934fc4","stakingRewardRate()":"4f3fc2df","transferOwnership(address)":"f2fde38b","unpause()":"3f4ba83a","unstake()":"2def6620","updateCatStats(uint256)":"14a1d4f0"}},"storageLayout":{"storage":[{"astId":8,"contract":"contracts/PomodoroGame.sol:PomodoroGame","label":"_owner","offset":0,"slot":"0","type":"t_address"},{"astId":4811,"contract":"contracts/PomodoroGame.sol:PomodoroGame","label":"_status","offset":0,"slot":"1","type":"t_uint256"},{"astId":4701,"contract":"contracts/PomodoroGame.sol:PomodoroGame","label":"_paused","offset":0,"slot":"2","type":"t_bool"},{"astId":10784,"contract":"contracts/PomodoroGame.sol:PomodoroGame","label":"catCoin","offset":1,"slot":"2","type":"t_contract(CATCoin)10232"},{"astId":10787,"contract":"contracts/PomodoroGame.sol:PomodoroGame","label":"catNFT","offset":0,"slot":"3","type":"t_contract(CatNFT)10483"},{"astId":10790,"contract":"contracts/PomodoroGame.sol:PomodoroGame","label":"gameItem","offset":0,"slot":"4","type":"t_contract(GameItem)10766"},{"astId":10794,"contract":"contracts/PomodoroGame.sol:PomodoroGame","label":"lastSessionTime","offset":0,"slot":"5","type":"t_mapping(t_address,t_uint256)"},{"astId":10798,"contract":"contracts/PomodoroGame.sol:PomodoroGame","label":"completedSessions","offset":0,"slot":"6","type":"t_mapping(t_address,t_uint256)"},{"astId":10826,"contract":"contracts/PomodoroGame.sol:PomodoroGame","label":"catStats","offset":0,"slot":"7","type":"t_mapping(t_address,t_mapping(t_uint256,t_struct(CatStats)10819_storage))"},{"astId":10838,"contract":"contracts/PomodoroGame.sol:PomodoroGame","label":"stakes","offset":0,"slot":"8","type":"t_mapping(t_address,t_struct(Stake)10833_storage)"},{"astId":10841,"contract":"contracts/PomodoroGame.sol:PomodoroGame","label":"stakingRewardRate","offset":0,"slot":"9","type":"t_uint256"}],"types":{"t_address":{"encoding":"inplace","label":"address","numberOfBytes":"20"},"t_bool":{"encoding":"inplace","label":"bool","numberOfBytes":"1"},"t_contract(CATCoin)10232":{"encoding":"inplace","label":"contract CATCoin","numberOfBytes":"20"},"t_contract(CatNFT)10483":{"encoding":"inplace","label":"contract CatNFT","numberOfBytes":"20"},"t_contract(GameItem)10766":{"encoding":"inplace","label":"contract GameItem","numberOfBytes":"20"},"t_mapping(t_address,t_mapping(t_uint256,t_struct(CatStats)10819_storage))":{"encoding":"mapping","key":"t_address","label":"mapping(address => mapping(uint256 => struct PomodoroGame.CatStats))","numberOfBytes":"32","value":"t_mapping(t_uint256,t_struct(CatStats)10819_storage)"},"t_mapping(t_address,t_struct(Stake)10833_storage)":{"encoding":"mapping","key":"t_address","label":"mapping(address => struct PomodoroGame.Stake)","numberOfBytes":"32","value":"t_struct(Stake)10833_storage"},"t_mapping(t_address,t_uint256)":{"encoding":"mapping","key":"t_address","label":"mapping(address => uint256)","numberOfBytes":"32","value":"t_uint256"},"t_mapping(t_uint256,t_struct(CatStats)10819_storage)":{"encoding":"mapping","key":"t_uint256","label":"mapping(uint256 => struct PomodoroGame.CatStats)","numberOfBytes":"32","value":"t_struct(CatStats)10819_storage"},"t_struct(CatStats)10819_storage":{"encoding":"inplace","label":"struct PomodoroGame.CatStats","members":[{"astId":10810,"contract":"contracts/PomodoroGame.sol:PomodoroGame","label":"hunger","offset":0,"slot":"0","type":"t_uint256"},{"astId":10812,"contract":"contracts/PomodoroGame.sol:PomodoroGame","label":"happiness","offset":0,"slot":"1","type":"t_uint256"},{"astId":10814,"contract":"contracts/PomodoroGame.sol:PomodoroGame","label":"lastFedTime","offset":0,"slot":"2","type":"t_uint256"},{"astId":10816,"contract":"contracts/PomodoroGame.sol:PomodoroGame","label":"isAlive","offset":0,"slot":"3","type":"t_bool"},{"astId":10818,"contract":"contracts/PomodoroGame.sol:PomodoroGame","label":"daysWithoutFeeding","offset":0,"slot":"4","type":"t_uint256"}],"numberOfBytes":"160"},"t_struct(Stake)10833_storage":{"encoding":"inplace","label":"struct PomodoroGame.Stake","members":[{"astId":10828,"contract":"contracts/PomodoroGame.sol:PomodoroGame","label":"amount","offset":0,"slot":"0","type":"t_uint256"},{"astId":10830,"contract":"contracts/PomodoroGame.sol:PomodoroGame","label":"timestamp","offset":0,"slot":"1","type":"t_uint256"},{"astId":10832,"contract":"contracts/PomodoroGame.sol:PomodoroGame","label":"active","offset":0,"slot":"2","type":"t_bool"}],"numberOfBytes":"96"},"t_uint256":{"encoding":"inplace","label":"uint256","numberOfBytes":"32"}}}}}}