{
  "_format": "hh-sol-artifact-1",
  "contractName": "PomodoroGame",
  "sourceName": "contracts/PomodoroGame.sol",
  "abi": [
    {
      "inputs": [
        {
          "internalType": "address",
          "name": "_catCoin",
          "type": "address"
        },
        {
          "internalType": "address",
          "name": "_catNFT",
          "type": "address"
        },
        {
          "internalType": "address",
          "name": "_gameItem",
          "type": "address"
        }
      ],
      "stateMutability": "nonpayable",
      "type": "constructor"
    },
    {
      "inputs": [],
      "name": "EnforcedPause",
      "type": "error"
    },
    {
      "inputs": [],
      "name": "ExpectedPause",
      "type": "error"
    },
    {
      "inputs": [
        {
          "internalType": "address",
          "name": "owner",
          "type": "address"
        }
      ],
      "name": "OwnableInvalidOwner",
      "type": "error"
    },
    {
      "inputs": [
        {
          "internalType": "address",
          "name": "account",
          "type": "address"
        }
      ],
      "name": "OwnableUnauthorizedAccount",
      "type": "error"
    },
    {
      "inputs": [],
      "name": "ReentrancyGuardReentrantCall",
      "type": "error"
    },
    {
      "anonymous": false,
      "inputs": [
        {
          "indexed": true,
          "internalType": "address",
          "name": "user",
          "type": "address"
        },
        {
          "indexed": false,
          "internalType": "uint256",
          "name": "catTokenId",
          "type": "uint256"
        }
      ],
      "name": "CatDied",
      "type": "event"
    },
    {
      "anonymous": false,
      "inputs": [
        {
          "indexed": true,
          "internalType": "address",
          "name": "user",
          "type": "address"
        },
        {
          "indexed": false,
          "internalType": "uint256",
          "name": "catTokenId",
          "type": "uint256"
        },
        {
          "indexed": false,
          "internalType": "uint256",
          "name": "foodId",
          "type": "uint256"
        },
        {
          "indexed": false,
          "internalType": "uint256",
          "name": "hungerReduced",
          "type": "uint256"
        }
      ],
      "name": "CatFed",
      "type": "event"
    },
    {
      "anonymous": false,
      "inputs": [
        {
          "indexed": true,
          "internalType": "address",
          "name": "user",
          "type": "address"
        },
        {
          "indexed": false,
          "internalType": "uint256",
          "name": "tokenId",
          "type": "uint256"
        },
        {
          "indexed": false,
          "internalType": "uint256",
          "name": "catTypeId",
          "type": "uint256"
        }
      ],
      "name": "CatPurchased",
      "type": "event"
    },
    {
      "anonymous": false,
      "inputs": [
        {
          "indexed": true,
          "internalType": "address",
          "name": "user",
          "type": "address"
        },
        {
          "indexed": false,
          "internalType": "uint256",
          "name": "catTokenId",
          "type": "uint256"
        },
        {
          "indexed": false,
          "internalType": "uint256",
          "name": "hunger",
          "type": "uint256"
        },
        {
          "indexed": false,
          "internalType": "uint256",
          "name": "happiness",
          "type": "uint256"
        }
      ],
      "name": "CatStatsUpdated",
      "type": "event"
    },
    {
      "anonymous": false,
      "inputs": [
        {
          "indexed": true,
          "internalType": "address",
          "name": "user",
          "type": "address"
        },
        {
          "indexed": false,
          "internalType": "uint256",
          "name": "itemId",
          "type": "uint256"
        },
        {
          "indexed": false,
          "internalType": "uint256",
          "name": "amount",
          "type": "uint256"
        }
      ],
      "name": "ItemPurchased",
      "type": "event"
    },
    {
      "anonymous": false,
      "inputs": [
        {
          "indexed": true,
          "internalType": "address",
          "name": "previousOwner",
          "type": "address"
        },
        {
          "indexed": true,
          "internalType": "address",
          "name": "newOwner",
          "type": "address"
        }
      ],
      "name": "OwnershipTransferred",
      "type": "event"
    },
    {
      "anonymous": false,
      "inputs": [
        {
          "indexed": false,
          "internalType": "address",
          "name": "account",
          "type": "address"
        }
      ],
      "name": "Paused",
      "type": "event"
    },
    {
      "anonymous": false,
      "inputs": [
        {
          "indexed": true,
          "internalType": "address",
          "name": "user",
          "type": "address"
        },
        {
          "indexed": false,
          "internalType": "uint256",
          "name": "coinsEarned",
          "type": "uint256"
        },
        {
          "indexed": false,
          "internalType": "uint256",
          "name": "timestamp",
          "type": "uint256"
        }
      ],
      "name": "SessionCompleted",
      "type": "event"
    },
    {
      "anonymous": false,
      "inputs": [
        {
          "indexed": true,
          "internalType": "address",
          "name": "user",
          "type": "address"
        },
        {
          "indexed": false,
          "internalType": "uint256",
          "name": "amount",
          "type": "uint256"
        },
        {
          "indexed": false,
          "internalType": "uint256",
          "name": "timestamp",
          "type": "uint256"
        }
      ],
      "name": "Staked",
      "type": "event"
    },
    {
      "anonymous": false,
      "inputs": [
        {
          "indexed": false,
          "internalType": "address",
          "name": "account",
          "type": "address"
        }
      ],
      "name": "Unpaused",
      "type": "event"
    },
    {
      "anonymous": false,
      "inputs": [
        {
          "indexed": true,
          "internalType": "address",
          "name": "user",
          "type": "address"
        },
        {
          "indexed": false,
          "internalType": "uint256",
          "name": "amount",
          "type": "uint256"
        },
        {
          "indexed": false,
          "internalType": "uint256",
          "name": "reward",
          "type": "uint256"
        }
      ],
      "name": "Unstaked",
      "type": "event"
    },
    {
      "inputs": [],
      "name": "COINS_PER_SESSION",
      "outputs": [
        {
          "internalType": "uint256",
          "name": "",
          "type": "uint256"
        }
      ],
      "stateMutability": "view",
      "type": "function"
    },
    {
      "inputs": [],
      "name": "MAX_STAKE_DURATION",
      "outputs": [
        {
          "internalType": "uint256",
          "name": "",
          "type": "uint256"
        }
      ],
      "stateMutability": "view",
      "type": "function"
    },
    {
      "inputs": [],
      "name": "MIN_STAKE_DURATION",
      "outputs": [
        {
          "internalType": "uint256",
          "name": "",
          "type": "uint256"
        }
      ],
      "stateMutability": "view",
      "type": "function"
    },
    {
      "inputs": [],
      "name": "SESSION_DURATION",
      "outputs": [
        {
          "internalType": "uint256",
          "name": "",
          "type": "uint256"
        }
      ],
      "stateMutability": "view",
      "type": "function"
    },
    {
      "inputs": [],
      "name": "catCoin",
      "outputs": [
        {
          "internalType": "contract CATCoin",
          "name": "",
          "type": "address"
        }
      ],
      "stateMutability": "view",
      "type": "function"
    },
    {
      "inputs": [],
      "name": "catNFT",
      "outputs": [
        {
          "internalType": "contract CatNFT",
          "name": "",
          "type": "address"
        }
      ],
      "stateMutability": "view",
      "type": "function"
    },
    {
      "inputs": [
        {
          "internalType": "address",
          "name": "",
          "type": "address"
        },
        {
          "internalType": "uint256",
          "name": "",
          "type": "uint256"
        }
      ],
      "name": "catStats",
      "outputs": [
        {
          "internalType": "uint256",
          "name": "hunger",
          "type": "uint256"
        },
        {
          "internalType": "uint256",
          "name": "happiness",
          "type": "uint256"
        },
        {
          "internalType": "uint256",
          "name": "lastFedTime",
          "type": "uint256"
        },
        {
          "internalType": "bool",
          "name": "isAlive",
          "type": "bool"
        },
        {
          "internalType": "uint256",
          "name": "daysWithoutFeeding",
          "type": "uint256"
        }
      ],
      "stateMutability": "view",
      "type": "function"
    },
    {
      "inputs": [],
      "name": "completeSession",
      "outputs": [],
      "stateMutability": "nonpayable",
      "type": "function"
    },
    {
      "inputs": [
        {
          "internalType": "address",
          "name": "",
          "type": "address"
        }
      ],
      "name": "completedSessions",
      "outputs": [
        {
          "internalType": "uint256",
          "name": "",
          "type": "uint256"
        }
      ],
      "stateMutability": "view",
      "type": "function"
    },
    {
      "inputs": [],
      "name": "emergencyWithdraw",
      "outputs": [],
      "stateMutability": "nonpayable",
      "type": "function"
    },
    {
      "inputs": [
        {
          "internalType": "uint256",
          "name": "catTokenId",
          "type": "uint256"
        },
        {
          "internalType": "uint256",
          "name": "foodId",
          "type": "uint256"
        }
      ],
      "name": "feedCat",
      "outputs": [],
      "stateMutability": "nonpayable",
      "type": "function"
    },
    {
      "inputs": [],
      "name": "gameItem",
      "outputs": [
        {
          "internalType": "contract GameItem",
          "name": "",
          "type": "address"
        }
      ],
      "stateMutability": "view",
      "type": "function"
    },
    {
      "inputs": [
        {
          "internalType": "uint256",
          "name": "foodId",
          "type": "uint256"
        }
      ],
      "name": "getFoodValue",
      "outputs": [
        {
          "internalType": "uint256",
          "name": "",
          "type": "uint256"
        }
      ],
      "stateMutability": "pure",
      "type": "function"
    },
    {
      "inputs": [
        {
          "internalType": "address",
          "name": "user",
          "type": "address"
        }
      ],
      "name": "getStakingReward",
      "outputs": [
        {
          "internalType": "uint256",
          "name": "",
          "type": "uint256"
        }
      ],
      "stateMutability": "view",
      "type": "function"
    },
    {
      "inputs": [
        {
          "internalType": "address",
          "name": "",
          "type": "address"
        }
      ],
      "name": "lastSessionTime",
      "outputs": [
        {
          "internalType": "uint256",
          "name": "",
          "type": "uint256"
        }
      ],
      "stateMutability": "view",
      "type": "function"
    },
    {
      "inputs": [],
      "name": "owner",
      "outputs": [
        {
          "internalType": "address",
          "name": "",
          "type": "address"
        }
      ],
      "stateMutability": "view",
      "type": "function"
    },
    {
      "inputs": [],
      "name": "pause",
      "outputs": [],
      "stateMutability": "nonpayable",
      "type": "function"
    },
    {
      "inputs": [],
      "name": "paused",
      "outputs": [
        {
          "internalType": "bool",
          "name": "",
          "type": "bool"
        }
      ],
      "stateMutability": "view",
      "type": "function"
    },
    {
      "inputs": [
        {
          "internalType": "uint256",
          "name": "catTokenId",
          "type": "uint256"
        },
        {
          "internalType": "uint256",
          "name": "toyId",
          "type": "uint256"
        }
      ],
      "name": "playWithCat",
      "outputs": [],
      "stateMutability": "nonpayable",
      "type": "function"
    },
    {
      "inputs": [
        {
          "internalType": "uint256",
          "name": "catTypeId",
          "type": "uint256"
        }
      ],
      "name": "purchaseCat",
      "outputs": [],
      "stateMutability": "nonpayable",
      "type": "function"
    },
    {
      "inputs": [
        {
          "internalType": "uint256",
          "name": "itemId",
          "type": "uint256"
        },
        {
          "internalType": "uint256",
          "name": "amount",
          "type": "uint256"
        }
      ],
      "name": "purchaseItem",
      "outputs": [],
      "stateMutability": "nonpayable",
      "type": "function"
    },
    {
      "inputs": [],
      "name": "renounceOwnership",
      "outputs": [],
      "stateMutability": "nonpayable",
      "type": "function"
    },
    {
      "inputs": [
        {
          "internalType": "uint256",
          "name": "newRate",
          "type": "uint256"
        }
      ],
      "name": "setStakingRewardRate",
      "outputs": [],
      "stateMutability": "nonpayable",
      "type": "function"
    },
    {
      "inputs": [
        {
          "internalType": "uint256",
          "name": "amount",
          "type": "uint256"
        }
      ],
      "name": "stake",
      "outputs": [],
      "stateMutability": "nonpayable",
      "type": "function"
    },
    {
      "inputs": [
        {
          "internalType": "address",
          "name": "",
          "type": "address"
        }
      ],
      "name": "stakes",
      "outputs": [
        {
          "internalType": "uint256",
          "name": "amount",
          "type": "uint256"
        },
        {
          "internalType": "uint256",
          "name": "timestamp",
          "type": "uint256"
        },
        {
          "internalType": "bool",
          "name": "active",
          "type": "bool"
        }
      ],
      "stateMutability": "view",
      "type": "function"
    },
    {
      "inputs": [],
      "name": "stakingRewardRate",
      "outputs": [
        {
          "internalType": "uint256",
          "name": "",
          "type": "uint256"
        }
      ],
      "stateMutability": "view",
      "type": "function"
    },
    {
      "inputs": [
        {
          "internalType": "address",
          "name": "newOwner",
          "type": "address"
        }
      ],
      "name": "transferOwnership",
      "outputs": [],
      "stateMutability": "nonpayable",
      "type": "function"
    },
    {
      "inputs": [],
      "name": "unpause",
      "outputs": [],
      "stateMutability": "nonpayable",
      "type": "function"
    },
    {
      "inputs": [],
      "name": "unstake",
      "outputs": [],
      "stateMutability": "nonpayable",
      "type": "function"
    },
    {
      "inputs": [
        {
          "internalType": "uint256",
          "name": "catTokenId",
          "type": "uint256"
        }
      ],
      "name": "updateCatStats",
      "outputs": [],
      "stateMutability": "nonpayable",
      "type": "function"
    }
  ],
  "bytecode": "0x6080346200023257601f6200218a38819003918201601f191683019291906001600160401b0384118385101762000237578160609284926040968752833981010312620002325762000051816200024d565b906200006d8362000065602084016200024d565b92016200024d565b33156200021a57600080546001600160a01b0319808216339081178455875191956001600160a01b039490938516907f8be0079c531659141344cd1fd0a4f28419497f9722a3daafe3b4186f6b6457e09080a360018055600a60095582861615620001ca575081169182156200017a5716928315620001275760025490610100600160a81b039060081b1690610100600160a81b03191617600255816003541617600355600454161760045551611f279081620002638239f35b845162461bcd60e51b815260206004820152602660248201527f506f6d6f646f726f47616d653a20696e76616c69642047616d654974656d206160448201526564647265737360d01b6064820152608490fd5b855162461bcd60e51b8152602060048201526024808201527f506f6d6f646f726f47616d653a20696e76616c6964204361744e4654206164646044820152637265737360e01b6064820152608490fd5b62461bcd60e51b815260206004820152602560248201527f506f6d6f646f726f47616d653a20696e76616c696420434154436f696e206164604482015264647265737360d81b6064820152608490fd5b8351631e4fbdf760e01b815260006004820152602490fd5b600080fd5b634e487b7160e01b600052604160045260246000fd5b51906001600160a01b0382168203620002325756fe608060408181526004918236101561001657600080fd5b600092833560e01c9182630daf130414611af95750816314a1d4f01461189f57816316934fc41461184a5781632def6620146116555781632e1256fb1461161d57816335fb21d6146115fa5781633deaa341146115dd5781633f4ba83a1461157357816342f28cea146112e65781634f3fc2df146112c75781635c975abb146112a35781635e8e9cd61461127b578163715018a61461122157816378f4d413146111fb5781637cc03014146111d1578163803df3211461115f5781638456cb59146111045781638da5cb5b146110dc5781639c758891146110af578163a694fc3a14610ecd578163aa902b4d14610eae578163b7d6851914610e32578163d42fd40714610aa257838263db2e21bc1461097d57508163e067569814610713578163e07c896c146103e2578163e0c570ba146103c4578163f139bda814610240578163f2fde38b146101ab575063f5aea8991461017157600080fd5b346101a75760203660031901126101a75760209181906001600160a01b03610197611b1e565b1681526005845220549051908152f35b5080fd5b90503461023c57602036600319011261023c576101c6611b1e565b906101cf611ea5565b6001600160a01b03918216928315610226575050600054826bffffffffffffffffffffffff60a01b821617600055167f8be0079c531659141344cd1fd0a4f28419497f9722a3daafe3b4186f6b6457e0600080a380f35b51631e4fbdf760e01b8152908101849052602490fd5b8280fd5b9190503461023c578260031936011261023c5761025b611e64565b610263611e82565b3383526005602052808320546105dc81018091116103b157421061035e573383526005602052428184205560066020528083208054600019811461034b57600101905560025460081c6001600160a01b0316918390833b156101a7578251906340c10f1960e01b82523390820152818160448183670de0b6b3a7640000988960248401525af180156103415761032d575b5050807f5948e5593b9f60e79646653d7bd7e88be2dc92a187d9da2a8fa4ca72cd19dc5691519283524260208401523392a26001805580f35b61033690611b7c565b61023c5782386102f4565b83513d84823e3d90fd5b634e487b7160e01b855260118452602485fd5b906020608492519162461bcd60e51b8352820152602760248201527f506f6d6f646f726f47616d653a2073657373696f6e206e6f7420636f6d706c656044820152661d1959081e595d60ca1b6064820152fd5b634e487b7160e01b845260118352602484fd5b5050346101a757816003193601126101a75760209051620151808152f35b8383346101a7576020928360031936011261023c578084913590610404611e64565b61040c611e82565b60035484516370107e1560e01b815280830184905296602492916001600160a01b03919089908590829085165afa9788156107095787986106da575b5087156106995786978160025460081c169087516370a0823160e01b8152338582015287818781865afa90811561068f578a9161065c575b508161048d911015611e0c565b813b156106585788918583928a519485938492630852cd8d60e31b8452898401525af1801561064e578692918991610631575b50506003541660848751809981936334ff261960e21b835233878401528888840152606060448401528160648401525af19586156106275787966105f3575b5084519160a083019083821067ffffffffffffffff8311176105e05750916032959492918694928652848252876105878a868501888152898601904282528a606088019360018552608089019681885233825260078c528282209082528b522096518755516001870155516002860155511515600385019060ff801983541691151516179055565b51910155835190868252828201527f8461727b19ec1277235c4949e60db78a990df97f165fd1074a4eb8e9d6653c2e843392a28251948552840152820152600080516020611ed283398151915260603392a26001805580f35b634e487b7160e01b600090815260418452fd5b9095508381813d8311610620575b61060b8183611b90565b8101031261061b575194876104ff565b600080fd5b503d610601565b85513d89823e3d90fd5b61063d91929350611b7c565b61064a578490878a6104c0565b8680fd5b87513d8a823e3d90fd5b8880fd5b809a50888092503d8311610688575b6106758183611b90565b8101031261061b57975189989081610480565b503d61066b565b89513d8c823e3d90fd5b50601e6064928587519362461bcd60e51b85528401528201527f506f6d6f646f726f47616d653a20636174206e6f7420666f722073616c6500006044820152fd5b9097508481813d8311610702575b6106f28183611b90565b8101031261061b57519688610448565b503d6106e8565b86513d89823e3d90fd5b90503461023c5761072336611b34565b61072e939193611e64565b610736611e82565b610741811515611dac565b82548251635fc8d6cf60e11b8152808501869052602094916001600160a01b03919086908290602490829086165afa908115610973578891610946575b508015610903579061079284899493611c99565b8160025460081c169086516370a0823160e01b815233858201528881602481865afa9081156108f95786916108c6575b50816107cf911015611e0c565b813b1561089a5784916024839289519485938492630852cd8d60e31b8452898401525af180156108bc579084916108a8575b505081541690813b1561023c57829160a483928751948593849263731133e960e01b845233908401528b6024840152886044840152608060648401528160848401525af1801561089e57610886575b50507f1452773cf753d0d7c71ed9990f7c7e2bdde4a2d08d187b3647953877e400488d9282519485528401523392a26001805580f35b61088f90611b7c565b61089a578438610850565b8480fd5b84513d84823e3d90fd5b6108b190611b7c565b61023c578238610801565b86513d86823e3d90fd5b809650898092503d83116108f2575b6108df8183611b90565b8101031261061b579351899490816107c2565b503d6108d5565b88513d88823e3d90fd5b845162461bcd60e51b8152808401879052601f60248201527f506f6d6f646f726f47616d653a206974656d206e6f7420666f722073616c65006044820152606490fd5b90508581813d831161096c575b61095d8183611b90565b8101031261061b57513861077e565b503d610953565b85513d8a823e3d90fd5b915091346101a757816003193601126101a757610998611ea5565b60025481516370a0823160e01b815230858201526020946001600160a01b039260081c8316908683602481855afa928315610a98578693610a66575b50826109de578580f35b8554855163a9059cbb60e01b815294166001600160a01b0316908401908152602081019290925291938592859290918391829060400103925af1908115610a5d5750610a2f575b8080808086948580f35b81610a4e92903d10610a56575b610a468183611b90565b810190611cac565b503880610a25565b503d610a3c565b513d85823e3d90fd5b955091508585813d8111610a91575b610a7f8183611b90565b8101031261061b5786945191386109d4565b503d610a75565b85513d88823e3d90fd5b839150346101a757610ab336611b34565b939091610abe611e64565b610ac6611e82565b60035482516331a9108f60e11b81528281018590526020916001600160a01b03919083908290602490829086165afa9081156106275790610b12918891610e05575b5082163314611bd1565b82548451627eeac760e11b815233818601908152602081018a90529290911692918290829081906040010381865afa908115610627578791610dd8575b5015610d9657835163c19a4ef560e01b81528381018890528181602481865afa908115610627579060ff918891610d69575b5016610d275733865260078152838620908587525282852090610baa60ff600384015416611c1d565b803b15610d235785809160c4865180948193637921219560e11b835233898401523060248401528c60448401526001606484015260a060848401528160a48401525af18015610d1957610cf2575b50610caf90867f3aec2738d4ed5144ad8b9585e1b0d8726e0bab20fbb7c1feac0c64226f2cfc2f610c8b610c3c600080516020611ed283398151915298999a611d63565b84548111610cea57610c4f818654611c69565b85555b8a6001860197885460648110610cb9575b5042600288015586015587518a81526020810194909452604084015233929081906060820190565b0390a254915492519283923396846040919493926060820195825260208201520152565b0390a26001805580f35b8360011c6064610cc98284611c8c565b1115610cdc57505060645b89558d610c63565b610ce591611c8c565b610cd4565b8a8555610c52565b90600080516020611ed28339815191529495610d10610caf93611b7c565b95945090610bf8565b84513d88823e3d90fd5b8580fd5b9050606492519162461bcd60e51b8352820152601e60248201527f506f6d6f646f726f47616d653a206974656d206973206e6f7420666f6f6400006044820152fd5b610d899150833d8511610d8f575b610d818183611b90565b810190611cc4565b89610b81565b503d610d77565b9050606492519162461bcd60e51b8352820152601f60248201527f506f6d6f646f726f47616d653a206e6f20666f6f6420617661696c61626c65006044820152fd5b90508181813d8311610dfe575b610def8183611b90565b8101031261064a575188610b4f565b503d610de5565b610e259150843d8611610e2b575b610e1d8183611b90565b810190611bb2565b89610b08565b503d610e13565b90503461023c57602036600319011261023c57803591610e50611ea5565b60648311610e6057505060095580f35b906020608492519162461bcd60e51b8352820152602260248201527f506f6d6f646f726f47616d653a20726577617264207261746520746f6f2068696044820152610ced60f31b6064820152fd5b5050346101a757816003193601126101a757602090516301e133808152f35b8383346101a7576020908160031936011261023c57833591610eed611e64565b610ef5611e82565b610f00831515611dac565b60025482516370a0823160e01b8152338188015260089190911c6001600160a01b0316959082816024818a5afa8015610d19578590879061107e575b610f4892501015611e0c565b3385526008825260ff600284872001541661103d57849560648392855197889384926323b872dd60e01b845233908401523060248401528860448401525af1938415611033577f1449c6dd7851abc30abf37f57715f492010519147cc2652fbc38202c18a6ee909394611016575b506110028251610fc581611b4a565b85815260028382014281528583019060018252338a5260088652868a209351845551600184015551151591019060ff801983541691151516179055565b815193845242908401523392a26001805580f35b61102c90823d8411610a5657610a468183611b90565b5085610fb6565b82513d87823e3d90fd5b915162461bcd60e51b815291820152601d60248201527f506f6d6f646f726f47616d653a20616c7265616479207374616b696e670000006044820152606490fd5b50508281813d83116110a8575b6110958183611b90565b81010312610d235784610f489151610f3c565b503d61108b565b5050346101a757816003193601126101a757600254905160089190911c6001600160a01b03168152602090f35b5050346101a757816003193601126101a757905490516001600160a01b039091168152602090f35b5050346101a757816003193601126101a75760207f62e78cea01bee320cd4e420270b5ea74000d11b0c9f74754ebdbfc544b05a25891611142611ea5565b61114a611e64565b600160ff19600254161760025551338152a180f35b9190503461023c578060031936011261023c5760a09281906001600160a01b03611187611b1e565b168152600760205281812060243582526020522080549260018201549260028301549160ff6003850154169301549381519586526020860152840152151560608301526080820152f35b8284346111f85760203660031901126111f857506111f160209235611d63565b9051908152f35b80fd5b5050346101a75760203660031901126101a7576020906111f161121c611b1e565b611cdd565b83346111f857806003193601126111f85761123a611ea5565b80546001600160a01b03198116825581906001600160a01b03167f8be0079c531659141344cd1fd0a4f28419497f9722a3daafe3b4186f6b6457e08280a380f35b90503461023c578260031936011261023c575490516001600160a01b03909116815260209150f35b5050346101a757816003193601126101a75760209060ff6002541690519015158152f35b5050346101a757816003193601126101a7576020906009549051908152f35b8383346101a7576112f636611b34565b611301929192611e64565b611309611e82565b60035482516331a9108f60e11b8152868101859052602092916001600160a01b03919084908290602490829086165afa908115610627579061135591889161155c575082163314611bd1565b86548451627eeac760e11b815233818a01908152602081018590529290911692918490829081906040010381865afa90811561062757879161152f575b50156114ec578290602485518094819363c19a4ef560e01b83528b8301525afa9081156114e25760019160ff9187916114c5575b501603611483573384526007815281842090838552528083206113ef60ff600383015416611c1d565b600181019081546064811061142e575b505490549151928352602083015260408201523390600080516020611ed2833981519152908060608101610caf565b600a8101809111611470579495509293600080516020611ed283398151915293610caf91606481111561146b575060645b835590869594506113ff565b61145f565b634e487b7160e01b865260118752602486fd5b8490606492519162461bcd60e51b8352820152601f60248201527f506f6d6f646f726f47616d653a206974656d206973206e6f74206120746f79006044820152fd5b6114dc9150843d8611610d8f57610d818183611b90565b886113c6565b83513d87823e3d90fd5b835162461bcd60e51b8152808801849052601e60248201527f506f6d6f646f726f47616d653a206e6f20746f7920617661696c61626c6500006044820152606490fd5b90508381813d8311611555575b6115468183611b90565b8101031261064a575188611392565b503d61153c565b610e259150853d8711610e2b57610e1d8183611b90565b90503461023c578260031936011261023c5761158d611ea5565b6002549060ff8216156115cf575060ff1916600255513381527f5db9ee0a495bf2e6ff9c91a7834c1ba4fdd244a5e8aa4e537bd38aeae4b073aa90602090a180f35b8251638dfc202b60e01b8152fd5b5050346101a757816003193601126101a757602090516105dc8152f35b5050346101a757816003193601126101a75760209051670de0b6b3a76400008152f35b5050346101a75760203660031901126101a75760209181906001600160a01b03611645611b1e565b1681526006845220549051908152f35b8383346101a757816003193601126101a75761166f611e64565b611677611e82565b33825260209060088252808320600281019081549560ff87161561180757600182016116a4815442611c69565b6201518081106117ad5791876117359899926301e1338089950496600188116117a4575b6116ec60646116e489549a6116df6009548d611c99565b611c99565b048099611c8c565b60ff19909516905581865555600254865163a9059cbb60e01b81523392810192835260208301939093529197889260081c6001600160a01b03169183918b918391604090910190565b03925af194851561179a577f7fc4727e062e336010f2c282598ef5f14facb3de68cf8195c2f23e1454b2b74e949561177d575b50549382519485528401523392a26001805580f35b61179390863d8811610a5657610a468183611b90565b5086611768565b83513d88823e3d90fd5b600197506116c8565b855162461bcd60e51b8152808401889052602e60248201527f506f6d6f646f726f47616d653a206d696e696d756d207374616b696e6720647560448201526d1c985d1a5bdb881b9bdd081b595d60921b6064820152608490fd5b835162461bcd60e51b8152908101859052601d60248201527f506f6d6f646f726f47616d653a206e6f20616374697665207374616b650000006044820152606490fd5b5050346101a75760203660031901126101a75760609181906001600160a01b03611872611b1e565b1681526008602052209081549160ff60026001830154920154169082519384526020840152151590820152f35b839150346101a7576020928360031936011261023c578135916118c0611e64565b6118c8611e82565b60035482516331a9108f60e11b8152828101859052906001600160a01b039087908390602490829085165afa918215610d19579061191192918792611ada575b50163314611bd1565b338452600785528184208385528552818420600381019586549661193760ff8916611c1d565b611945600284015442611c69565b97610e10620151808a04998a878701550480151580611acf575b611a9f575b508354946046861180611a92575b611a0c575b5091610caf9391600193600080516020611ed283398151915298999a60648810159081611a00575b506119c8575b505050015492519283923396846040919493926060820195825260208201520152565b60ff19169055855188815233917f2f8eda2b6116c4c6b8f5fbf8297de6070b86d678c8ae4db8a79376ffe50f665391a28880806119a5565b6003915010158c61199f565b600185018054919a9160058110611a6c576004198101908111611a5957600080516020611ed2833981519152999a9b50916001959391610caf979593905b559a9998509193509193611977565b634e487b7160e01b8b5260118c5260248bfd5b50899a5091610caf95939160019593600080516020611ed28339815191529a9b90611a4a565b5060018501541515611972565b8454906064611aae8284611c8c565b1115611ac157505060645b845589611964565b611aca91611c8c565b611ab9565b50606485541061195f565b611af2919250883d8a11610e2b57610e1d8183611b90565b9088611908565b8490346101a757816003193601126101a7576003546001600160a01b03168152602090f35b600435906001600160a01b038216820361061b57565b604090600319011261061b576004359060243590565b6060810190811067ffffffffffffffff821117611b6657604052565b634e487b7160e01b600052604160045260246000fd5b67ffffffffffffffff8111611b6657604052565b90601f8019910116810190811067ffffffffffffffff821117611b6657604052565b9081602091031261061b57516001600160a01b038116810361061b5790565b15611bd857565b60405162461bcd60e51b815260206004820152601a60248201527f506f6d6f646f726f47616d653a206e6f7420796f7572206361740000000000006044820152606490fd5b15611c2457565b60405162461bcd60e51b815260206004820152601960248201527f506f6d6f646f726f47616d653a206361742069732064656164000000000000006044820152606490fd5b91908203918211611c7657565b634e487b7160e01b600052601160045260246000fd5b91908201809211611c7657565b81810292918115918404141715611c7657565b9081602091031261061b5751801515810361061b5790565b9081602091031261061b575160ff8116810361061b5790565b60018060a01b03166000526008602052604060002060405190611cff82611b4a565b8054825260ff60026001830154928360208601520154161580156040840152611d5c576064916301e13380611d37611d4f9342611c69565b049060018211611d53575b516009546116df91611c99565b0490565b60019150611d42565b5050600090565b60018114611da65760028114611da05760038114611d9a5760048114611d9457600514611d8f57600a90565b601e90565b50600c90565b50601490565b50600f90565b50600a90565b15611db357565b60405162461bcd60e51b815260206004820152602b60248201527f506f6d6f646f726f47616d653a20616d6f756e74206d7573742062652067726560448201526a061746572207468616e20360ac1b6064820152608490fd5b15611e1357565b60405162461bcd60e51b8152602060048201526024808201527f506f6d6f646f726f47616d653a20696e73756666696369656e742043415420636044820152636f696e7360e01b6064820152608490fd5b60ff60025416611e7057565b60405163d93c066560e01b8152600490fd5b600260015414611e93576002600155565b604051633ee5aeb560e01b8152600490fd5b6000546001600160a01b03163303611eb957565b60405163118cdaa760e01b8152336004820152602490fdfeb733cea79eda96cc1c02a9aa9f3fd4dbcfd2bb03ef13b4fa48eeaf1cbd2e6bfea2646970667358221220b5a518340669633c4f41df3bff579fc32537235d3862cdaf1cc4bdeac91c6ed464736f6c63430008180033",
  "linkReferences": {},
  "deployedLinkReferences": {}
}