{
  "_format": "hh-sol-artifact-1",
  "contractName": "Marketplace",
  "sourceName": "contracts/Marketplace.sol",
  "abi": [
    {
      "inputs": [
        {
          "internalType": "address",
          "name": "_catNFT",
          "type": "address"
        },
        {
          "internalType": "address",
          "name": "_gameItem",
          "type": "address"
        },
        {
          "internalType": "address",
          "name": "_catCoin",
          "type": "address"
        }
      ],
      "stateMutability": "nonpayable",
      "type": "constructor"
    },
    {
      "inputs": [],
      "name": "EnforcedPause",
      "type": "error"
    },
    {
      "inputs": [],
      "name": "ExpectedPause",
      "type": "error"
    },
    {
      "inputs": [
        {
          "internalType": "address",
          "name": "owner",
          "type": "address"
        }
      ],
      "name": "OwnableInvalidOwner",
      "type": "error"
    },
    {
      "inputs": [
        {
          "internalType": "address",
          "name": "account",
          "type": "address"
        }
      ],
      "name": "OwnableUnauthorizedAccount",
      "type": "error"
    },
    {
      "inputs": [],
      "name": "ReentrancyGuardReentrantCall",
      "type": "error"
    },
    {
      "anonymous": false,
      "inputs": [
        {
          "indexed": true,
          "internalType": "uint256",
          "name": "listingId",
          "type": "uint256"
        },
        {
          "indexed": true,
          "internalType": "address",
          "name": "seller",
          "type": "address"
        },
        {
          "indexed": true,
          "internalType": "address",
          "name": "buyer",
          "type": "address"
        },
        {
          "indexed": false,
          "internalType": "uint256",
          "name": "tokenId",
          "type": "uint256"
        },
        {
          "indexed": false,
          "internalType": "uint256",
          "name": "itemId",
          "type": "uint256"
        },
        {
          "indexed": false,
          "internalType": "uint256",
          "name": "amount",
          "type": "uint256"
        },
        {
          "indexed": false,
          "internalType": "uint256",
          "name": "price",
          "type": "uint256"
        },
        {
          "indexed": false,
          "internalType": "uint256",
          "name": "fee",
          "type": "uint256"
        }
      ],
      "name": "ItemSold",
      "type": "event"
    },
    {
      "anonymous": false,
      "inputs": [
        {
          "indexed": true,
          "internalType": "uint256",
          "name": "listingId",
          "type": "uint256"
        }
      ],
      "name": "ListingCancelled",
      "type": "event"
    },
    {
      "anonymous": false,
      "inputs": [
        {
          "indexed": true,
          "internalType": "uint256",
          "name": "listingId",
          "type": "uint256"
        },
        {
          "indexed": true,
          "internalType": "address",
          "name": "seller",
          "type": "address"
        },
        {
          "indexed": true,
          "internalType": "uint256",
          "name": "tokenId",
          "type": "uint256"
        },
        {
          "indexed": false,
          "internalType": "uint256",
          "name": "itemId",
          "type": "uint256"
        },
        {
          "indexed": false,
          "internalType": "uint256",
          "name": "amount",
          "type": "uint256"
        },
        {
          "indexed": false,
          "internalType": "uint256",
          "name": "price",
          "type": "uint256"
        },
        {
          "indexed": false,
          "internalType": "bool",
          "name": "isNFT",
          "type": "bool"
        }
      ],
      "name": "ListingCreated",
      "type": "event"
    },
    {
      "anonymous": false,
      "inputs": [
        {
          "indexed": true,
          "internalType": "uint256",
          "name": "offerId",
          "type": "uint256"
        },
        {
          "indexed": true,
          "internalType": "address",
          "name": "seller",
          "type": "address"
        },
        {
          "indexed": true,
          "internalType": "address",
          "name": "buyer",
          "type": "address"
        },
        {
          "indexed": false,
          "internalType": "uint256",
          "name": "tokenId",
          "type": "uint256"
        },
        {
          "indexed": false,
          "internalType": "uint256",
          "name": "itemId",
          "type": "uint256"
        },
        {
          "indexed": false,
          "internalType": "uint256",
          "name": "price",
          "type": "uint256"
        },
        {
          "indexed": false,
          "internalType": "uint256",
          "name": "fee",
          "type": "uint256"
        }
      ],
      "name": "OfferAccepted",
      "type": "event"
    },
    {
      "anonymous": false,
      "inputs": [
        {
          "indexed": true,
          "internalType": "uint256",
          "name": "offerId",
          "type": "uint256"
        }
      ],
      "name": "OfferCancelled",
      "type": "event"
    },
    {
      "anonymous": false,
      "inputs": [
        {
          "indexed": true,
          "internalType": "uint256",
          "name": "offerId",
          "type": "uint256"
        },
        {
          "indexed": true,
          "internalType": "address",
          "name": "offerer",
          "type": "address"
        },
        {
          "indexed": true,
          "internalType": "uint256",
          "name": "tokenId",
          "type": "uint256"
        },
        {
          "indexed": false,
          "internalType": "uint256",
          "name": "itemId",
          "type": "uint256"
        },
        {
          "indexed": false,
          "internalType": "uint256",
          "name": "price",
          "type": "uint256"
        },
        {
          "indexed": false,
          "internalType": "uint256",
          "name": "expirationTime",
          "type": "uint256"
        }
      ],
      "name": "OfferCreated",
      "type": "event"
    },
    {
      "anonymous": false,
      "inputs": [
        {
          "indexed": true,
          "internalType": "address",
          "name": "previousOwner",
          "type": "address"
        },
        {
          "indexed": true,
          "internalType": "address",
          "name": "newOwner",
          "type": "address"
        }
      ],
      "name": "OwnershipTransferred",
      "type": "event"
    },
    {
      "anonymous": false,
      "inputs": [
        {
          "indexed": false,
          "internalType": "address",
          "name": "account",
          "type": "address"
        }
      ],
      "name": "Paused",
      "type": "event"
    },
    {
      "anonymous": false,
      "inputs": [
        {
          "indexed": false,
          "internalType": "uint256",
          "name": "newFee",
          "type": "uint256"
        }
      ],
      "name": "TradingFeeUpdated",
      "type": "event"
    },
    {
      "anonymous": false,
      "inputs": [
        {
          "indexed": false,
          "internalType": "address",
          "name": "account",
          "type": "address"
        }
      ],
      "name": "Unpaused",
      "type": "event"
    },
    {
      "anonymous": false,
      "inputs": [
        {
          "indexed": true,
          "internalType": "address",
          "name": "user",
          "type": "address"
        },
        {
          "indexed": false,
          "internalType": "uint256",
          "name": "amount",
          "type": "uint256"
        }
      ],
      "name": "VolumeRewardDistributed",
      "type": "event"
    },
    {
      "inputs": [],
      "name": "MAX_FEE",
      "outputs": [
        {
          "internalType": "uint256",
          "name": "",
          "type": "uint256"
        }
      ],
      "stateMutability": "view",
      "type": "function"
    },
    {
      "inputs": [],
      "name": "MAX_MULTIPLIER",
      "outputs": [
        {
          "internalType": "uint256",
          "name": "",
          "type": "uint256"
        }
      ],
      "stateMutability": "view",
      "type": "function"
    },
    {
      "inputs": [],
      "name": "MIN_MULTIPLIER",
      "outputs": [
        {
          "internalType": "uint256",
          "name": "",
          "type": "uint256"
        }
      ],
      "stateMutability": "view",
      "type": "function"
    },
    {
      "inputs": [
        {
          "internalType": "uint256",
          "name": "tokenId",
          "type": "uint256"
        },
        {
          "internalType": "uint256",
          "name": "offerId",
          "type": "uint256"
        }
      ],
      "name": "acceptNFTOffer",
      "outputs": [],
      "stateMutability": "nonpayable",
      "type": "function"
    },
    {
      "inputs": [
        {
          "internalType": "uint256",
          "name": "listingId",
          "type": "uint256"
        },
        {
          "internalType": "uint256",
          "name": "amount",
          "type": "uint256"
        }
      ],
      "name": "buyItem",
      "outputs": [],
      "stateMutability": "nonpayable",
      "type": "function"
    },
    {
      "inputs": [
        {
          "internalType": "uint256",
          "name": "listingId",
          "type": "uint256"
        }
      ],
      "name": "buyNFT",
      "outputs": [],
      "stateMutability": "nonpayable",
      "type": "function"
    },
    {
      "inputs": [
        {
          "internalType": "uint256",
          "name": "listingId",
          "type": "uint256"
        }
      ],
      "name": "cancelListing",
      "outputs": [],
      "stateMutability": "nonpayable",
      "type": "function"
    },
    {
      "inputs": [
        {
          "internalType": "uint256",
          "name": "tokenId",
          "type": "uint256"
        },
        {
          "internalType": "uint256",
          "name": "offerId",
          "type": "uint256"
        }
      ],
      "name": "cancelOffer",
      "outputs": [],
      "stateMutability": "nonpayable",
      "type": "function"
    },
    {
      "inputs": [],
      "name": "catCoin",
      "outputs": [
        {
          "internalType": "contract CATCoin",
          "name": "",
          "type": "address"
        }
      ],
      "stateMutability": "view",
      "type": "function"
    },
    {
      "inputs": [],
      "name": "catNFT",
      "outputs": [
        {
          "internalType": "contract CatNFT",
          "name": "",
          "type": "address"
        }
      ],
      "stateMutability": "view",
      "type": "function"
    },
    {
      "inputs": [
        {
          "internalType": "uint256",
          "name": "tokenId",
          "type": "uint256"
        },
        {
          "internalType": "uint256",
          "name": "price",
          "type": "uint256"
        },
        {
          "internalType": "uint256",
          "name": "duration",
          "type": "uint256"
        }
      ],
      "name": "createNFTOffer",
      "outputs": [
        {
          "internalType": "uint256",
          "name": "",
          "type": "uint256"
        }
      ],
      "stateMutability": "nonpayable",
      "type": "function"
    },
    {
      "inputs": [],
      "name": "gameItem",
      "outputs": [
        {
          "internalType": "contract GameItem",
          "name": "",
          "type": "address"
        }
      ],
      "stateMutability": "view",
      "type": "function"
    },
    {
      "inputs": [],
      "name": "getEconomyStats",
      "outputs": [
        {
          "internalType": "uint256",
          "name": "totalVol",
          "type": "uint256"
        },
        {
          "internalType": "uint256",
          "name": "totalTradesCount",
          "type": "uint256"
        },
        {
          "internalType": "uint256",
          "name": "currentMultiplier",
          "type": "uint256"
        },
        {
          "internalType": "uint256",
          "name": "rewardThreshold",
          "type": "uint256"
        }
      ],
      "stateMutability": "view",
      "type": "function"
    },
    {
      "inputs": [
        {
          "internalType": "uint256",
          "name": "listingId",
          "type": "uint256"
        }
      ],
      "name": "getListing",
      "outputs": [
        {
          "components": [
            {
              "internalType": "address",
              "name": "seller",
              "type": "address"
            },
            {
              "internalType": "uint256",
              "name": "tokenId",
              "type": "uint256"
            },
            {
              "internalType": "uint256",
              "name": "itemId",
              "type": "uint256"
            },
            {
              "internalType": "uint256",
              "name": "amount",
              "type": "uint256"
            },
            {
              "internalType": "uint256",
              "name": "price",
              "type": "uint256"
            },
            {
              "internalType": "bool",
              "name": "isActive",
              "type": "bool"
            },
            {
              "internalType": "bool",
              "name": "isNFT",
              "type": "bool"
            },
            {
              "internalType": "uint256",
              "name": "listingTime",
              "type": "uint256"
            }
          ],
          "internalType": "struct Marketplace.Listing",
          "name": "",
          "type": "tuple"
        }
      ],
      "stateMutability": "view",
      "type": "function"
    },
    {
      "inputs": [
        {
          "internalType": "uint256",
          "name": "tokenId",
          "type": "uint256"
        },
        {
          "internalType": "uint256",
          "name": "offerId",
          "type": "uint256"
        }
      ],
      "name": "getOffer",
      "outputs": [
        {
          "components": [
            {
              "internalType": "address",
              "name": "offerer",
              "type": "address"
            },
            {
              "internalType": "uint256",
              "name": "price",
              "type": "uint256"
            },
            {
              "internalType": "uint256",
              "name": "expirationTime",
              "type": "uint256"
            },
            {
              "internalType": "bool",
              "name": "isActive",
              "type": "bool"
            }
          ],
          "internalType": "struct Marketplace.Offer",
          "name": "",
          "type": "tuple"
        }
      ],
      "stateMutability": "view",
      "type": "function"
    },
    {
      "inputs": [
        {
          "internalType": "uint256",
          "name": "tokenId",
          "type": "uint256"
        }
      ],
      "name": "getOffersForToken",
      "outputs": [
        {
          "components": [
            {
              "internalType": "address",
              "name": "offerer",
              "type": "address"
            },
            {
              "internalType": "uint256",
              "name": "price",
              "type": "uint256"
            },
            {
              "internalType": "uint256",
              "name": "expirationTime",
              "type": "uint256"
            },
            {
              "internalType": "bool",
              "name": "isActive",
              "type": "bool"
            }
          ],
          "internalType": "struct Marketplace.Offer[]",
          "name": "",
          "type": "tuple[]"
        }
      ],
      "stateMutability": "view",
      "type": "function"
    },
    {
      "inputs": [
        {
          "internalType": "address",
          "name": "user",
          "type": "address"
        }
      ],
      "name": "getUserStats",
      "outputs": [
        {
          "internalType": "uint256",
          "name": "volume",
          "type": "uint256"
        },
        {
          "internalType": "uint256",
          "name": "trades",
          "type": "uint256"
        },
        {
          "internalType": "bool",
          "name": "eligibleForReward",
          "type": "bool"
        }
      ],
      "stateMutability": "view",
      "type": "function"
    },
    {
      "inputs": [
        {
          "internalType": "uint256",
          "name": "itemId",
          "type": "uint256"
        },
        {
          "internalType": "uint256",
          "name": "amount",
          "type": "uint256"
        },
        {
          "internalType": "uint256",
          "name": "price",
          "type": "uint256"
        }
      ],
      "name": "listItem",
      "outputs": [],
      "stateMutability": "nonpayable",
      "type": "function"
    },
    {
      "inputs": [
        {
          "internalType": "uint256",
          "name": "tokenId",
          "type": "uint256"
        },
        {
          "internalType": "uint256",
          "name": "price",
          "type": "uint256"
        }
      ],
      "name": "listNFT",
      "outputs": [],
      "stateMutability": "nonpayable",
      "type": "function"
    },
    {
      "inputs": [
        {
          "internalType": "uint256",
          "name": "",
          "type": "uint256"
        }
      ],
      "name": "listings",
      "outputs": [
        {
          "internalType": "address",
          "name": "seller",
          "type": "address"
        },
        {
          "internalType": "uint256",
          "name": "tokenId",
          "type": "uint256"
        },
        {
          "internalType": "uint256",
          "name": "itemId",
          "type": "uint256"
        },
        {
          "internalType": "uint256",
          "name": "amount",
          "type": "uint256"
        },
        {
          "internalType": "uint256",
          "name": "price",
          "type": "uint256"
        },
        {
          "internalType": "bool",
          "name": "isActive",
          "type": "bool"
        },
        {
          "internalType": "bool",
          "name": "isNFT",
          "type": "bool"
        },
        {
          "internalType": "uint256",
          "name": "listingTime",
          "type": "uint256"
        }
      ],
      "stateMutability": "view",
      "type": "function"
    },
    {
      "inputs": [],
      "name": "nextListingId",
      "outputs": [
        {
          "internalType": "uint256",
          "name": "",
          "type": "uint256"
        }
      ],
      "stateMutability": "view",
      "type": "function"
    },
    {
      "inputs": [],
      "name": "nextOfferId",
      "outputs": [
        {
          "internalType": "uint256",
          "name": "",
          "type": "uint256"
        }
      ],
      "stateMutability": "view",
      "type": "function"
    },
    {
      "inputs": [
        {
          "internalType": "uint256",
          "name": "",
          "type": "uint256"
        }
      ],
      "name": "offerCount",
      "outputs": [
        {
          "internalType": "uint256",
          "name": "",
          "type": "uint256"
        }
      ],
      "stateMutability": "view",
      "type": "function"
    },
    {
      "inputs": [
        {
          "internalType": "uint256",
          "name": "",
          "type": "uint256"
        },
        {
          "internalType": "uint256",
          "name": "",
          "type": "uint256"
        }
      ],
      "name": "offers",
      "outputs": [
        {
          "internalType": "address",
          "name": "offerer",
          "type": "address"
        },
        {
          "internalType": "uint256",
          "name": "price",
          "type": "uint256"
        },
        {
          "internalType": "uint256",
          "name": "expirationTime",
          "type": "uint256"
        },
        {
          "internalType": "bool",
          "name": "isActive",
          "type": "bool"
        }
      ],
      "stateMutability": "view",
      "type": "function"
    },
    {
      "inputs": [],
      "name": "owner",
      "outputs": [
        {
          "internalType": "address",
          "name": "",
          "type": "address"
        }
      ],
      "stateMutability": "view",
      "type": "function"
    },
    {
      "inputs": [],
      "name": "pause",
      "outputs": [],
      "stateMutability": "nonpayable",
      "type": "function"
    },
    {
      "inputs": [],
      "name": "paused",
      "outputs": [
        {
          "internalType": "bool",
          "name": "",
          "type": "bool"
        }
      ],
      "stateMutability": "view",
      "type": "function"
    },
    {
      "inputs": [],
      "name": "renounceOwnership",
      "outputs": [],
      "stateMutability": "nonpayable",
      "type": "function"
    },
    {
      "inputs": [
        {
          "internalType": "uint256",
          "name": "newFee",
          "type": "uint256"
        }
      ],
      "name": "setTradingFee",
      "outputs": [],
      "stateMutability": "nonpayable",
      "type": "function"
    },
    {
      "inputs": [
        {
          "internalType": "uint256",
          "name": "rate",
          "type": "uint256"
        }
      ],
      "name": "setVolumeRewardRate",
      "outputs": [],
      "stateMutability": "nonpayable",
      "type": "function"
    },
    {
      "inputs": [
        {
          "internalType": "uint256",
          "name": "threshold",
          "type": "uint256"
        }
      ],
      "name": "setVolumeRewardThreshold",
      "outputs": [],
      "stateMutability": "nonpayable",
      "type": "function"
    },
    {
      "inputs": [],
      "name": "totalTrades",
      "outputs": [
        {
          "internalType": "uint256",
          "name": "",
          "type": "uint256"
        }
      ],
      "stateMutability": "view",
      "type": "function"
    },
    {
      "inputs": [],
      "name": "totalVolume",
      "outputs": [
        {
          "internalType": "uint256",
          "name": "",
          "type": "uint256"
        }
      ],
      "stateMutability": "view",
      "type": "function"
    },
    {
      "inputs": [],
      "name": "tradingFee",
      "outputs": [
        {
          "internalType": "uint256",
          "name": "",
          "type": "uint256"
        }
      ],
      "stateMutability": "view",
      "type": "function"
    },
    {
      "inputs": [
        {
          "internalType": "address",
          "name": "newOwner",
          "type": "address"
        }
      ],
      "name": "transferOwnership",
      "outputs": [],
      "stateMutability": "nonpayable",
      "type": "function"
    },
    {
      "inputs": [],
      "name": "unpause",
      "outputs": [],
      "stateMutability": "nonpayable",
      "type": "function"
    },
    {
      "inputs": [
        {
          "internalType": "address",
          "name": "",
          "type": "address"
        }
      ],
      "name": "userTrades",
      "outputs": [
        {
          "internalType": "uint256",
          "name": "",
          "type": "uint256"
        }
      ],
      "stateMutability": "view",
      "type": "function"
    },
    {
      "inputs": [
        {
          "internalType": "address",
          "name": "",
          "type": "address"
        }
      ],
      "name": "userVolume",
      "outputs": [
        {
          "internalType": "uint256",
          "name": "",
          "type": "uint256"
        }
      ],
      "stateMutability": "view",
      "type": "function"
    },
    {
      "inputs": [],
      "name": "volumeMultiplier",
      "outputs": [
        {
          "internalType": "uint256",
          "name": "",
          "type": "uint256"
        }
      ],
      "stateMutability": "view",
      "type": "function"
    },
    {
      "inputs": [],
      "name": "volumeRewardRate",
      "outputs": [
        {
          "internalType": "uint256",
          "name": "",
          "type": "uint256"
        }
      ],
      "stateMutability": "view",
      "type": "function"
    },
    {
      "inputs": [],
      "name": "volumeRewardThreshold",
      "outputs": [
        {
          "internalType": "uint256",
          "name": "",
          "type": "uint256"
        }
      ],
      "stateMutability": "view",
      "type": "function"
    },
    {
      "inputs": [],
      "name": "withdrawFees",
      "outputs": [],
      "stateMutability": "nonpayable",
      "type": "function"
    }
  ],
  "bytecode": "0x6080346200025057601f62002b8738819003918201601f191683019291906001600160401b0384118385101762000255578160609284926040968752833981010312620002505762000051816200026b565b906200006d8362000065602084016200026b565b92016200026b565b33156200023857600080546001600160a01b0319808216339081178455875191956001600160a01b039490938516907f8be0079c531659141344cd1fd0a4f28419497f9722a3daafe3b4186f6b6457e09080a36001805560fa60055560016009556001600a556064600f55683635c9adc5dea00000601055603260115582861615620001ea57508116918215620001985716928315620001485760025490610100600160a81b039060081b1690610100600160a81b031916176002558160035416176003556004541617600455516129069081620002818239f35b845162461bcd60e51b8152602060048201526024808201527f4d61726b6574706c6163653a20696e76616c696420434154436f696e206164646044820152637265737360e01b6064820152608490fd5b855162461bcd60e51b815260206004820152602560248201527f4d61726b6574706c6163653a20696e76616c69642047616d654974656d206164604482015264647265737360d81b6064820152608490fd5b62461bcd60e51b815260206004820152602360248201527f4d61726b6574706c6163653a20696e76616c6964204361744e4654206164647260448201526265737360e81b6064820152608490fd5b8351631e4fbdf760e01b815260006004820152602490fd5b600080fd5b634e487b7160e01b600052604160045260246000fd5b51906001600160a01b0382168203620002505756fe608080604052600436101561001357600080fd5b600090813560e01c9081630daf13041461215557508063107a274a1461204d5780632576feb514612016578063305a67a814611f5757806338353eb714611f345780633b50fec014611c165780633cd0cd6714611b755780633f4ba83a14611b0a578063476343ee146119de5780634d03a9a5146119805780634e43603a1461191d57806351ed82881461162557806356f43352146116075780635c975abb146115e45780635d6a618d146115c85780635e8e9cd61461159f5780635f5d0655146115815780635f81a57c146115635780636a6ae606146115265780636bab37ec146114fc578063715018a6146114a257806381785ffe146113055780638456cb59146112aa578063885549f61461128c5780638bf358431461126e5780638da5cb5b1461124757806394383f1414610fdc5780639979c00914610bfc5780639c75889114610bd3578063a6769ef814610b92578063aaccf1ec14610b74578063b0d54bcf14610ad7578063b769ff0c14610ab9578063bc063e1a14610a9c578063d0b6429214610a2b578063d45557cc146108ee578063daedb9e9146105ce578063de74e57b14610547578063e275c99714610529578063ec16b94a1461029e578063ed03e78c146102825763f2fde38b146101ef57600080fd5b3461027f57602036600319011261027f576004356001600160a01b038181169182900361027b5761021e6125dd565b811561026257600054826001600160601b0360a01b821617600055167f8be0079c531659141344cd1fd0a4f28419497f9722a3daafe3b4186f6b6457e0600080a380f35b604051631e4fbdf760e01b815260048101849052602490fd5b8280fd5b80fd5b503461027f578060031936011261027f57602060405160328152f35b503461027f576102ad36612193565b6102b9939291936125bf565b6102c1612609565b6102cc841515612553565b6102d78115156124f5565b600354604051627eeac760e11b8152336004820152602481018490526020956001600160a01b0393929091908416908781604481855afa9081156104995790839188916104f3575b50106104a45760405163e985e9c560e01b81523360048201523060248201529596879690918290829060449082905afa80156104995761036691889161046c575b5061234d565b60095493610373856124e6565b60095560068560405192610386846121ad565b33845289858501818152604086018b8152606087019089825260808801928b845260a089019560018752604060c08b019680885260e08c0199428b5281528a8d52209951166001600160601b0360a01b8a54161789555160018901555160028801555160038701555160048601556104116005860192511515839060ff801983541691151516179055565b51151561ff0082549160081b169061ff0019161790555191015560405194855284015260408301528260608301527f73bd122afd25012f080d72b11494744693011d44ac30b059415c5f6aaf0904e960803393a46001805580f35b61048c9150833d8511610492575b6104848183612210565b810190612335565b38610360565b503d61047a565b6040513d89823e3d90fd5b60405162461bcd60e51b815260048101889052602160248201527f4d61726b6574706c6163653a20696e73756666696369656e742062616c616e636044820152606560f81b6064820152608490fd5b809250898092503d8311610522575b61050c8183612210565b8101031261051d578290513861031f565b600080fd5b503d610502565b503461027f578060031936011261027f576020600c54604051908152f35b503461027f57602036600319011261027f57604061010091600435815260066020522060018060a01b038154169060ff6001820154916002810154600382015460048301549160066005850154940154956040519788526020880152604087015260608601526080850152818116151560a085015260081c16151560c083015260e0820152f35b503461027f576105dd36612193565b9190926105e86125bf565b6105f0612609565b6105fb8415156124f5565b82156108945760018060a01b03938493600254604051906331a9108f60e11b82528560048301528160248160209a8b9460081c165afa9081156107da578491610867575b5085163314610816576024868660045416604051928380926370a0823160e01b82523360048301525afa80156107da57839085906107e5575b6106849250101561244c565b600a5494610691866124e6565b600a556107156106a183426125b2565b6003604051916106b0836121f4565b3383528a830190878252604084019081526060840191600183528a8a5260078d5260408a208c8b528d528660408b209551166001600160601b0360a01b86541617855551600185015551600284015551151591019060ff801983541691151516179055565b848452600887526040842061072a81546124e6565b9055600480546040516323b872dd60e01b815233928101929092523060248301526044820185905290918891839160649183918991165af180156107da579061077a92916107bd575b50426125b2565b90604051928352858301526040820152827faf0e93d4d14d52e8ef0c37cb2deb0558a9875c6a30cf45ac57e9eccadf2ba0ac60603393a460018055604051908152f35b6107d390883d8a11610492576104848183612210565b5038610773565b6040513d86823e3d90fd5b50508681813d831161080f575b6107fc8183612210565b8101031261051d57826106849151610678565b503d6107f2565b60405162461bcd60e51b8152600481018790526024808201527f4d61726b6574706c6163653a2063616e6e6f74206f66666572206f6e206f776e6044820152630813919560e21b6064820152608490fd5b6108879150873d891161088d575b61087f8183612210565b8101906122ca565b3861063f565b503d610875565b60405162461bcd60e51b815260206004820152602c60248201527f4d61726b6574706c6163653a206475726174696f6e206d75737420626520677260448201526b06561746572207468616e20360a41b6064820152608490fd5b503461027f576108fd3661217d565b906109066125bf565b61090e612609565b82526020600781526040832082845281526040832090600382019161093660ff84541661227e565b80546001600160a01b0390811633036109e657600480546001939093015460405163a9059cbb60e01b815233928101929092526024820152918391839160449183918a91165af180156109db576109bd575b5050805460ff191690557fc28b4aed030bfacc245c0501326e1beb8c0ef0d60e4edc21067fdeb52da2a7aa8280a26001805580f35b816109d392903d10610492576104848183612210565b503880610988565b6040513d87823e3d90fd5b60405162461bcd60e51b815260048101849052601c60248201527f4d61726b6574706c6163653a206e6f7420746865206f666665726572000000006044820152606490fd5b503461027f57602036600319011261027f57600435610a486125dd565b6103e88111610a575760115580f35b60405162461bcd60e51b815260206004820152601a60248201527f4d61726b6574706c6163653a207261746520746f6f20686967680000000000006044820152606490fd5b503461027f578060031936011261027f5760206040516103e88152f35b503461027f578060031936011261027f576020601154604051908152f35b503461027f57602036600319011261027f57600435610af46125dd565b6103e88111610b2f576020817fa3dfe13986da4bcfdc32f544ebe130cb8ec20a2afc45e7c3994975076a08e57892600555604051908152a180f35b60405162461bcd60e51b815260206004820152601960248201527f4d61726b6574706c6163653a2066656520746f6f2068696768000000000000006044820152606490fd5b503461027f578060031936011261027f576020600954604051908152f35b503461027f57602036600319011261027f576004356001600160a01b03811690819003610bcf578160409160209352600d83522054604051908152f35b5080fd5b503461027f578060031936011261027f576004546040516001600160a01b039091168152602090f35b503461027f57610c0b3661217d565b90610c146125bf565b610c1c612609565b8083526006602052604083209060ff6005830154610c3b828216612232565b60081c16610f9857610c5860018060a01b038354163314156123f4565b610c63831515612553565b6003820154808411610f545760048301548115610f3e57610c8691859104612399565b612710610c9560055483612399565b0490610ca182826123c2565b600480546040516370a0823160e01b815233928101929092526001600160a01b031690602081602481855afa8015610efd5784908a90610f08575b610ce89250101561244c565b6040516323b872dd60e01b8082523360048301523060248301526044820186905290929091602090849060649082908d905af1918215610efd57610d7093602093610ee0575b5060048054895460405193845233928401929092526001600160a01b0391821660248401526044830193909352909384929091169082908b9082906064820190565b03925af1801561049957610ec1575b50600354845460028601805490969289926001600160a01b0391821692911690823b15610ebd5760c48492836040519586948593637921219560e11b8552600485015233602485015260448401528d606484015260a060848401528160a48401525af18015610eb257610e9a575b50508054610e0790839033906001600160a01b031661262c565b610e158660038301546123c2565b806003830155610e298360048401546123c2565b600483015515610e89575b60018060a01b039054169354946040519587875260208701526040860152606085015260808401527fc98f1cedf45efce0ed2092f023509df0de77a95270af296b406b0db2ef8b283460a03394a46001805580f35b60058101805460ff19169055610e34565b610ea3906121e0565b610eae578638610ded565b8680fd5b6040513d84823e3d90fd5b8380fd5b610ed99060203d602011610492576104848183612210565b5038610d7f565b610ef690843d8611610492576104848183612210565b5038610d2e565b6040513d8b823e3d90fd5b50506020813d602011610f36575b81610f2360209383612210565b8101031261051d5783610ce89151610cdc565b3d9150610f16565b634e487b7160e01b600052601260045260246000fd5b606460405162461bcd60e51b815260206004820152602060248201527f4d61726b6574706c6163653a20696e73756666696369656e7420616d6f756e746044820152fd5b606460405162461bcd60e51b815260206004820152602060248201527f4d61726b6574706c6163653a206e6f7420616e206974656d206c697374696e676044820152fd5b503461027f57610feb3661217d565b610ff36125bf565b610ffb612609565b6110068115156124f5565b60018060a01b03908160025460081c169084604051936331a9108f60e11b85528560048601526020948581602481885afa801561121f5761105291849161122a575b50821633146122e9565b60405163020604bf60e21b815260048101879052938585602481845afa801561121f5786958491611202575b50821630149081156111a1575b509061109860069261234d565b6009549485916110a7836124e6565b6009556040519485916110b9836121ad565b3383528383018b815260408401908382526060850192848452604060808701958c87528a60a089019960018b5260e060c08b019a60018c52019b428d52835252209951166001600160601b0360a01b8a54161789555160018901555160028801555160038701555160048601556111436005860192511515839060ff801983541691151516179055565b51151561ff0082549160081b169061ff0019161790555191015584604051938185528401526040830152600160608301527f73bd122afd25012f080d72b11494744693011d44ac30b059415c5f6aaf0904e960803393a46001805580f35b60405163e985e9c560e01b8152336004820152306024820152959150859060449082905afa908115610eb257611098600692879685916111e5575b5091925061108b565b6111fc9150873d8911610492576104848183612210565b386111dc565b6112199150863d881161088d5761087f8183612210565b3861107e565b6040513d85823e3d90fd5b6112419150873d891161088d5761087f8183612210565b38611048565b503461027f578060031936011261027f57546040516001600160a01b039091168152602090f35b503461027f578060031936011261027f576020601054604051908152f35b503461027f578060031936011261027f576020600f54604051908152f35b503461027f578060031936011261027f576112c36125dd565b6112cb6125bf565b600160ff1960025416176002557f62e78cea01bee320cd4e420270b5ea74000d11b0c9f74754ebdbfc544b05a2586020604051338152a180f35b503461027f57602080600319360112610bcf576004358083526008825260408320549061134a611334836124a4565b926113426040519485612210565b8084526124a4565b601f1901845b818110611486575050600a54908460015b8381106113dd57505050506040519180830190808452825180925280604085019301945b8281106113925784840385f35b909192826080826113ce6001948a516060809160018060a01b038151168452602081015160208501526040810151604085015201511515910152565b01960191019492919094611385565b8287959752600780875260408620828752875260ff600391818360408a20015416611411575b505050600101959395611361565b91600193949161147d93878a528a5260408920868a528a5260408920916040519261143b846121f4565b868060a01b038154168452868101548c850152600281015460408501520154161515606082015261146c828b6124bc565b52611477818a6124bc565b506124e6565b91903880611403565b84906114939694966123cf565b82828901015201949294611350565b503461027f578060031936011261027f576114bb6125dd565b600080546001600160a01b0319811682556001600160a01b03167f8be0079c531659141344cd1fd0a4f28419497f9722a3daafe3b4186f6b6457e08280a380f35b503461027f57602036600319011261027f5760406020916004358152600883522054604051908152f35b503461027f57602036600319011261027f576004356001600160a01b03811690819003610bcf578160409160209352600e83522054604051908152f35b503461027f578060031936011261027f576020600b54604051908152f35b503461027f578060031936011261027f576020600a54604051908152f35b503461027f578060031936011261027f576003546040516001600160a01b039091168152602090f35b503461027f578060031936011261027f57602060405160c88152f35b503461027f578060031936011261027f57602060ff600254166040519015158152f35b503461027f578060031936011261027f576020600554604051908152f35b503461027f57602080600319360112610bcf576004356116436125bf565b61164b612609565b808352600682526040832090600582019160ff835461166b828216612232565b60081c16156118d85780546001600160a01b039061168d9082163314156123f4565b856004830154916127106116a360055485612399565b04936116af85856123c2565b826004541690604051906370a0823160e01b82523360048301528a82602481865afa9182156118945788928891889161189f575b50906116f091101561244c565b6040516323b872dd60e01b8082523360048301523060248301526044820193909352928b90849060649082908a905af191821561189457611772938c93611877575b50856004541690878787541691604051968795869485938452336004850160409194939294606082019560018060a01b0380921683521660208201520152565b03925af180156107da5761185a575b508160025460081c1696828254169760018301988954823b15610eae57604051632142170760e11b81526001600160a01b0392909216600483015233602483015260448201529085908290606490829084905af19081156109db578591611846575b50506117f385338585541661262c565b60ff1981541690555416945495604051968752860152856040860152606085015260808401527fc98f1cedf45efce0ed2092f023509df0de77a95270af296b406b0db2ef8b283460a03394a46001805580f35b61184f906121e0565b610ebd5783386117e3565b61187090893d8b11610492576104848183612210565b5038611781565b61188d90843d8611610492576104848183612210565b5038611732565b6040513d88823e3d90fd5b9350505094508981813d83116118d1575b6118ba8183612210565b8101031261051d57518a94879187906116f06116e3565b503d6118b0565b60405162461bcd60e51b815260048101859052601f60248201527f4d61726b6574706c6163653a206e6f7420616e204e4654206c697374696e67006044820152606490fd5b503461027f57602036600319011261027f576004356001600160a01b03811690819003610bcf57906060918152600d602052604081205490600e60205260408082205491600d602052205460105411159060405192835260208301526040820152f35b503461027f5760406080916119943661217d565b90825260076020528282209082526020522060018060a01b038154169060018101549060ff6003600283015492015416916040519384526020840152604083015215156060820152f35b503461027f578060031936011261027f576119f76125dd565b60018060a01b038060045416604051906370a0823160e01b82523060048301526020928383602481855afa9283156109db578593611adb575b508215611a9857845460405163a9059cbb60e01b815291166001600160a01b031660048201526024810192909252829082908186816044810103925af1801561121f57611a7b578280f35b81611a9192903d10610492576104848183612210565b5038808280f35b6064846040519062461bcd60e51b825280600483015260248201527f4d61726b6574706c6163653a206e6f206665657320746f2077697468647261776044820152fd5b9092508381813d8311611b03575b611af38183612210565b8101031261051d57519138611a30565b503d611ae9565b503461027f578060031936011261027f57611b236125dd565b60025460ff811615611b635760ff19166002557f5db9ee0a495bf2e6ff9c91a7834c1ba4fdd244a5e8aa4e537bd38aeae4b073aa6020604051338152a180f35b604051638dfc202b60e01b8152600490fd5b503461027f576040608091611b893661217d565b90611b926123cf565b50825260076020528282209082526020522060ff600360405192611bb5846121f4565b60018060a01b038154168452600181015460208501526002810154604085015201541615156060820152611c1460405180926060809160018060a01b038151168452602081015160208501526040810151604085015201511515910152565bf35b503461027f57611c253661217d565b90611c2e6125bf565b611c36612609565b80835260209160078352604084208185528352604084206003810190611c5f60ff83541661227e565b60028101544211611eef576002546040516331a9108f60e11b8152600481018690526001600160a01b039160081c8216908781602481855afa8015610efd57611cb3918a91611ed2575b50831633146122e9565b60405163020604bf60e21b8152600481018790528781602481855afa908115610efd578991611eb5575b50821630148015611e50575b611cf3915061234d565b600182015491612710611d0860055485612399565b04938888611d4d611d1988886123c2565b6004805460405163a9059cbb60e01b8152339281019290925260248201929092529384929188169183919082906044820190565b03925af18015611e2857611e33575b508260025460081c168984845416823b15610bcf57604051632142170760e11b81523360048201526001600160a01b03919091166024820152604481018a9052918290606490829084905af18015611e2857611e11575b50908291611dc6858b958454163361262c565b60ff198154169055541695604051958652850152604084015260608301527faeaa1732cf235f13cd6ec84bcc625b0ddcf60fab4b4f57b2464ae8f686ab546e60803393a46001805580f35b611e1f9099919392996121e0565b97909138611db3565b6040513d8c823e3d90fd5b611e4990893d8b11610492576104848183612210565b5038611d5c565b5060405163e985e9c560e01b8152336004820152306024820152908790829060449082905afa8015611eaa57611cf3918991611e8d575b50611ce9565b611ea49150883d8a11610492576104848183612210565b38611e87565b6040513d8a823e3d90fd5b611ecc9150883d8a1161088d5761087f8183612210565b38611cdd565b611ee99150893d8b1161088d5761087f8183612210565b38611ca9565b60405162461bcd60e51b815260048101869052601a60248201527f4d61726b6574706c6163653a206f6666657220657870697265640000000000006044820152606490fd5b503461027f57602036600319011261027f57611f4e6125dd565b60043560105580f35b503461027f57602036600319011261027f57600435611f746125bf565b8082526006602052604082206005810190815490611f9460ff8316612232565b546001600160a01b03163303611fd15760ff191690557f411aee90354c51b1b04cd563fcab2617142a9d50da19232d888547c8a1b7fd8a8280a280f35b60405162461bcd60e51b815260206004820152601b60248201527f4d61726b6574706c6163653a206e6f74207468652073656c6c657200000000006044820152606490fd5b503461027f578060031936011261027f576080600b54600c54600f5460105491604051938452602084015260408301526060820152f35b503461027f57602036600319011261027f576040816101009260e08351612073816121ad565b82815282602082015282858201528260608201528260808201528260a08201528260c0820152015260043581526006602052206040516120b2816121ad565b60018060a01b0382541691828252600181015490602083019182526002810154604084019081526003820154606085019081526004830154916080860192835260058401549460e0600660a089019660ff89161515885260ff60c08b019960081c16151589520154970196875260405197885251602088015251604087015251606086015251608085015251151560a084015251151560c08301525160e0820152f35b905034610bcf5781600319360112610bcf5760025460081c6001600160a01b03168152602090f35b604090600319011261051d576004359060243590565b606090600319011261051d57600435906024359060443590565b610100810190811067ffffffffffffffff8211176121ca57604052565b634e487b7160e01b600052604160045260246000fd5b67ffffffffffffffff81116121ca57604052565b6080810190811067ffffffffffffffff8211176121ca57604052565b90601f8019910116810190811067ffffffffffffffff8211176121ca57604052565b1561223957565b60405162461bcd60e51b815260206004820152601f60248201527f4d61726b6574706c6163653a206c697374696e67206e6f7420616374697665006044820152606490fd5b1561228557565b60405162461bcd60e51b815260206004820152601d60248201527f4d61726b6574706c6163653a206f66666572206e6f74206163746976650000006044820152606490fd5b9081602091031261051d57516001600160a01b038116810361051d5790565b156122f057565b60405162461bcd60e51b815260206004820152601a60248201527f4d61726b6574706c6163653a206e6f7420746865206f776e65720000000000006044820152606490fd5b9081602091031261051d5751801515810361051d5790565b1561235457565b60405162461bcd60e51b815260206004820152601960248201527f4d61726b6574706c6163653a206e6f7420617070726f766564000000000000006044820152606490fd5b818102929181159184041417156123ac57565b634e487b7160e01b600052601160045260246000fd5b919082039182116123ac57565b604051906123dc826121f4565b60006060838281528260208201528260408201520152565b156123fb57565b60405162461bcd60e51b815260206004820152602360248201527f4d61726b6574706c6163653a2063616e6e6f7420627579206f776e206c697374604482015262696e6760e81b6064820152608490fd5b1561245357565b60405162461bcd60e51b815260206004820152602360248201527f4d61726b6574706c6163653a20696e73756666696369656e742043415420636f604482015262696e7360e81b6064820152608490fd5b67ffffffffffffffff81116121ca5760051b60200190565b80518210156124d05760209160051b010190565b634e487b7160e01b600052603260045260246000fd5b60001981146123ac5760010190565b156124fc57565b60405162461bcd60e51b815260206004820152602960248201527f4d61726b6574706c6163653a207072696365206d75737420626520677265617460448201526806572207468616e20360bc1b6064820152608490fd5b1561255a57565b60405162461bcd60e51b815260206004820152602a60248201527f4d61726b6574706c6163653a20616d6f756e74206d75737420626520677265616044820152690746572207468616e20360b41b6064820152608490fd5b919082018092116123ac57565b60ff600254166125cb57565b60405163d93c066560e01b8152600490fd5b6000546001600160a01b031633036125f157565b60405163118cdaa760e01b8152336004820152602490fd5b60026001541461261a576002600155565b604051633ee5aeb560e01b8152600490fd5b909161263a81600b546125b2565b600b55612648600c546124e6565b600c5560018060a01b0390818316600092818452600d602052604084206126708482546125b2565b9055851691828452600d60205261268c604085209182546125b2565b90558252600e602052604082206126a381546124e6565b90558152600e602052604081206126ba81546124e6565b9055600b54806126db575b5050906126d46126d992612755565b612755565b565b683635c9adc5dea00000900460058102908082046005149015171561274157606401908160641161272d57506126d9929160c8826126d493600f5511612723575b91926126c5565b60c8600f5561271c565b634e487b7160e01b81526011600452602490fd5b634e487b7160e01b82526011600452602482fd5b60018060a01b0380821691600092808452602091600d835260409384862054601054811015612788575b50505050505050565b6127986127109160115490612399565b049182151580612857575b1561277f5760048054875163a9059cbb60e01b81526001600160a01b0393909316918301919091526024820184905290918591839160449183918b91165af1801561284d57848493600d9695937fff030d21f37c16448f670dc2875f27ff6f6ec490bc2aa727ff2e9bdbb30e2b3c93612830575b508751908152a28452528120553880808080808061277f565b61284690833d8511610492576104848183612210565b5038612817565b85513d88823e3d90fd5b5060248583600454168851928380926370a0823160e01b82523060048301525afa9081156128c6579084918991612891575b5010156127a3565b809250878092503d83116128bf575b6128aa8183612210565b810103126128bb5783905138612889565b8780fd5b503d6128a0565b87513d8a823e3d90fdfea264697066735822122086406de575ba2d26f3dacb9eefdc7e624a9a7e3f9cc27684153a403b53cf14ee64736f6c63430008180033",
  "linkReferences": {},
  "deployedLinkReferences": {}
}