{
  "_format": "hh-sol-artifact-1",
  "contractName": "GameItem",
  "sourceName": "contracts/GameItem.sol",
  "abi": [
    {
      "inputs": [],
      "stateMutability": "nonpayable",
      "type": "constructor"
    },
    {
      "inputs": [
        {
          "internalType": "address",
          "name": "sender",
          "type": "address"
        },
        {
          "internalType": "uint256",
          "name": "balance",
          "type": "uint256"
        },
        {
          "internalType": "uint256",
          "name": "needed",
          "type": "uint256"
        },
        {
          "internalType": "uint256",
          "name": "tokenId",
          "type": "uint256"
        }
      ],
      "name": "ERC1155InsufficientBalance",
      "type": "error"
    },
    {
      "inputs": [
        {
          "internalType": "address",
          "name": "approver",
          "type": "address"
        }
      ],
      "name": "ERC1155InvalidApprover",
      "type": "error"
    },
    {
      "inputs": [
        {
          "internalType": "uint256",
          "name": "idsLength",
          "type": "uint256"
        },
        {
          "internalType": "uint256",
          "name": "valuesLength",
          "type": "uint256"
        }
      ],
      "name": "ERC1155InvalidArrayLength",
      "type": "error"
    },
    {
      "inputs": [
        {
          "internalType": "address",
          "name": "operator",
          "type": "address"
        }
      ],
      "name": "ERC1155InvalidOperator",
      "type": "error"
    },
    {
      "inputs": [
        {
          "internalType": "address",
          "name": "receiver",
          "type": "address"
        }
      ],
      "name": "ERC1155InvalidReceiver",
      "type": "error"
    },
    {
      "inputs": [
        {
          "internalType": "address",
          "name": "sender",
          "type": "address"
        }
      ],
      "name": "ERC1155InvalidSender",
      "type": "error"
    },
    {
      "inputs": [
        {
          "internalType": "address",
          "name": "operator",
          "type": "address"
        },
        {
          "internalType": "address",
          "name": "owner",
          "type": "address"
        }
      ],
      "name": "ERC1155MissingApprovalForAll",
      "type": "error"
    },
    {
      "inputs": [],
      "name": "EnforcedPause",
      "type": "error"
    },
    {
      "inputs": [],
      "name": "ExpectedPause",
      "type": "error"
    },
    {
      "inputs": [
        {
          "internalType": "address",
          "name": "owner",
          "type": "address"
        }
      ],
      "name": "OwnableInvalidOwner",
      "type": "error"
    },
    {
      "inputs": [
        {
          "internalType": "address",
          "name": "account",
          "type": "address"
        }
      ],
      "name": "OwnableUnauthorizedAccount",
      "type": "error"
    },
    {
      "inputs": [],
      "name": "ReentrancyGuardReentrantCall",
      "type": "error"
    },
    {
      "anonymous": false,
      "inputs": [
        {
          "indexed": true,
          "internalType": "address",
          "name": "account",
          "type": "address"
        },
        {
          "indexed": true,
          "internalType": "address",
          "name": "operator",
          "type": "address"
        },
        {
          "indexed": false,
          "internalType": "bool",
          "name": "approved",
          "type": "bool"
        }
      ],
      "name": "ApprovalForAll",
      "type": "event"
    },
    {
      "anonymous": false,
      "inputs": [
        {
          "indexed": true,
          "internalType": "address",
          "name": "to",
          "type": "address"
        },
        {
          "indexed": true,
          "internalType": "uint256",
          "name": "itemId",
          "type": "uint256"
        },
        {
          "indexed": false,
          "internalType": "uint256",
          "name": "amount",
          "type": "uint256"
        }
      ],
      "name": "ItemMinted",
      "type": "event"
    },
    {
      "anonymous": false,
      "inputs": [
        {
          "indexed": true,
          "internalType": "uint256",
          "name": "itemId",
          "type": "uint256"
        },
        {
          "indexed": false,
          "internalType": "uint256",
          "name": "maxSupply",
          "type": "uint256"
        }
      ],
      "name": "MaxSupplySet",
      "type": "event"
    },
    {
      "anonymous": false,
      "inputs": [
        {
          "indexed": true,
          "internalType": "address",
          "name": "previousOwner",
          "type": "address"
        },
        {
          "indexed": true,
          "internalType": "address",
          "name": "newOwner",
          "type": "address"
        }
      ],
      "name": "OwnershipTransferred",
      "type": "event"
    },
    {
      "anonymous": false,
      "inputs": [
        {
          "indexed": false,
          "internalType": "address",
          "name": "account",
          "type": "address"
        }
      ],
      "name": "Paused",
      "type": "event"
    },
    {
      "anonymous": false,
      "inputs": [
        {
          "indexed": true,
          "internalType": "uint256",
          "name": "itemId",
          "type": "uint256"
        },
        {
          "indexed": false,
          "internalType": "uint256",
          "name": "price",
          "type": "uint256"
        }
      ],
      "name": "PriceSet",
      "type": "event"
    },
    {
      "anonymous": false,
      "inputs": [
        {
          "indexed": true,
          "internalType": "address",
          "name": "operator",
          "type": "address"
        },
        {
          "indexed": true,
          "internalType": "address",
          "name": "from",
          "type": "address"
        },
        {
          "indexed": true,
          "internalType": "address",
          "name": "to",
          "type": "address"
        },
        {
          "indexed": false,
          "internalType": "uint256[]",
          "name": "ids",
          "type": "uint256[]"
        },
        {
          "indexed": false,
          "internalType": "uint256[]",
          "name": "values",
          "type": "uint256[]"
        }
      ],
      "name": "TransferBatch",
      "type": "event"
    },
    {
      "anonymous": false,
      "inputs": [
        {
          "indexed": true,
          "internalType": "address",
          "name": "operator",
          "type": "address"
        },
        {
          "indexed": true,
          "internalType": "address",
          "name": "from",
          "type": "address"
        },
        {
          "indexed": true,
          "internalType": "address",
          "name": "to",
          "type": "address"
        },
        {
          "indexed": false,
          "internalType": "uint256",
          "name": "id",
          "type": "uint256"
        },
        {
          "indexed": false,
          "internalType": "uint256",
          "name": "value",
          "type": "uint256"
        }
      ],
      "name": "TransferSingle",
      "type": "event"
    },
    {
      "anonymous": false,
      "inputs": [
        {
          "indexed": false,
          "internalType": "string",
          "name": "value",
          "type": "string"
        },
        {
          "indexed": true,
          "internalType": "uint256",
          "name": "id",
          "type": "uint256"
        }
      ],
      "name": "URI",
      "type": "event"
    },
    {
      "anonymous": false,
      "inputs": [
        {
          "indexed": false,
          "internalType": "address",
          "name": "account",
          "type": "address"
        }
      ],
      "name": "Unpaused",
      "type": "event"
    },
    {
      "inputs": [
        {
          "internalType": "address",
          "name": "account",
          "type": "address"
        },
        {
          "internalType": "uint256",
          "name": "id",
          "type": "uint256"
        }
      ],
      "name": "balanceOf",
      "outputs": [
        {
          "internalType": "uint256",
          "name": "",
          "type": "uint256"
        }
      ],
      "stateMutability": "view",
      "type": "function"
    },
    {
      "inputs": [
        {
          "internalType": "address[]",
          "name": "accounts",
          "type": "address[]"
        },
        {
          "internalType": "uint256[]",
          "name": "ids",
          "type": "uint256[]"
        }
      ],
      "name": "balanceOfBatch",
      "outputs": [
        {
          "internalType": "uint256[]",
          "name": "",
          "type": "uint256[]"
        }
      ],
      "stateMutability": "view",
      "type": "function"
    },
    {
      "inputs": [
        {
          "internalType": "uint256",
          "name": "itemId",
          "type": "uint256"
        }
      ],
      "name": "getItemType",
      "outputs": [
        {
          "internalType": "uint8",
          "name": "",
          "type": "uint8"
        }
      ],
      "stateMutability": "view",
      "type": "function"
    },
    {
      "inputs": [
        {
          "internalType": "address",
          "name": "account",
          "type": "address"
        },
        {
          "internalType": "address",
          "name": "operator",
          "type": "address"
        }
      ],
      "name": "isApprovedForAll",
      "outputs": [
        {
          "internalType": "bool",
          "name": "",
          "type": "bool"
        }
      ],
      "stateMutability": "view",
      "type": "function"
    },
    {
      "inputs": [
        {
          "internalType": "uint256",
          "name": "",
          "type": "uint256"
        }
      ],
      "name": "itemPrices",
      "outputs": [
        {
          "internalType": "uint256",
          "name": "",
          "type": "uint256"
        }
      ],
      "stateMutability": "view",
      "type": "function"
    },
    {
      "inputs": [
        {
          "internalType": "uint256",
          "name": "",
          "type": "uint256"
        }
      ],
      "name": "itemSupply",
      "outputs": [
        {
          "internalType": "uint256",
          "name": "",
          "type": "uint256"
        }
      ],
      "stateMutability": "view",
      "type": "function"
    },
    {
      "inputs": [
        {
          "internalType": "uint256",
          "name": "",
          "type": "uint256"
        }
      ],
      "name": "itemTypes",
      "outputs": [
        {
          "internalType": "uint8",
          "name": "",
          "type": "uint8"
        }
      ],
      "stateMutability": "view",
      "type": "function"
    },
    {
      "inputs": [
        {
          "internalType": "uint256",
          "name": "",
          "type": "uint256"
        }
      ],
      "name": "maxSupply",
      "outputs": [
        {
          "internalType": "uint256",
          "name": "",
          "type": "uint256"
        }
      ],
      "stateMutability": "view",
      "type": "function"
    },
    {
      "inputs": [
        {
          "internalType": "address",
          "name": "to",
          "type": "address"
        },
        {
          "internalType": "uint256",
          "name": "itemId",
          "type": "uint256"
        },
        {
          "internalType": "uint256",
          "name": "amount",
          "type": "uint256"
        },
        {
          "internalType": "bytes",
          "name": "data",
          "type": "bytes"
        }
      ],
      "name": "mint",
      "outputs": [],
      "stateMutability": "nonpayable",
      "type": "function"
    },
    {
      "inputs": [],
      "name": "owner",
      "outputs": [
        {
          "internalType": "address",
          "name": "",
          "type": "address"
        }
      ],
      "stateMutability": "view",
      "type": "function"
    },
    {
      "inputs": [],
      "name": "pause",
      "outputs": [],
      "stateMutability": "nonpayable",
      "type": "function"
    },
    {
      "inputs": [],
      "name": "paused",
      "outputs": [
        {
          "internalType": "bool",
          "name": "",
          "type": "bool"
        }
      ],
      "stateMutability": "view",
      "type": "function"
    },
    {
      "inputs": [],
      "name": "renounceOwnership",
      "outputs": [],
      "stateMutability": "nonpayable",
      "type": "function"
    },
    {
      "inputs": [
        {
          "internalType": "address",
          "name": "from",
          "type": "address"
        },
        {
          "internalType": "address",
          "name": "to",
          "type": "address"
        },
        {
          "internalType": "uint256[]",
          "name": "ids",
          "type": "uint256[]"
        },
        {
          "internalType": "uint256[]",
          "name": "values",
          "type": "uint256[]"
        },
        {
          "internalType": "bytes",
          "name": "data",
          "type": "bytes"
        }
      ],
      "name": "safeBatchTransferFrom",
      "outputs": [],
      "stateMutability": "nonpayable",
      "type": "function"
    },
    {
      "inputs": [
        {
          "internalType": "address",
          "name": "from",
          "type": "address"
        },
        {
          "internalType": "address",
          "name": "to",
          "type": "address"
        },
        {
          "internalType": "uint256",
          "name": "id",
          "type": "uint256"
        },
        {
          "internalType": "uint256",
          "name": "value",
          "type": "uint256"
        },
        {
          "internalType": "bytes",
          "name": "data",
          "type": "bytes"
        }
      ],
      "name": "safeTransferFrom",
      "outputs": [],
      "stateMutability": "nonpayable",
      "type": "function"
    },
    {
      "inputs": [
        {
          "internalType": "address",
          "name": "operator",
          "type": "address"
        },
        {
          "internalType": "bool",
          "name": "approved",
          "type": "bool"
        }
      ],
      "name": "setApprovalForAll",
      "outputs": [],
      "stateMutability": "nonpayable",
      "type": "function"
    },
    {
      "inputs": [
        {
          "internalType": "uint256",
          "name": "itemId",
          "type": "uint256"
        },
        {
          "internalType": "uint256",
          "name": "price",
          "type": "uint256"
        }
      ],
      "name": "setItemPrice",
      "outputs": [],
      "stateMutability": "nonpayable",
      "type": "function"
    },
    {
      "inputs": [
        {
          "internalType": "uint256",
          "name": "itemId",
          "type": "uint256"
        },
        {
          "internalType": "uint8",
          "name": "itemType",
          "type": "uint8"
        }
      ],
      "name": "setItemType",
      "outputs": [],
      "stateMutability": "nonpayable",
      "type": "function"
    },
    {
      "inputs": [
        {
          "internalType": "uint256",
          "name": "itemId",
          "type": "uint256"
        },
        {
          "internalType": "string",
          "name": "uri",
          "type": "string"
        }
      ],
      "name": "setItemURI",
      "outputs": [],
      "stateMutability": "nonpayable",
      "type": "function"
    },
    {
      "inputs": [
        {
          "internalType": "uint256",
          "name": "itemId",
          "type": "uint256"
        },
        {
          "internalType": "uint256",
          "name": "_maxSupply",
          "type": "uint256"
        }
      ],
      "name": "setMaxSupply",
      "outputs": [],
      "stateMutability": "nonpayable",
      "type": "function"
    },
    {
      "inputs": [
        {
          "internalType": "bytes4",
          "name": "interfaceId",
          "type": "bytes4"
        }
      ],
      "name": "supportsInterface",
      "outputs": [
        {
          "internalType": "bool",
          "name": "",
          "type": "bool"
        }
      ],
      "stateMutability": "view",
      "type": "function"
    },
    {
      "inputs": [
        {
          "internalType": "address",
          "name": "newOwner",
          "type": "address"
        }
      ],
      "name": "transferOwnership",
      "outputs": [],
      "stateMutability": "nonpayable",
      "type": "function"
    },
    {
      "inputs": [],
      "name": "unpause",
      "outputs": [],
      "stateMutability": "nonpayable",
      "type": "function"
    },
    {
      "inputs": [
        {
          "internalType": "uint256",
          "name": "tokenId",
          "type": "uint256"
        }
      ],
      "name": "uri",
      "outputs": [
        {
          "internalType": "string",
          "name": "",
          "type": "string"
        }
      ],
      "stateMutability": "view",
      "type": "function"
    }
  ],
  "bytecode": "0x6080346200017157602081016001600160401b038111828210176200015b5760405260008091526200003360025462000176565b601f81116200011a575b50806002556200004f60035462000176565b601f8111620000d9575b5060006003553315620000c15760058054336001600160a01b031982168117909255604051926001600160a01b03909116907f8be0079c531659141344cd1fd0a4f28419497f9722a3daafe3b4186f6b6457e09080a36001600655611bbb9081620001cd8239f35b60249060405190631e4fbdf760e01b82526004820152fd5b600382526200011390601f0160051c7fc2575a0e9e593c00f959f8c92f12db2869c3395a3b0502d05e2516446f71f85b90810190620001b3565b3862000059565b600282526200015490601f0160051c7f405787fa12a823e0f2b7631cc41b3ba8828b3321ca811111fa75cd3aa3bb5ace90810190620001b3565b386200003d565b634e487b7160e01b600052604160045260246000fd5b600080fd5b90600182811c92168015620001a8575b60208310146200019257565b634e487b7160e01b600052602260045260246000fd5b91607f169162000186565b818110620001bf575050565b60008155600101620001b356fe6080604052600436101561001257600080fd5b60003560e01c8062fdd58e1461019157806301ffc9a71461018c57806303cb92fc146101875780630e89341c146101825780632eb2c2d61461017d57806337da577c146101785780633f4ba83a146101735780634229c35e1461016e5780634e1273f4146101695780635c975abb146101645780636dbfeaaf1461015f578063715018a61461015a578063731133e9146101555780637b9125df146101505780638456cb591461014b578063869f7594146101465780638da5cb5b146101415780639acf878c14610132578063a22cb4651461013c578063bf91ad9e14610137578063c19a4ef514610132578063e985e9c51461012d578063f242432a146101285763f2fde38b1461012357600080fd5b610f41565b610e23565b610dc6565b610caf565b610d9a565b610cde565b610c86565b610c5a565b610c00565b610bd4565b610a2a565b6109c9565b610936565b610913565b610858565b6107b9565b61074f565b6106f5565b6105cc565b610502565b610338565b61023a565b6101db565b600435906001600160a01b03821682036101ac57565b600080fd5b602435906001600160a01b03821682036101ac57565b35906001600160a01b03821682036101ac57565b346101ac5760403660031901126101ac57602061021f6101f9610196565b6024356000526000835260406000209060018060a01b0316600052602052604060002090565b54604051908152f35b6001600160e01b03198116036101ac57565b346101ac5760203660031901126101ac57602060043561025981610228565b63ffffffff60e01b16636cdb3d1360e11b8114908115610297575b8115610286575b506040519015158152f35b6301ffc9a760e01b1490503861027b565b6303a24d0760e21b81149150610274565b634e487b7160e01b600052604160045260246000fd5b90601f8019910116810190811067ffffffffffffffff8211176102e057604052565b6102a8565b67ffffffffffffffff81116102e057601f01601f191660200190565b92919261030d826102e5565b9161031b60405193846102be565b8294818452818301116101ac578281602093846000960137010152565b346101ac5760403660031901126101ac5760043567ffffffffffffffff6024358181116101ac57366023820112156101ac5761037e903690602481600401359101610301565b9161038761142f565b6000918183526020906004602052604084209185519182116102e0576103b7826103b18554610fcf565b8561145b565b602090601f83116001146104385750819085966103eb9495969261042d575b50508160011b916000199060031b1c19161790565b90555b7f6bb7ff708619ba0610cba295a58592e0451dee2622938c8755667688daf3529b61042761041b83611189565b604051918291826104ee565b0390a280f35b0151905038806103d6565b90601f1983169661044e85600052602060002090565b9287905b89821061048e5750508360019596979810610475575b505050811b0190556103ee565b015160001960f88460031b161c19169055388080610468565b80600185968294968601518155019501930190610452565b60005b8381106104b95750506000910152565b81810151838201526020016104a9565b906020916104e2815180928185528580860191016104a6565b601f01601f1916010190565b9060206104ff9281815201906104c9565b90565b346101ac5760203660031901126101ac57610535610521600435611189565b6040519182916020835260208301906104c9565b0390f35b67ffffffffffffffff81116102e05760051b60200190565b9080601f830112156101ac57602090823561056b81610539565b9361057960405195866102be565b81855260208086019260051b8201019283116101ac57602001905b8282106105a2575050505090565b81358152908301908301610594565b9080601f830112156101ac578160206104ff93359101610301565b346101ac5760a03660031901126101ac576105e5610196565b6105ed6101b1565b906044359167ffffffffffffffff908184116101ac5761061260049436908601610551565b906064358381116101ac5761062a9036908701610551565b926084359081116101ac5761064290369087016105b1565b936001600160a01b038082169033821415806106d1575b6106a45783161561068c5715610675576106739550611637565b005b604051626a0d4560e21b8152600081880152602490fd5b604051632bfa23e760e11b8152600081890152602490fd5b6040805163711bec9160e11b815233818b019081526001600160a01b038616602082015290918291010390fd5b50600082815260016020908152604080832033845290915290205460ff1615610659565b346101ac5760403660031901126101ac576004357f5af22a09e6677efe5d29d19bf6a17f71d28caad7707022d8eab337320df9f50d602060243561073761142f565b83600052600b825280604060002055604051908152a2005b346101ac5760003660031901126101ac5761076861142f565b60075460ff8116156107a75760ff19166007557f5db9ee0a495bf2e6ff9c91a7834c1ba4fdd244a5e8aa4e537bd38aeae4b073aa6020604051338152a1005b604051638dfc202b60e01b8152600490fd5b346101ac5760403660031901126101ac576004357fa0f1665b7b659537b52deec61ea64d134a3bccda74c7f4e79f2246e7a8187a8a60206024356107fb61142f565b836000526008825280604060002055604051908152a2005b90815180825260208080930193019160005b828110610833575050505090565b835185529381019392810192600101610825565b9060206104ff928181520190610813565b346101ac5760403660031901126101ac5760043567ffffffffffffffff8082116101ac57366023830112156101ac57816004013561089581610539565b926108a360405194856102be565b8184526020916024602086019160051b830101913683116101ac57602401905b8282106108fc57856024358681116101ac57610535916108ea6108f0923690600401610551565b906112a5565b60405191829182610847565b838091610908846101c7565b8152019101906108c3565b346101ac5760003660031901126101ac57602060ff600754166040519015158152f35b346101ac5760403660031901126101ac5760243560ff81168091036101ac5761095d61142f565b6001811161098457600435600052600960205260406000209060ff19825416179055600080f35b60405162461bcd60e51b815260206004820152601b60248201527f47616d654974656d3a20696e76616c6964206974656d207479706500000000006044820152606490fd5b346101ac57600080600319360112610a27576109e361142f565b600580546001600160a01b0319811690915581906001600160a01b03167f8be0079c531659141344cd1fd0a4f28419497f9722a3daafe3b4186f6b6457e08280a380f35b80fd5b346101ac5760803660031901126101ac57610a43610196565b602435906044359060643567ffffffffffffffff81116101ac57610a6b9036906004016105b1565b610a7361142f565b610a7b6114b1565b600260065414610bc25760026006556001600160a01b038216928315610b6f57610aef610b209282877fd9be9c40c7e99dfc974fa3fe3b790af02afd2939b5dedfccb1ba12933eb27a8e96610ad1831515611364565b610ae582600052600b602052604060002090565b54610b2d576114cf565b610b0385600052600a602052604060002090565b610b0e8282546113c0565b90556040519081529081906020820190565b0390a36106736001600655565b610b6a610b4e84610b4885600052600a602052604060002090565b546113c0565b610b6284600052600b602052604060002090565b5410156113e3565b6114cf565b60405162461bcd60e51b815260206004820152602560248201527f47616d654974656d3a2063616e6e6f74206d696e7420746f207a65726f206164604482015264647265737360d81b6064820152608490fd5b604051633ee5aeb560e01b8152600490fd5b346101ac5760203660031901126101ac57600435600052600a6020526020604060002054604051908152f35b346101ac5760003660031901126101ac57610c1961142f565b610c216114b1565b600160ff1960075416176007557f62e78cea01bee320cd4e420270b5ea74000d11b0c9f74754ebdbfc544b05a2586020604051338152a1005b346101ac5760203660031901126101ac57600435600052600b6020526020604060002054604051908152f35b346101ac5760003660031901126101ac576005546040516001600160a01b039091168152602090f35b346101ac5760203660031901126101ac576004356000526009602052602060ff60406000205416604051908152f35b346101ac5760403660031901126101ac57610cf7610196565b60243590811515908183036101ac576001600160a01b038116928315610d8257610d43610d549233600052600160205260406000209060018060a01b0316600052602052604060002090565b9060ff801983541691151516179055565b6040519081527f17307eab39ab6107e8899845ad3d59bd9653f200f220920489ca2b5937696c3160203392a3005b60405162ced3e160e81b815260006004820152602490fd5b346101ac5760203660031901126101ac5760043560005260086020526020604060002054604051908152f35b346101ac5760403660031901126101ac57602060ff610e17610de6610196565b610dee6101b1565b6001600160a01b0391821660009081526001865260408082209290931681526020919091522090565b54166040519015158152f35b346101ac5760a03660031901126101ac57610e3c610196565b610e446101b1565b60843567ffffffffffffffff81116101ac57610e649036906004016105b1565b906001600160a01b03838116903382141580610f1d575b610ef657821615610edd5715610ec55761067392610ebd6064356044359160405192600184526020840152604083019160018352606084015260808301604052565b929091611637565b604051626a0d4560e21b815260006004820152602490fd5b604051632bfa23e760e11b815260006004820152602490fd5b60405163711bec9160e11b81523360048201526001600160a01b0386166024820152604490fd5b50600082815260016020908152604080832033845290915290205460ff1615610e7b565b346101ac5760203660031901126101ac57610f5a610196565b610f6261142f565b6001600160a01b03908116908115610fb657600554826bffffffffffffffffffffffff60a01b821617600555167f8be0079c531659141344cd1fd0a4f28419497f9722a3daafe3b4186f6b6457e0600080a3005b604051631e4fbdf760e01b815260006004820152602490fd5b90600182811c92168015610fff575b6020831014610fe957565b634e487b7160e01b600052602260045260246000fd5b91607f1691610fde565b604051906000826002549161101d83610fcf565b808352926020906001908181169081156110ab575060011461104a575b5050611048925003836102be565b565b91509260026000527f405787fa12a823e0f2b7631cc41b3ba8828b3321ca811111fa75cd3aa3bb5ace936000925b8284106110935750611048945050508101602001388061103a565b85548885018301529485019487945092810192611078565b9150506020925061104894915060ff191682840152151560051b820101388061103a565b906040519182600082546110e281610fcf565b908184526020946001916001811690816000146111505750600114611111575b505050611048925003836102be565b600090815285812095935091905b8183106111385750506110489350820101388080611102565b8554888401850152948501948794509183019161111f565b9250505061104894925060ff191682840152151560051b820101388080611102565b90611185602092828151948592016104a6565b0190565b60009081526020600481526111a0604083206110cf565b8051909190156112705760405192839181600354906111be82610fcf565b9160019081811690811561124f57506001146111f4575b505050506111e6906104ff93611172565b03601f1981018352826102be565b9091929350600382527fc2575a0e9e593c00f959f8c92f12db2869c3395a3b0502d05e2516446f71f85b5b83831061123957505050820101826111e66104ff386111d5565b805488840186015287955091840191810161121f565b60ff191687860152505050801515028301019050826111e66104ff386111d5565b5050506104ff611009565b805182101561128f5760209160051b010190565b634e487b7160e01b600052603260045260246000fd5b919091805183518082036113425750508051906112da6112c483610539565b926112d260405194856102be565b808452610539565b60209190601f1901368484013760005b815181101561133a57600581901b8281018401519087018401516000908152602081815260408083206001600160a01b039094168352929052205460019190611333828761127b565b52016112ea565b509193505050565b604051635b05999160e01b815260048101919091526024810191909152604490fd5b1561136b57565b60405162461bcd60e51b815260206004820152602760248201527f47616d654974656d3a20616d6f756e74206d75737420626520677265617465726044820152660207468616e20360cc1b6064820152608490fd5b919082018092116113cd57565b634e487b7160e01b600052601160045260246000fd5b156113ea57565b60405162461bcd60e51b815260206004820152601d60248201527f47616d654974656d3a206d617820737570706c792065786365656465640000006044820152606490fd5b6005546001600160a01b0316330361144357565b60405163118cdaa760e01b8152336004820152602490fd5b90601f811161146957505050565b6000916000526020600020906020601f850160051c830194106114a7575b601f0160051c01915b82811061149c57505050565b818155600101611490565b9092508290611487565b60ff600754166114bd57565b60405163d93c066560e01b8152600490fd5b6001600160a01b03811693929091908415610edd5761150b60405192600184526020840152604083019160018352606084015260808301604052565b926115146114b1565b815184519081810361134257505060005b8251811015611584578060019160051b61157c6115748761155d602080868b010151958c010151946000526000602052604060002090565b9060018060a01b0316600052602052604060002090565b9182546113c0565b905501611525565b5092919360018251146000146115fb5760208281015184820151604080519283529282015260009133917fc3d58168c5ae7397731d063d5bbf3d657854427343f4c083240f7aacaa2d0f629190a45b80516001036115f15790602080611048959301519101519133611af4565b61104893336118fa565b60006040517f4a39dc06d4c0dbc64b70af90fd698a233a518aa5d07e595d983b8c0526c8f7fb33918061162f888883611b60565b0390a46115d3565b949190916116436114b1565b815184519081810361134257505060005b825181101561174257600581901b83810160209081015191870101516001600160a01b03929186908a85166116bc575b6001948216611697575b50505001611654565b6116b29161155d611574926000526000602052604060002090565b905538858161168e565b91929390506116d98a61155d846000526000602052604060002090565b5483811061170b57918791846001969594036117038d61155d856000526000602052604060002090565b559450611684565b6040516303dee4c560e01b81526001600160a01b038c16600482015260248101919091526044810184905260648101839052608490fd5b5094919392909360018551146000146117ed576020858101518382015160408051928352928201526001600160a01b03838116929086169133917fc3d58168c5ae7397731d063d5bbf3d657854427343f4c083240f7aacaa2d0f6291a45b6001600160a01b0381166117b6575b5050505050565b84516001036117dc576020806117d29601519201519233611b29565b38808080806117af565b6117e8949192336119f5565b6117d2565b6040516001600160a01b03828116919085169033907f4a39dc06d4c0dbc64b70af90fd698a233a518aa5d07e595d983b8c0526c8f7fb9080611830888c83611b60565b0390a46117a0565b908160209103126101ac57516104ff81610228565b9261187c6104ff959361188a9360018060a01b031686526000602087015260a0604087015260a0860190610813565b908482036060860152610813565b9160808184039101526104c9565b93906104ff959361187c9161188a9460018060a01b03809216885216602087015260a0604087015260a0860190610813565b3d156118f5573d906118db826102e5565b916118e960405193846102be565b82523d6000602084013e565b606090565b9293919093843b61190c575050505050565b60209161192f604051948593849363bc197c8160e01b988986526004860161184d565b038160006001600160a01b0388165af1600091816119c4575b5061198757826119566118ca565b805191908261198057604051632bfa23e760e11b81526001600160a01b0383166004820152602490fd5b6020915001fd5b6001600160e01b031916036119a1575038808080806117af565b604051632bfa23e760e11b81526001600160a01b03919091166004820152602490fd5b6119e791925060203d6020116119ee575b6119df81836102be565b810190611838565b9038611948565b503d6119d5565b939290949194853b611a0a575b505050505050565b611a2d602093604051958694859463bc197c8160e01b998a875260048701611898565b038160006001600160a01b0388165af160009181611a6f575b50611a5457826119566118ca565b6001600160e01b031916036119a15750388080808080611a02565b611a8991925060203d6020116119ee576119df81836102be565b9038611a46565b909260a0926104ff9594600180861b03168352600060208401526040830152606082015281608082015201906104c9565b91926104ff95949160a094600180871b0380921685521660208401526040830152606082015281608082015201906104c9565b9293919093843b611b06575050505050565b60209161192f604051948593849363f23a6e6160e01b9889865260048601611a90565b939290949194853b611b3d57505050505050565b611a2d602093604051958694859463f23a6e6160e01b998a875260048701611ac1565b9091611b776104ff93604084526040840190610813565b91602081840391015261081356fea2646970667358221220dc464fddc84436525a907cc7ea53c26ec04bb6811f901b623aae039b06e98b7264736f6c63430008180033",
  "linkReferences": {},
  "deployedLinkReferences": {}
}