{
  "_format": "hh-sol-artifact-1",
  "contractName": "CATCoin",
  "sourceName": "contracts/CATCoin.sol",
  "abi": [
    {
      "inputs": [],
      "stateMutability": "nonpayable",
      "type": "constructor"
    },
    {
      "inputs": [
        {
          "internalType": "address",
          "name": "spender",
          "type": "address"
        },
        {
          "internalType": "uint256",
          "name": "allowance",
          "type": "uint256"
        },
        {
          "internalType": "uint256",
          "name": "needed",
          "type": "uint256"
        }
      ],
      "name": "ERC20InsufficientAllowance",
      "type": "error"
    },
    {
      "inputs": [
        {
          "internalType": "address",
          "name": "sender",
          "type": "address"
        },
        {
          "internalType": "uint256",
          "name": "balance",
          "type": "uint256"
        },
        {
          "internalType": "uint256",
          "name": "needed",
          "type": "uint256"
        }
      ],
      "name": "ERC20InsufficientBalance",
      "type": "error"
    },
    {
      "inputs": [
        {
          "internalType": "address",
          "name": "approver",
          "type": "address"
        }
      ],
      "name": "ERC20InvalidApprover",
      "type": "error"
    },
    {
      "inputs": [
        {
          "internalType": "address",
          "name": "receiver",
          "type": "address"
        }
      ],
      "name": "ERC20InvalidReceiver",
      "type": "error"
    },
    {
      "inputs": [
        {
          "internalType": "address",
          "name": "sender",
          "type": "address"
        }
      ],
      "name": "ERC20InvalidSender",
      "type": "error"
    },
    {
      "inputs": [
        {
          "internalType": "address",
          "name": "spender",
          "type": "address"
        }
      ],
      "name": "ERC20InvalidSpender",
      "type": "error"
    },
    {
      "inputs": [],
      "name": "EnforcedPause",
      "type": "error"
    },
    {
      "inputs": [],
      "name": "ExpectedPause",
      "type": "error"
    },
    {
      "inputs": [
        {
          "internalType": "address",
          "name": "owner",
          "type": "address"
        }
      ],
      "name": "OwnableInvalidOwner",
      "type": "error"
    },
    {
      "inputs": [
        {
          "internalType": "address",
          "name": "account",
          "type": "address"
        }
      ],
      "name": "OwnableUnauthorizedAccount",
      "type": "error"
    },
    {
      "inputs": [],
      "name": "ReentrancyGuardReentrantCall",
      "type": "error"
    },
    {
      "anonymous": false,
      "inputs": [
        {
          "indexed": true,
          "internalType": "address",
          "name": "owner",
          "type": "address"
        },
        {
          "indexed": true,
          "internalType": "address",
          "name": "spender",
          "type": "address"
        },
        {
          "indexed": false,
          "internalType": "uint256",
          "name": "value",
          "type": "uint256"
        }
      ],
      "name": "Approval",
      "type": "event"
    },
    {
      "anonymous": false,
      "inputs": [
        {
          "indexed": true,
          "internalType": "address",
          "name": "previousOwner",
          "type": "address"
        },
        {
          "indexed": true,
          "internalType": "address",
          "name": "newOwner",
          "type": "address"
        }
      ],
      "name": "OwnershipTransferred",
      "type": "event"
    },
    {
      "anonymous": false,
      "inputs": [
        {
          "indexed": false,
          "internalType": "address",
          "name": "account",
          "type": "address"
        }
      ],
      "name": "Paused",
      "type": "event"
    },
    {
      "anonymous": false,
      "inputs": [
        {
          "indexed": true,
          "internalType": "address",
          "name": "from",
          "type": "address"
        },
        {
          "indexed": true,
          "internalType": "address",
          "name": "to",
          "type": "address"
        },
        {
          "indexed": false,
          "internalType": "uint256",
          "name": "value",
          "type": "uint256"
        }
      ],
      "name": "Transfer",
      "type": "event"
    },
    {
      "anonymous": false,
      "inputs": [
        {
          "indexed": false,
          "internalType": "address",
          "name": "account",
          "type": "address"
        }
      ],
      "name": "Unpaused",
      "type": "event"
    },
    {
      "inputs": [
        {
          "internalType": "address",
          "name": "owner",
          "type": "address"
        },
        {
          "internalType": "address",
          "name": "spender",
          "type": "address"
        }
      ],
      "name": "allowance",
      "outputs": [
        {
          "internalType": "uint256",
          "name": "",
          "type": "uint256"
        }
      ],
      "stateMutability": "view",
      "type": "function"
    },
    {
      "inputs": [
        {
          "internalType": "address",
          "name": "spender",
          "type": "address"
        },
        {
          "internalType": "uint256",
          "name": "value",
          "type": "uint256"
        }
      ],
      "name": "approve",
      "outputs": [
        {
          "internalType": "bool",
          "name": "",
          "type": "bool"
        }
      ],
      "stateMutability": "nonpayable",
      "type": "function"
    },
    {
      "inputs": [
        {
          "internalType": "address",
          "name": "account",
          "type": "address"
        }
      ],
      "name": "balanceOf",
      "outputs": [
        {
          "internalType": "uint256",
          "name": "",
          "type": "uint256"
        }
      ],
      "stateMutability": "view",
      "type": "function"
    },
    {
      "inputs": [
        {
          "internalType": "uint256",
          "name": "amount",
          "type": "uint256"
        }
      ],
      "name": "burn",
      "outputs": [],
      "stateMutability": "nonpayable",
      "type": "function"
    },
    {
      "inputs": [],
      "name": "decimals",
      "outputs": [
        {
          "internalType": "uint8",
          "name": "",
          "type": "uint8"
        }
      ],
      "stateMutability": "view",
      "type": "function"
    },
    {
      "inputs": [
        {
          "internalType": "address",
          "name": "to",
          "type": "address"
        },
        {
          "internalType": "uint256",
          "name": "amount",
          "type": "uint256"
        }
      ],
      "name": "mint",
      "outputs": [],
      "stateMutability": "nonpayable",
      "type": "function"
    },
    {
      "inputs": [],
      "name": "name",
      "outputs": [
        {
          "internalType": "string",
          "name": "",
          "type": "string"
        }
      ],
      "stateMutability": "view",
      "type": "function"
    },
    {
      "inputs": [],
      "name": "owner",
      "outputs": [
        {
          "internalType": "address",
          "name": "",
          "type": "address"
        }
      ],
      "stateMutability": "view",
      "type": "function"
    },
    {
      "inputs": [],
      "name": "pause",
      "outputs": [],
      "stateMutability": "nonpayable",
      "type": "function"
    },
    {
      "inputs": [],
      "name": "paused",
      "outputs": [
        {
          "internalType": "bool",
          "name": "",
          "type": "bool"
        }
      ],
      "stateMutability": "view",
      "type": "function"
    },
    {
      "inputs": [],
      "name": "renounceOwnership",
      "outputs": [],
      "stateMutability": "nonpayable",
      "type": "function"
    },
    {
      "inputs": [],
      "name": "symbol",
      "outputs": [
        {
          "internalType": "string",
          "name": "",
          "type": "string"
        }
      ],
      "stateMutability": "view",
      "type": "function"
    },
    {
      "inputs": [],
      "name": "totalSupply",
      "outputs": [
        {
          "internalType": "uint256",
          "name": "",
          "type": "uint256"
        }
      ],
      "stateMutability": "view",
      "type": "function"
    },
    {
      "inputs": [
        {
          "internalType": "address",
          "name": "to",
          "type": "address"
        },
        {
          "internalType": "uint256",
          "name": "value",
          "type": "uint256"
        }
      ],
      "name": "transfer",
      "outputs": [
        {
          "internalType": "bool",
          "name": "",
          "type": "bool"
        }
      ],
      "stateMutability": "nonpayable",
      "type": "function"
    },
    {
      "inputs": [
        {
          "internalType": "address",
          "name": "from",
          "type": "address"
        },
        {
          "internalType": "address",
          "name": "to",
          "type": "address"
        },
        {
          "internalType": "uint256",
          "name": "value",
          "type": "uint256"
        }
      ],
      "name": "transferFrom",
      "outputs": [
        {
          "internalType": "bool",
          "name": "",
          "type": "bool"
        }
      ],
      "stateMutability": "nonpayable",
      "type": "function"
    },
    {
      "inputs": [
        {
          "internalType": "address",
          "name": "newOwner",
          "type": "address"
        }
      ],
      "name": "transferOwnership",
      "outputs": [],
      "stateMutability": "nonpayable",
      "type": "function"
    },
    {
      "inputs": [],
      "name": "unpause",
      "outputs": [],
      "stateMutability": "nonpayable",
      "type": "function"
    }
  ],
  "bytecode": "0x60803462000386576001600160401b03906040908082018381118282101762000286578252600881526020926721a0aa1021b7b4b760c11b84830152825190838201828110828211176200028657845260038083526210d05560ea1b86840152835182811162000286578154906001958683811c931680156200037b575b8984101462000365578190601f938481116200030f575b508990848311600114620002a8576000926200029c575b505060001982851b1c191690861b1782555b835192831162000286576004938454978689811c991680156200027b575b818a101462000266578883869798999a116200020a575b50809285116001146200019c575060009362000190575b505082851b92600019911b1c19161781555b331562000179575060058054336001600160a01b0319821681179092559251926001600160a01b03167f8be0079c531659141344cd1fd0a4f28419497f9722a3daafe3b4186f6b6457e0600080a3600655610c2490816200038c8239f35b6024906000845191631e4fbdf760e01b8352820152fd5b01519150388062000109565b929190879550601f1985168760005284600020946000905b828210620001f05750508511620001d5575b50505050811b0181556200011b565b01519060f884600019921b161c1916905538808080620001c6565b8484015187558a98909601959384019390810190620001b4565b90919293945086600052816000208480880160051c8201928489106200025c575b918a91899897969594930160051c01915b8281106200024c575050620000f2565b600081558897508a91016200023c565b925081926200022b565b602286634e487b7160e01b6000525260246000fd5b98607f1698620000db565b634e487b7160e01b600052604160045260246000fd5b015190503880620000ab565b90889350601f19831691866000528b6000209260005b8d828210620002f85750508411620002df575b505050811b018255620000bd565b015160001983871b60f8161c19169055388080620002d1565b8385015186558c97909501949384019301620002be565b90915084600052896000208480850160051c8201928c86106200035b575b918a91869594930160051c01915b8281106200034b57505062000094565b600081558594508a91016200033b565b925081926200032d565b634e487b7160e01b600052602260045260246000fd5b92607f16926200007d565b600080fdfe6080604081815260048036101561001557600080fd5b600092833560e01c90816306fdde03146108cf57508063095ea7b31461082657806318160ddd1461080757806323b872dd14610714578063313ce567146106f85780633f4ba83a1461068f57806340c10f191461057f57806342966c681461044f5780635c975abb1461042b57806370a08231146103f4578063715018a6146103945780638456cb59146103395780638da5cb5b1461031057806395d89b41146101ee578063a9059cbb146101bd578063dd62ed3e146101705763f2fde38b146100de57600080fd5b3461016c57602036600319011261016c576100f7610a0f565b90610100610b81565b6001600160a01b03918216928315610156575050600554826bffffffffffffffffffffffff60a01b821617600555167f8be0079c531659141344cd1fd0a4f28419497f9722a3daafe3b4186f6b6457e08380a380f35b51631e4fbdf760e01b8152908101849052602490fd5b8280fd5b5050346101b957806003193601126101b9578060209261018e610a0f565b610196610a2a565b6001600160a01b0391821683526001865283832091168252845220549051908152f35b5080fd5b5050346101b957806003193601126101b9576020906101e76101dd610a0f565b6024359033610a9b565b5160018152f35b509190346101b957816003193601126101b95780519082845460018160011c9060018316928315610306575b60209384841081146102f3578388529081156102d75750600114610282575b505050829003601f01601f191682019267ffffffffffffffff84118385101761026f575082918261026b9252826109c6565b0390f35b634e487b7160e01b815260418552602490fd5b8787529192508591837f8a35acfbc15ff81a39ae7d344fd709f28e8600b4aa8c65c6b64bfe7fe36bd19b5b8385106102c35750505050830101388080610239565b8054888601830152930192849082016102ad565b60ff1916878501525050151560051b8401019050388080610239565b634e487b7160e01b895260228a52602489fd5b91607f169161021a565b5050346101b957816003193601126101b95760055490516001600160a01b039091168152602090f35b5050346101b957816003193601126101b95760207f62e78cea01bee320cd4e420270b5ea74000d11b0c9f74754ebdbfc544b05a25891610377610b81565b61037f610bad565b600160ff19600754161760075551338152a180f35b83346103f157806003193601126103f1576103ad610b81565b600580546001600160a01b0319811690915581906001600160a01b03167f8be0079c531659141344cd1fd0a4f28419497f9722a3daafe3b4186f6b6457e08280a380f35b80fd5b5050346101b95760203660031901126101b95760209181906001600160a01b0361041c610a0f565b16815280845220549051908152f35b5050346101b957816003193601126101b95760209060ff6007541690519015158152f35b509190346101b95760208060031936011261016c5783359161046f610bad565b610477610bcb565b610482831515610a40565b33845283825282818520541061053c573315610526576104a0610bad565b33845283825280842054948386106104fb5750907fddf252ad1be2c89b69c2b068fc378daa952ba7f163c4a11628f55a4df523b3ef9183859633875286845203818620558360025403600255519283523392a3600160065580f35b905163391434e360e21b81523391810191825260208201869052604082018490529081906060010390fd5b51634b637e8f60e11b8152808501849052602490fd5b5162461bcd60e51b815280850191909152601d60248201527f434154436f696e3a20696e73756666696369656e742062616c616e63650000006044820152606490fd5b50903461016c578060031936011261016c57610599610a0f565b90602435916105a6610b81565b6105ae610bad565b6105b6610bcb565b6001600160a01b0316928315610641576105d1831515610a40565b6105d9610bad565b6002549083820180921161062e575084927fddf252ad1be2c89b69c2b068fc378daa952ba7f163c4a11628f55a4df523b3ef9260209260025585855284835280852082815401905551908152a3600160065580f35b634e487b7160e01b865260119052602485fd5b6020608492519162461bcd60e51b83528201526024808201527f434154436f696e3a2063616e6e6f74206d696e7420746f207a65726f206164646044820152637265737360e01b6064820152fd5b503461016c578260031936011261016c576106a8610b81565b6007549060ff8216156106ea575060ff1916600755513381527f5db9ee0a495bf2e6ff9c91a7834c1ba4fdd244a5e8aa4e537bd38aeae4b073aa90602090a180f35b8251638dfc202b60e01b8152fd5b5050346101b957816003193601126101b9576020905160128152f35b5082346103f15760603660031901126103f15761072f610a0f565b610737610a2a565b916044359360018060a01b038316808352600160205286832033845260205286832054916000198310610773575b6020886101e7898989610a9b565b8683106107db5781156107c45733156107ad575082526001602090815286832033845281529186902090859003905582906101e787610765565b8751634a1406b160e11b8152908101849052602490fd5b875163e602df0560e01b8152908101849052602490fd5b8751637dc7a0d960e11b8152339181019182526020820193909352604081018790528291506060010390fd5b5050346101b957816003193601126101b9576020906002549051908152f35b503461016c578160031936011261016c5761083f610a0f565b6024359033156108b8576001600160a01b03169182156108a157508083602095338152600187528181208582528752205582519081527f8c5be1e5ebec7d5bd14f71427d1e84f3dd0314c0f7b2291e5b200ac8c7c3b925843392a35160018152f35b8351634a1406b160e11b8152908101859052602490fd5b835163e602df0560e01b8152808401869052602490fd5b849150833461016c578260031936011261016c578260035460018160011c90600183169283156109bc575b60209384841081146102f3578388529081156109a0575060011461094a57505050829003601f01601f191682019267ffffffffffffffff84118385101761026f575082918261026b9252826109c6565b600387529192508591837fc2575a0e9e593c00f959f8c92f12db2869c3395a3b0502d05e2516446f71f85b5b83851061098c5750505050830101858080610239565b805488860183015293019284908201610976565b60ff1916878501525050151560051b8401019050858080610239565b91607f16916108fa565b6020808252825181830181905290939260005b8281106109fb57505060409293506000838284010152601f8019910116010190565b8181018601518482016040015285016109d9565b600435906001600160a01b0382168203610a2557565b600080fd5b602435906001600160a01b0382168203610a2557565b15610a4757565b60405162461bcd60e51b815260206004820152602660248201527f434154436f696e3a20616d6f756e74206d75737420626520677265617465722060448201526507468616e20360d41b6064820152608490fd5b916001600160a01b03808416928315610b685716928315610b4f57610abe610bad565b60009083825281602052604082205490838210610b1d575091604082827fddf252ad1be2c89b69c2b068fc378daa952ba7f163c4a11628f55a4df523b3ef958760209652828652038282205586815220818154019055604051908152a3565b60405163391434e360e21b81526001600160a01b03919091166004820152602481019190915260448101839052606490fd5b60405163ec442f0560e01b815260006004820152602490fd5b604051634b637e8f60e11b815260006004820152602490fd5b6005546001600160a01b03163303610b9557565b60405163118cdaa760e01b8152336004820152602490fd5b60ff60075416610bb957565b60405163d93c066560e01b8152600490fd5b600260065414610bdc576002600655565b604051633ee5aeb560e01b8152600490fdfea2646970667358221220e979ae3a565b0a1c03730af2db63c1093ff70181d10fd7af48794dafc5ad51ee64736f6c63430008180033",
  "linkReferences": {},
  "deployedLinkReferences": {}
}