{
  "_format": "hh-sol-artifact-1",
  "contractName": "CatNFT",
  "sourceName": "contracts/CatNFT.sol",
  "abi": [
    {
      "inputs": [],
      "stateMutability": "nonpayable",
      "type": "constructor"
    },
    {
      "inputs": [
        {
          "internalType": "address",
          "name": "sender",
          "type": "address"
        },
        {
          "internalType": "uint256",
          "name": "tokenId",
          "type": "uint256"
        },
        {
          "internalType": "address",
          "name": "owner",
          "type": "address"
        }
      ],
      "name": "ERC721IncorrectOwner",
      "type": "error"
    },
    {
      "inputs": [
        {
          "internalType": "address",
          "name": "operator",
          "type": "address"
        },
        {
          "internalType": "uint256",
          "name": "tokenId",
          "type": "uint256"
        }
      ],
      "name": "ERC721InsufficientApproval",
      "type": "error"
    },
    {
      "inputs": [
        {
          "internalType": "address",
          "name": "approver",
          "type": "address"
        }
      ],
      "name": "ERC721InvalidApprover",
      "type": "error"
    },
    {
      "inputs": [
        {
          "internalType": "address",
          "name": "operator",
          "type": "address"
        }
      ],
      "name": "ERC721InvalidOperator",
      "type": "error"
    },
    {
      "inputs": [
        {
          "internalType": "address",
          "name": "owner",
          "type": "address"
        }
      ],
      "name": "ERC721InvalidOwner",
      "type": "error"
    },
    {
      "inputs": [
        {
          "internalType": "address",
          "name": "receiver",
          "type": "address"
        }
      ],
      "name": "ERC721InvalidReceiver",
      "type": "error"
    },
    {
      "inputs": [
        {
          "internalType": "address",
          "name": "sender",
          "type": "address"
        }
      ],
      "name": "ERC721InvalidSender",
      "type": "error"
    },
    {
      "inputs": [
        {
          "internalType": "uint256",
          "name": "tokenId",
          "type": "uint256"
        }
      ],
      "name": "ERC721NonexistentToken",
      "type": "error"
    },
    {
      "inputs": [],
      "name": "EnforcedPause",
      "type": "error"
    },
    {
      "inputs": [],
      "name": "ExpectedPause",
      "type": "error"
    },
    {
      "inputs": [
        {
          "internalType": "address",
          "name": "owner",
          "type": "address"
        }
      ],
      "name": "OwnableInvalidOwner",
      "type": "error"
    },
    {
      "inputs": [
        {
          "internalType": "address",
          "name": "account",
          "type": "address"
        }
      ],
      "name": "OwnableUnauthorizedAccount",
      "type": "error"
    },
    {
      "inputs": [],
      "name": "ReentrancyGuardReentrantCall",
      "type": "error"
    },
    {
      "anonymous": false,
      "inputs": [
        {
          "indexed": true,
          "internalType": "address",
          "name": "owner",
          "type": "address"
        },
        {
          "indexed": true,
          "internalType": "address",
          "name": "approved",
          "type": "address"
        },
        {
          "indexed": true,
          "internalType": "uint256",
          "name": "tokenId",
          "type": "uint256"
        }
      ],
      "name": "Approval",
      "type": "event"
    },
    {
      "anonymous": false,
      "inputs": [
        {
          "indexed": true,
          "internalType": "address",
          "name": "owner",
          "type": "address"
        },
        {
          "indexed": true,
          "internalType": "address",
          "name": "operator",
          "type": "address"
        },
        {
          "indexed": false,
          "internalType": "bool",
          "name": "approved",
          "type": "bool"
        }
      ],
      "name": "ApprovalForAll",
      "type": "event"
    },
    {
      "anonymous": false,
      "inputs": [
        {
          "indexed": false,
          "internalType": "uint256",
          "name": "_fromTokenId",
          "type": "uint256"
        },
        {
          "indexed": false,
          "internalType": "uint256",
          "name": "_toTokenId",
          "type": "uint256"
        }
      ],
      "name": "BatchMetadataUpdate",
      "type": "event"
    },
    {
      "anonymous": false,
      "inputs": [
        {
          "indexed": true,
          "internalType": "address",
          "name": "to",
          "type": "address"
        },
        {
          "indexed": true,
          "internalType": "uint256",
          "name": "tokenId",
          "type": "uint256"
        },
        {
          "indexed": true,
          "internalType": "uint256",
          "name": "catTypeId",
          "type": "uint256"
        }
      ],
      "name": "CatMinted",
      "type": "event"
    },
    {
      "anonymous": false,
      "inputs": [
        {
          "indexed": true,
          "internalType": "uint256",
          "name": "catTypeId",
          "type": "uint256"
        },
        {
          "indexed": false,
          "internalType": "uint256",
          "name": "maxSupply",
          "type": "uint256"
        }
      ],
      "name": "MaxSupplySet",
      "type": "event"
    },
    {
      "anonymous": false,
      "inputs": [
        {
          "indexed": false,
          "internalType": "uint256",
          "name": "_tokenId",
          "type": "uint256"
        }
      ],
      "name": "MetadataUpdate",
      "type": "event"
    },
    {
      "anonymous": false,
      "inputs": [
        {
          "indexed": true,
          "internalType": "address",
          "name": "previousOwner",
          "type": "address"
        },
        {
          "indexed": true,
          "internalType": "address",
          "name": "newOwner",
          "type": "address"
        }
      ],
      "name": "OwnershipTransferred",
      "type": "event"
    },
    {
      "anonymous": false,
      "inputs": [
        {
          "indexed": false,
          "internalType": "address",
          "name": "account",
          "type": "address"
        }
      ],
      "name": "Paused",
      "type": "event"
    },
    {
      "anonymous": false,
      "inputs": [
        {
          "indexed": true,
          "internalType": "uint256",
          "name": "catTypeId",
          "type": "uint256"
        },
        {
          "indexed": false,
          "internalType": "uint256",
          "name": "price",
          "type": "uint256"
        }
      ],
      "name": "PriceSet",
      "type": "event"
    },
    {
      "anonymous": false,
      "inputs": [
        {
          "indexed": true,
          "internalType": "address",
          "name": "from",
          "type": "address"
        },
        {
          "indexed": true,
          "internalType": "address",
          "name": "to",
          "type": "address"
        },
        {
          "indexed": true,
          "internalType": "uint256",
          "name": "tokenId",
          "type": "uint256"
        }
      ],
      "name": "Transfer",
      "type": "event"
    },
    {
      "anonymous": false,
      "inputs": [
        {
          "indexed": false,
          "internalType": "address",
          "name": "account",
          "type": "address"
        }
      ],
      "name": "Unpaused",
      "type": "event"
    },
    {
      "inputs": [
        {
          "internalType": "address",
          "name": "to",
          "type": "address"
        },
        {
          "internalType": "uint256",
          "name": "tokenId",
          "type": "uint256"
        }
      ],
      "name": "approve",
      "outputs": [],
      "stateMutability": "nonpayable",
      "type": "function"
    },
    {
      "inputs": [
        {
          "internalType": "address",
          "name": "owner",
          "type": "address"
        }
      ],
      "name": "balanceOf",
      "outputs": [
        {
          "internalType": "uint256",
          "name": "",
          "type": "uint256"
        }
      ],
      "stateMutability": "view",
      "type": "function"
    },
    {
      "inputs": [
        {
          "internalType": "uint256",
          "name": "",
          "type": "uint256"
        }
      ],
      "name": "catPrices",
      "outputs": [
        {
          "internalType": "uint256",
          "name": "",
          "type": "uint256"
        }
      ],
      "stateMutability": "view",
      "type": "function"
    },
    {
      "inputs": [
        {
          "internalType": "uint256",
          "name": "",
          "type": "uint256"
        }
      ],
      "name": "catType",
      "outputs": [
        {
          "internalType": "uint256",
          "name": "",
          "type": "uint256"
        }
      ],
      "stateMutability": "view",
      "type": "function"
    },
    {
      "inputs": [
        {
          "internalType": "uint256",
          "name": "tokenId",
          "type": "uint256"
        }
      ],
      "name": "getApproved",
      "outputs": [
        {
          "internalType": "address",
          "name": "",
          "type": "address"
        }
      ],
      "stateMutability": "view",
      "type": "function"
    },
    {
      "inputs": [
        {
          "internalType": "uint256",
          "name": "tokenId",
          "type": "uint256"
        }
      ],
      "name": "getCatType",
      "outputs": [
        {
          "internalType": "uint256",
          "name": "",
          "type": "uint256"
        }
      ],
      "stateMutability": "view",
      "type": "function"
    },
    {
      "inputs": [
        {
          "internalType": "address",
          "name": "owner",
          "type": "address"
        },
        {
          "internalType": "address",
          "name": "operator",
          "type": "address"
        }
      ],
      "name": "isApprovedForAll",
      "outputs": [
        {
          "internalType": "bool",
          "name": "",
          "type": "bool"
        }
      ],
      "stateMutability": "view",
      "type": "function"
    },
    {
      "inputs": [
        {
          "internalType": "uint256",
          "name": "",
          "type": "uint256"
        }
      ],
      "name": "maxSupply",
      "outputs": [
        {
          "internalType": "uint256",
          "name": "",
          "type": "uint256"
        }
      ],
      "stateMutability": "view",
      "type": "function"
    },
    {
      "inputs": [
        {
          "internalType": "address",
          "name": "to",
          "type": "address"
        },
        {
          "internalType": "uint256",
          "name": "catTypeId",
          "type": "uint256"
        },
        {
          "internalType": "string",
          "name": "tokenURI",
          "type": "string"
        }
      ],
      "name": "mint",
      "outputs": [
        {
          "internalType": "uint256",
          "name": "",
          "type": "uint256"
        }
      ],
      "stateMutability": "nonpayable",
      "type": "function"
    },
    {
      "inputs": [],
      "name": "name",
      "outputs": [
        {
          "internalType": "string",
          "name": "",
          "type": "string"
        }
      ],
      "stateMutability": "view",
      "type": "function"
    },
    {
      "inputs": [],
      "name": "owner",
      "outputs": [
        {
          "internalType": "address",
          "name": "",
          "type": "address"
        }
      ],
      "stateMutability": "view",
      "type": "function"
    },
    {
      "inputs": [
        {
          "internalType": "uint256",
          "name": "tokenId",
          "type": "uint256"
        }
      ],
      "name": "ownerOf",
      "outputs": [
        {
          "internalType": "address",
          "name": "",
          "type": "address"
        }
      ],
      "stateMutability": "view",
      "type": "function"
    },
    {
      "inputs": [],
      "name": "pause",
      "outputs": [],
      "stateMutability": "nonpayable",
      "type": "function"
    },
    {
      "inputs": [],
      "name": "paused",
      "outputs": [
        {
          "internalType": "bool",
          "name": "",
          "type": "bool"
        }
      ],
      "stateMutability": "view",
      "type": "function"
    },
    {
      "inputs": [],
      "name": "renounceOwnership",
      "outputs": [],
      "stateMutability": "nonpayable",
      "type": "function"
    },
    {
      "inputs": [
        {
          "internalType": "address",
          "name": "from",
          "type": "address"
        },
        {
          "internalType": "address",
          "name": "to",
          "type": "address"
        },
        {
          "internalType": "uint256",
          "name": "tokenId",
          "type": "uint256"
        }
      ],
      "name": "safeTransferFrom",
      "outputs": [],
      "stateMutability": "nonpayable",
      "type": "function"
    },
    {
      "inputs": [
        {
          "internalType": "address",
          "name": "from",
          "type": "address"
        },
        {
          "internalType": "address",
          "name": "to",
          "type": "address"
        },
        {
          "internalType": "uint256",
          "name": "tokenId",
          "type": "uint256"
        },
        {
          "internalType": "bytes",
          "name": "data",
          "type": "bytes"
        }
      ],
      "name": "safeTransferFrom",
      "outputs": [],
      "stateMutability": "nonpayable",
      "type": "function"
    },
    {
      "inputs": [
        {
          "internalType": "address",
          "name": "operator",
          "type": "address"
        },
        {
          "internalType": "bool",
          "name": "approved",
          "type": "bool"
        }
      ],
      "name": "setApprovalForAll",
      "outputs": [],
      "stateMutability": "nonpayable",
      "type": "function"
    },
    {
      "inputs": [
        {
          "internalType": "uint256",
          "name": "catTypeId",
          "type": "uint256"
        },
        {
          "internalType": "uint256",
          "name": "price",
          "type": "uint256"
        }
      ],
      "name": "setCatPrice",
      "outputs": [],
      "stateMutability": "nonpayable",
      "type": "function"
    },
    {
      "inputs": [
        {
          "internalType": "uint256",
          "name": "catTypeId",
          "type": "uint256"
        },
        {
          "internalType": "uint256",
          "name": "_maxSupply",
          "type": "uint256"
        }
      ],
      "name": "setMaxSupply",
      "outputs": [],
      "stateMutability": "nonpayable",
      "type": "function"
    },
    {
      "inputs": [
        {
          "internalType": "bytes4",
          "name": "interfaceId",
          "type": "bytes4"
        }
      ],
      "name": "supportsInterface",
      "outputs": [
        {
          "internalType": "bool",
          "name": "",
          "type": "bool"
        }
      ],
      "stateMutability": "view",
      "type": "function"
    },
    {
      "inputs": [],
      "name": "symbol",
      "outputs": [
        {
          "internalType": "string",
          "name": "",
          "type": "string"
        }
      ],
      "stateMutability": "view",
      "type": "function"
    },
    {
      "inputs": [
        {
          "internalType": "uint256",
          "name": "tokenId",
          "type": "uint256"
        }
      ],
      "name": "tokenURI",
      "outputs": [
        {
          "internalType": "string",
          "name": "",
          "type": "string"
        }
      ],
      "stateMutability": "view",
      "type": "function"
    },
    {
      "inputs": [],
      "name": "totalSupply",
      "outputs": [
        {
          "internalType": "uint256",
          "name": "",
          "type": "uint256"
        }
      ],
      "stateMutability": "view",
      "type": "function"
    },
    {
      "inputs": [
        {
          "internalType": "address",
          "name": "from",
          "type": "address"
        },
        {
          "internalType": "address",
          "name": "to",
          "type": "address"
        },
        {
          "internalType": "uint256",
          "name": "tokenId",
          "type": "uint256"
        }
      ],
      "name": "transferFrom",
      "outputs": [],
      "stateMutability": "nonpayable",
      "type": "function"
    },
    {
      "inputs": [
        {
          "internalType": "address",
          "name": "newOwner",
          "type": "address"
        }
      ],
      "name": "transferOwnership",
      "outputs": [],
      "stateMutability": "nonpayable",
      "type": "function"
    },
    {
      "inputs": [
        {
          "internalType": "uint256",
          "name": "",
          "type": "uint256"
        }
      ],
      "name": "typeSupply",
      "outputs": [
        {
          "internalType": "uint256",
          "name": "",
          "type": "uint256"
        }
      ],
      "stateMutability": "view",
      "type": "function"
    },
    {
      "inputs": [],
      "name": "unpause",
      "outputs": [],
      "stateMutability": "nonpayable",
      "type": "function"
    }
  ],
  "bytecode": "0x60803462000381576001600160401b0390604090808201838111828210176200036b5782526009815260209168141a5e195b0810d85d60ba1b83830152805193818501858110828211176200036b578252600685526510d05513919560d21b8486015282518181116200036b576000948554916001958684811c9416801562000360575b838510146200034c578190601f94858111620002f9575b5083908583116001146200029557899262000289575b5050600019600383901b1c191690861b1786555b8651928311620002755784548581811c911680156200026a575b8282101462000256578281116200020e575b5080918311600114620001a557508495829394959262000199575b5050600019600383901b1c191690831b1782555b3315620001825760078054336001600160a01b03198216811790925591519390916001600160a01b0316907f8be0079c531659141344cd1fd0a4f28419497f9722a3daafe3b4186f6b6457e09080a380600855600a556115429081620003878239f35b51631e4fbdf760e01b815260048101839052602490fd5b0151905038806200010b565b90601f198316968587528287209287905b898210620001f65750508386979896959610620001dc575b505050811b0182556200011f565b015160001960f88460031b161c19169055388080620001ce565b808885968294968601518155019501930190620001b6565b8587528187208380860160051c8201928487106200024c575b0160051c019086905b82811062000240575050620000f0565b88815501869062000230565b9250819262000227565b634e487b7160e01b87526022600452602487fd5b90607f1690620000de565b634e487b7160e01b86526041600452602486fd5b015190503880620000b0565b898052848a208994509190601f1984168b5b87828210620002e25750508411620002c8575b505050811b018655620000c4565b015160001960f88460031b161c19169055388080620002ba565b8385015186558c97909501949384019301620002a7565b9091508880528389208580850160051c82019286861062000342575b918a91869594930160051c01915b828110620003335750506200009a565b8b81558594508a910162000323565b9250819262000315565b634e487b7160e01b88526022600452602488fd5b93607f169362000083565b634e487b7160e01b600052604160045260246000fd5b600080fdfe6080604081815260048036101561001557600080fd5b600092833560e01c90816301ffc9a714610f4f5750806306fdde0314610e9e578063081812fc14610e63578063095ea7b314610d8757806318160ddd14610d4757806323b872dd14610d2f5780632acd990f14610ca457806337da577c14610c535780633f4ba83a14610bea57806342842e0e14610bc157806345a33f3214610b9a5780635c975abb14610b765780636352211e14610b4557806370107e1514610b1e57806370a0823114610ac9578063715018a614610a6c5780637a2805cb14610a455780638456cb59146109ea578063869f7594146109c35780638da5cb5b1461099a57806395d89b41146108ac578063a22cb4651461080f578063b3c6487b146107be578063b88d4fde14610756578063c87b56dd14610660578063d3fc98641461023b578063e985e9c5146101e95763f2fde38b1461015757600080fd5b346101e55760203660031901126101e557610170611015565b906101796114c2565b6001600160a01b039182169283156101cf575050600754826bffffffffffffffffffffffff60a01b821617600755167f8be0079c531659141344cd1fd0a4f28419497f9722a3daafe3b4186f6b6457e08380a380f35b51631e4fbdf760e01b8152908101849052602490fd5b8280fd5b50503461023757806003193601126102375760ff81602093610209611015565b610211611030565b6001600160a01b0391821683526005875283832091168252855220549151911615158152f35b5080fd5b5091903461023757606036600319011261023757610257611015565b906024938435916044359167ffffffffffffffff9283811161065c573660238201121561065c5761029090369089818501359101611101565b926102996114c2565b6102a16114ee565b60026008541461064d5760026008556001600160a01b039586169384156105ff57908594939291889687526020998a98600e8a528589205461057a575b889087600a549b8c926102f084611462565b600a5583855260028252898520541690838a8315159687610547575b8581526003845220805460019081019091559d5260029052888e2080546001600160a01b031916831790557fddf252ad1be2c89b69c2b068fc378daa952ba7f163c4a11628f55a4df523b3ef8e80a461053357888a5260068b52848a209382519384116105225750509082916103858996959454611138565b601f81116104ca575b508a90601f831160011461043d577f5e7ba0e952b60af622a0b42609eecd1854deee467f89008e1817f4b827d55d6f949392918b9183610432575b5050600019600383901b1c191690881b1790555b7ff8e1a15aba9398e019f0b49df1a4fde98ee17ae345cb5f6b5e2c27f5033e8ce7898251868152a1838852600c89528481892055848852600d89528088206104258154611462565b9055519680a46008558152f35b0151905038806103c9565b95949392918a89928d601f1984169086845280842093905b8282106104b057505098837f5e7ba0e952b60af622a0b42609eecd1854deee467f89008e1817f4b827d55d6f98999a10610497575b505050811b0190556103dd565b015160001960f88460031b161c1916905538808061048a565b838c015185558e9a508d969094019392830192018f610455565b90919280949596508a528a8a20601f840160051c8101918c8510610518575b8a97969594939291601f8b920160051c01915b82811061050a57505061038e565b8c81558b98508a91016104fc565b90915081906104e9565b634e487b7160e01b8b526041905289fd5b84516339e3563760e11b81528085018b9052fd5b600083815260046020526040902080546001600160a01b031916905584815260038452818120805460001901905561030c565b919395975091939597600d905285892054600e8b52868a205411156105a857918997959391899795936102de565b855162461bcd60e51b81528086018b9052602c818401527f4361744e46543a206d617820737570706c79207265616368656420666f72207460448201526b68697320636174207479706560a01b6064820152608490fd5b835162461bcd60e51b81526020818501526023818b01527f4361744e46543a2063616e6e6f74206d696e7420746f207a65726f206164647260448201526265737360e81b6064820152608490fd5b509051633ee5aeb560e01b8152fd5b8680fd5b5090346101e55760209182600319360112610752573561067f81611487565b5083526006825280832092815180948290805461069b81611138565b918285526001918860018216918260001461072b5750506001146106ed575b5050506106e99392916106ce9103866110c3565b81516106d981611091565b5251928284938452830190610fd5565b0390f35b8552868520879350859291905b82841061071357505050820101816106ce6106e96106ba565b8054848b0186015289955088949093019281016106fa565b60ff19168782015293151560051b860190930193508492506106ce91506106e990506106ba565b8380fd5b83823461023757608036600319011261023757610771611015565b610779611030565b9060643567ffffffffffffffff81116107ba57366023820112156107ba576107b7938160246107ad93369301359101611101565b9160443591611311565b80f35b8480fd5b505034610237577fa0f1665b7b659537b52deec61ea64d134a3bccda74c7f4e79f2246e7a8187a8a60206107f13661107b565b90936107fb6114c2565b848652600b8352818187205551908152a280f35b5090346101e557806003193601126101e557610829611015565b90602435918215158093036107ba576001600160a01b03169283156108975750338452600560205280842083855260205280842060ff1981541660ff8416179055519081527f17307eab39ab6107e8899845ad3d59bd9653f200f220920489ca2b5937696c3160203392a380f35b836024925191630b61174360e31b8352820152fd5b8284346109975780600319360112610997578151918282600193600154946108d386611138565b9182855260209687600182169182600014610970575050600114610914575b5050506106e992916109059103856110c3565b51928284938452830190610fd5565b9190869350600183527fb10e2d527612073b26eecdfd717e6a320cf44b4afac2b0732d9fcbe2b7fa0cf65b82841061095857505050820101816109056106e96108f2565b8054848a01860152889550879490930192810161093f565b60ff19168782015293151560051b8601909301935084925061090591506106e990506108f2565b80fd5b50503461023757816003193601126102375760075490516001600160a01b039091168152602090f35b50346101e55760203660031901126101e5576020928291358152600e845220549051908152f35b50503461023757816003193601126102375760207f62e78cea01bee320cd4e420270b5ea74000d11b0c9f74754ebdbfc544b05a25891610a286114c2565b610a306114ee565b600160ff19600954161760095551338152a180f35b50346101e55760203660031901126101e5576020928291358152600c845220549051908152f35b8334610997578060031936011261099757610a856114c2565b600780546001600160a01b0319811690915581906001600160a01b03167f8be0079c531659141344cd1fd0a4f28419497f9722a3daafe3b4186f6b6457e08280a380f35b509134610997576020366003190112610997576001600160a01b03610aec611015565b16928315610b095750806020938392526003845220549051908152f35b91516322718ad960e21b815291820152602490fd5b50346101e55760203660031901126101e5576020928291358152600b845220549051908152f35b5091346109975760203660031901126109975750610b6560209235611487565b90516001600160a01b039091168152f35b50503461023757816003193601126102375760209060ff6009541690519015158152f35b50346101e55760203660031901126101e5576020928291358152600d845220549051908152f35b505034610237576107b790610bd536611046565b91925192610be284611091565b858452611311565b50346101e557826003193601126101e557610c036114c2565b6009549060ff821615610c45575060ff1916600955513381527f5db9ee0a495bf2e6ff9c91a7834c1ba4fdd244a5e8aa4e537bd38aeae4b073aa90602090a180f35b8251638dfc202b60e01b8152fd5b505034610237577f5af22a09e6677efe5d29d19bf6a17f71d28caad7707022d8eab337320df9f50d6020610c863661107b565b9093610c906114c2565b848652600e8352818187205551908152a280f35b508290346102375760203660031901126102375780358083526002602052838320549091906001600160a01b031615610cec576020848085858152600c845220549051908152f35b606490602085519162461bcd60e51b8352820152601c60248201527f4361744e46543a20746f6b656e20646f6573206e6f74206578697374000000006044820152fd5b8334610997576107b7610d4136611046565b91611172565b50919034610237578160031936011261023757600a54600019810192908311610d74576020838351908152f35b634e487b7160e01b815260118452602490fd5b5090346101e557806003193601126101e557610da1611015565b91602435610dae81611487565b33151580610e50575b80610e27575b610e11576001600160a01b039485169482918691167f8c5be1e5ebec7d5bd14f71427d1e84f3dd0314c0f7b2291e5b200ac8c7c3b9258880a48452602052822080546001600160a01b031916909117905580f35b835163a9fbf51f60e01b81523381850152602490fd5b506001600160a01b03811686526005602090815284872033885290528386205460ff1615610dbd565b506001600160a01b038116331415610db7565b50346101e55760203660031901126101e557918260209335610e8481611487565b50825283528190205490516001600160a01b039091168152f35b82843461099757806003193601126109975781519182828354610ec081611138565b9081845260209560019187600182169182600014610970575050600114610ef4575050506106e992916109059103856110c3565b91908693508280527f290decd9548b62a8d60345a988386fc84ba6bc95484008f6362f93160ef3e5635b828410610f3757505050820101816109056106e96108f2565b8054848a018601528895508794909301928101610f1e565b925050346101e55760203660031901126101e5573563ffffffff60e01b81168091036101e55760209250632483248360e11b8114908115610f92575b5015158152f35b6380ac58cd60e01b811491508115610fc4575b8115610fb3575b5038610f8b565b6301ffc9a760e01b14905038610fac565b635b5e139f60e01b81149150610fa5565b919082519283825260005b848110611001575050826000602080949584010152601f8019910116010190565b602081830181015184830182015201610fe0565b600435906001600160a01b038216820361102b57565b600080fd5b602435906001600160a01b038216820361102b57565b606090600319011261102b576001600160a01b0390600435828116810361102b5791602435908116810361102b579060443590565b604090600319011261102b576004359060243590565b6020810190811067ffffffffffffffff8211176110ad57604052565b634e487b7160e01b600052604160045260246000fd5b90601f8019910116810190811067ffffffffffffffff8211176110ad57604052565b67ffffffffffffffff81116110ad57601f01601f191660200190565b92919261110d826110e5565b9161111b60405193846110c3565b82948184528183011161102b578281602093846000960137010152565b90600182811c92168015611168575b602083101461115257565b634e487b7160e01b600052602260045260246000fd5b91607f1691611147565b6001600160a01b0391821692909183156112f857600092828452826020956002875260409684888820541696879133151580611262575b509060027fddf252ad1be2c89b69c2b068fc378daa952ba7f163c4a11628f55a4df523b3ef928461122f575b858352600381528b8320805460010190558683525289812080546001600160a01b0319168517905580a4169283830361120e5750505050565b6064945051926364283d7b60e01b8452600484015260248301526044820152fd5b600087815260046020526040902080546001600160a01b0319169055848352600381528b832080546000190190556111d5565b919394509150806112b7575b1561127e578592918791386111a9565b87868861129b576024915190637e27328960e01b82526004820152fd5b604491519063177e802f60e01b82523360048301526024820152fd5b5033871480156112dc575b8061126e575085825260048152338589842054161461126e565b5086825260058152878220338352815260ff88832054166112c2565b604051633250574960e11b815260006004820152602490fd5b92909261131f838583611172565b833b61132c575b50505050565b604051630a85bd0160e11b8082523360048301526001600160a01b0392831660248301526044820194909452608060648201529493169260209290918590611378906084830190610fd5565b039483816000978189895af1869181611422575b506113ed575050503d6000146113e4573d6113a6816110e5565b906113b460405192836110c3565b81528093823d92013e5b825192836113df57604051633250574960e11b815260048101849052602490fd5b019050fd5b606092506113be565b919450915063ffffffff60e01b160361140a575038808080611326565b60249060405190633250574960e11b82526004820152fd5b9091508481813d831161145b575b61143a81836110c3565b8101031261065c57516001600160e01b03198116810361065c57903861138c565b503d611430565b60001981146114715760010190565b634e487b7160e01b600052601160045260246000fd5b6000818152600260205260409020546001600160a01b03169081156114aa575090565b60249060405190637e27328960e01b82526004820152fd5b6007546001600160a01b031633036114d657565b60405163118cdaa760e01b8152336004820152602490fd5b60ff600954166114fa57565b60405163d93c066560e01b8152600490fdfea2646970667358221220ca0eb2dbc6401318deb8181b569d37c5d59f0b57b21d587a918a366b3ad1dd8864736f6c63430008180033",
  "linkReferences": {},
  "deployedLinkReferences": {}
}